{
  "abi": [
    {
      "inputs": [
        {
          "internalType": "contract IStrategyRegistry",
          "name": "strategyRegistry_",
          "type": "address"
        },
        {
          "internalType": "contract IUsdPriceFeedManager",
          "name": "priceFeedManager_",
          "type": "address"
        },
        {
          "internalType": "contract IGuardManager",
          "name": "guardManager_",
          "type": "address"
        },
        {
          "internalType": "contract IActionManager",
          "name": "actionManager_",
          "type": "address"
        },
        {
          "internalType": "contract ISpoolAccessControl",
          "name": "accessControl_",
          "type": "address"
        },
        {
          "internalType": "contract IMasterWallet",
          "name": "masterWallet_",
          "type": "address"
        },
        {
          "internalType": "address",
          "name": "ghostStrategy",
          "type": "address"
        }
      ],
      "stateMutability": "nonpayable",
      "type": "constructor"
    },
    {
      "inputs": [],
      "name": "ConfigurationAddressZero",
      "type": "error"
    },
    {
      "inputs": [
        {
          "internalType": "uint256",
          "name": "id",
          "type": "uint256"
        }
      ],
      "name": "DepositNftNotSyncedYet",
      "type": "error"
    },
    {
      "inputs": [],
      "name": "IncorrectDepositRatio",
      "type": "error"
    },
    {
      "inputs": [],
      "name": "InvalidAssetLengths",
      "type": "error"
    },
    {
      "inputs": [
        {
          "internalType": "uint256",
          "name": "depositNftId",
          "type": "uint256"
        }
      ],
      "name": "InvalidDepositNftId",
      "type": "error"
    },
    {
      "inputs": [],
      "name": "InvalidNftArrayLength",
      "type": "error"
    },
    {
      "inputs": [],
      "name": "InvalidNormalization",
      "type": "error"
    },
    {
      "inputs": [
        {
          "internalType": "bytes32",
          "name": "role",
          "type": "bytes32"
        },
        {
          "internalType": "address",
          "name": "account",
          "type": "address"
        }
      ],
      "name": "MissingRole",
      "type": "error"
    },
    {
      "inputs": [],
      "name": "NoDepositsToRecover",
      "type": "error"
    },
    {
      "inputs": [],
      "name": "NotGhostVault",
      "type": "error"
    },
    {
      "inputs": [],
      "name": "SmartVaultWorthIsZero",
      "type": "error"
    },
    {
      "anonymous": false,
      "inputs": [
        {
          "indexed": true,
          "internalType": "address",
          "name": "smartVault",
          "type": "address"
        },
        {
          "indexed": true,
          "internalType": "address",
          "name": "receiver",
          "type": "address"
        },
        {
          "indexed": true,
          "internalType": "uint256",
          "name": "depositId",
          "type": "uint256"
        },
        {
          "indexed": false,
          "internalType": "uint256",
          "name": "flushIndex",
          "type": "uint256"
        },
        {
          "indexed": false,
          "internalType": "uint256[]",
          "name": "assets",
          "type": "uint256[]"
        },
        {
          "indexed": false,
          "internalType": "address",
          "name": "depositor",
          "type": "address"
        },
        {
          "indexed": false,
          "internalType": "address",
          "name": "referral",
          "type": "address"
        }
      ],
      "name": "DepositInitiated",
      "type": "event"
    },
    {
      "anonymous": false,
      "inputs": [
        {
          "indexed": true,
          "internalType": "address",
          "name": "smartVault",
          "type": "address"
        },
        {
          "indexed": false,
          "internalType": "uint256[]",
          "name": "recoveredAssets",
          "type": "uint256[]"
        }
      ],
      "name": "PendingDepositsRecovered",
      "type": "event"
    },
    {
      "anonymous": false,
      "inputs": [
        {
          "indexed": true,
          "internalType": "address",
          "name": "smartVault",
          "type": "address"
        },
        {
          "components": [
            {
              "internalType": "uint256",
              "name": "depositFees",
              "type": "uint256"
            },
            {
              "internalType": "uint256",
              "name": "performanceFees",
              "type": "uint256"
            },
            {
              "internalType": "uint256",
              "name": "managementFees",
              "type": "uint256"
            }
          ],
          "indexed": false,
          "internalType": "struct SmartVaultFeesCollected",
          "name": "smartVaultFeesCollected",
          "type": "tuple"
        }
      ],
      "name": "SmartVaultFeesMinted",
      "type": "event"
    },
    {
      "anonymous": false,
      "inputs": [
        {
          "indexed": true,
          "internalType": "address",
          "name": "smartVault",
          "type": "address"
        },
        {
          "indexed": true,
          "internalType": "address",
          "name": "claimer",
          "type": "address"
        },
        {
          "indexed": false,
          "internalType": "uint256",
          "name": "claimedVaultTokens",
          "type": "uint256"
        },
        {
          "indexed": false,
          "internalType": "uint256[]",
          "name": "nftIds",
          "type": "uint256[]"
        },
        {
          "indexed": false,
          "internalType": "uint256[]",
          "name": "nftAmounts",
          "type": "uint256[]"
        }
      ],
      "name": "SmartVaultTokensClaimed",
      "type": "event"
    },
    {
      "inputs": [
        {
          "internalType": "uint256[]",
          "name": "exchangeRates",
          "type": "uint256[]"
        },
        {
          "internalType": "uint16a16",
          "name": "allocation",
          "type": "uint256"
        },
        {
          "internalType": "uint256[][]",
          "name": "strategyRatios",
          "type": "uint256[][]"
        }
      ],
      "name": "calculateDepositRatio",
      "outputs": [
        {
          "internalType": "uint256[]",
          "name": "",
          "type": "uint256[]"
        }
      ],
      "stateMutability": "pure",
      "type": "function"
    },
    {
      "inputs": [
        {
          "internalType": "uint256[]",
          "name": "exchangeRates",
          "type": "uint256[]"
        },
        {
          "internalType": "uint16a16",
          "name": "allocation",
          "type": "uint256"
        },
        {
          "internalType": "uint256[][]",
          "name": "strategyRatios",
          "type": "uint256[][]"
        }
      ],
      "name": "calculateFlushFactors",
      "outputs": [
        {
          "internalType": "uint256[][]",
          "name": "",
          "type": "uint256[][]"
        }
      ],
      "stateMutability": "pure",
      "type": "function"
    },
    {
      "inputs": [
        {
          "internalType": "uint256[]",
          "name": "deposit",
          "type": "uint256[]"
        },
        {
          "internalType": "uint256[]",
          "name": "exchangeRates",
          "type": "uint256[]"
        },
        {
          "internalType": "uint16a16",
          "name": "allocation",
          "type": "uint256"
        },
        {
          "internalType": "uint256[][]",
          "name": "strategyRatios",
          "type": "uint256[][]"
        }
      ],
      "name": "checkDepositRatio",
      "outputs": [],
      "stateMutability": "pure",
      "type": "function"
    },
    {
      "inputs": [
        {
          "internalType": "address",
          "name": "smartVault",
          "type": "address"
        },
        {
          "internalType": "uint256[]",
          "name": "nftIds",
          "type": "uint256[]"
        },
        {
          "internalType": "uint256[]",
          "name": "nftAmounts",
          "type": "uint256[]"
        },
        {
          "internalType": "address[]",
          "name": "tokens",
          "type": "address[]"
        },
        {
          "internalType": "address",
          "name": "owner",
          "type": "address"
        },
        {
          "internalType": "address",
          "name": "executor",
          "type": "address"
        },
        {
          "internalType": "uint256",
          "name": "flushIndexToSync",
          "type": "uint256"
        }
      ],
      "name": "claimSmartVaultTokens",
      "outputs": [
        {
          "internalType": "uint256",
          "name": "",
          "type": "uint256"
        }
      ],
      "stateMutability": "nonpayable",
      "type": "function"
    },
    {
      "inputs": [
        {
          "components": [
            {
              "internalType": "address",
              "name": "smartVault",
              "type": "address"
            },
            {
              "internalType": "uint256[]",
              "name": "assets",
              "type": "uint256[]"
            },
            {
              "internalType": "address",
              "name": "receiver",
              "type": "address"
            },
            {
              "internalType": "address",
              "name": "referral",
              "type": "address"
            },
            {
              "internalType": "bool",
              "name": "doFlush",
              "type": "bool"
            }
          ],
          "internalType": "struct DepositBag",
          "name": "bag",
          "type": "tuple"
        },
        {
          "components": [
            {
              "internalType": "address",
              "name": "depositor",
              "type": "address"
            },
            {
              "internalType": "address[]",
              "name": "tokens",
              "type": "address[]"
            },
            {
              "internalType": "address[]",
              "name": "strategies",
              "type": "address[]"
            },
            {
              "internalType": "uint16a16",
              "name": "allocations",
              "type": "uint256"
            },
            {
              "internalType": "uint256",
              "name": "flushIndex",
              "type": "uint256"
            }
          ],
          "internalType": "struct DepositExtras",
          "name": "bag2",
          "type": "tuple"
        }
      ],
      "name": "depositAssets",
      "outputs": [
        {
          "internalType": "uint256",
          "name": "",
          "type": "uint256"
        }
      ],
      "stateMutability": "nonpayable",
      "type": "function"
    },
    {
      "inputs": [
        {
          "components": [
            {
              "internalType": "uint256[]",
              "name": "deposit",
              "type": "uint256[]"
            },
            {
              "internalType": "uint256[]",
              "name": "exchangeRates",
              "type": "uint256[]"
            },
            {
              "internalType": "uint16a16",
              "name": "allocation",
              "type": "uint256"
            },
            {
              "internalType": "uint256[][]",
              "name": "strategyRatios",
              "type": "uint256[][]"
            }
          ],
          "internalType": "struct DepositQueryBag1",
          "name": "bag",
          "type": "tuple"
        }
      ],
      "name": "distributeDeposit",
      "outputs": [
        {
          "internalType": "uint256[][]",
          "name": "",
          "type": "uint256[][]"
        }
      ],
      "stateMutability": "pure",
      "type": "function"
    },
    {
      "inputs": [
        {
          "internalType": "address",
          "name": "smartVault",
          "type": "address"
        },
        {
          "internalType": "uint256",
          "name": "flushIndex",
          "type": "uint256"
        },
        {
          "internalType": "address[]",
          "name": "strategies",
          "type": "address[]"
        },
        {
          "internalType": "uint16a16",
          "name": "allocation",
          "type": "uint256"
        },
        {
          "internalType": "address[]",
          "name": "tokens",
          "type": "address[]"
        }
      ],
      "name": "flushSmartVault",
      "outputs": [
        {
          "internalType": "uint16a16",
          "name": "",
          "type": "uint256"
        }
      ],
      "stateMutability": "nonpayable",
      "type": "function"
    },
    {
      "inputs": [
        {
          "internalType": "address",
          "name": "smartVaultAddress",
          "type": "address"
        },
        {
          "components": [
            {
              "internalType": "uint256[]",
              "name": "assets",
              "type": "uint256[]"
            },
            {
              "internalType": "uint256",
              "name": "initiated",
              "type": "uint256"
            },
            {
              "internalType": "uint256",
              "name": "flushIndex",
              "type": "uint256"
            }
          ],
          "internalType": "struct DepositMetadata",
          "name": "data",
          "type": "tuple"
        },
        {
          "internalType": "uint256",
          "name": "nftShares",
          "type": "uint256"
        },
        {
          "internalType": "uint256",
          "name": "mintedSVTs",
          "type": "uint256"
        },
        {
          "internalType": "address[]",
          "name": "tokens",
          "type": "address[]"
        }
      ],
      "name": "getClaimedVaultTokensPreview",
      "outputs": [
        {
          "internalType": "uint256",
          "name": "",
          "type": "uint256"
        }
      ],
      "stateMutability": "view",
      "type": "function"
    },
    {
      "inputs": [
        {
          "internalType": "address[]",
          "name": "tokens",
          "type": "address[]"
        },
        {
          "internalType": "uint16a16",
          "name": "allocations",
          "type": "uint256"
        },
        {
          "internalType": "address[]",
          "name": "strategies",
          "type": "address[]"
        }
      ],
      "name": "getDepositRatio",
      "outputs": [
        {
          "internalType": "uint256[]",
          "name": "ratio",
          "type": "uint256[]"
        }
      ],
      "stateMutability": "view",
      "type": "function"
    },
    {
      "inputs": [
        {
          "internalType": "address",
          "name": "smartVault",
          "type": "address"
        },
        {
          "internalType": "uint256",
          "name": "flushIndex",
          "type": "uint256"
        },
        {
          "internalType": "address[]",
          "name": "strategies",
          "type": "address[]"
        },
        {
          "internalType": "address[]",
          "name": "tokens",
          "type": "address[]"
        },
        {
          "internalType": "address",
          "name": "emergencyWallet",
          "type": "address"
        }
      ],
      "name": "recoverPendingDeposits",
      "outputs": [],
      "stateMutability": "nonpayable",
      "type": "function"
    },
    {
      "inputs": [
        {
          "internalType": "address",
          "name": "smartVault",
          "type": "address"
        },
        {
          "internalType": "uint256",
          "name": "flushIdx",
          "type": "uint256"
        },
        {
          "internalType": "uint256",
          "name": "assetGroupLength",
          "type": "uint256"
        }
      ],
      "name": "smartVaultDeposits",
      "outputs": [
        {
          "internalType": "uint256[]",
          "name": "",
          "type": "uint256[]"
        }
      ],
      "stateMutability": "view",
      "type": "function"
    },
    {
      "inputs": [
        {
          "internalType": "address",
          "name": "smartVault",
          "type": "address"
        },
        {
          "internalType": "uint256[2]",
          "name": "bag",
          "type": "uint256[2]"
        },
        {
          "internalType": "address[]",
          "name": "strategies",
          "type": "address[]"
        },
        {
          "internalType": "uint16a16[2]",
          "name": "dhwIndexes",
          "type": "uint256[2]"
        },
        {
          "internalType": "address[]",
          "name": "assetGroup",
          "type": "address[]"
        },
        {
          "components": [
            {
              "internalType": "uint16",
              "name": "managementFeePct",
              "type": "uint16"
            },
            {
              "internalType": "uint16",
              "name": "depositFeePct",
              "type": "uint16"
            },
            {
              "internalType": "uint16",
              "name": "performanceFeePct",
              "type": "uint16"
            }
          ],
          "internalType": "struct SmartVaultFees",
          "name": "fees",
          "type": "tuple"
        }
      ],
      "name": "syncDeposits",
      "outputs": [
        {
          "components": [
            {
              "internalType": "uint256",
              "name": "mintedSVTs",
              "type": "uint256"
            },
            {
              "internalType": "uint256",
              "name": "dhwTimestamp",
              "type": "uint256"
            },
            {
              "internalType": "uint256",
              "name": "feeSVTs",
              "type": "uint256"
            },
            {
              "components": [
                {
                  "internalType": "uint256",
                  "name": "depositFees",
                  "type": "uint256"
                },
                {
                  "internalType": "uint256",
                  "name": "performanceFees",
                  "type": "uint256"
                },
                {
                  "internalType": "uint256",
                  "name": "managementFees",
                  "type": "uint256"
                }
              ],
              "internalType": "struct SmartVaultFeesCollected",
              "name": "feesCollected",
              "type": "tuple"
            },
            {
              "internalType": "uint256",
              "name": "initialLockedSVTs",
              "type": "uint256"
            },
            {
              "internalType": "uint256[]",
              "name": "sstShares",
              "type": "uint256[]"
            }
          ],
          "internalType": "struct DepositSyncResult",
          "name": "",
          "type": "tuple"
        }
      ],
      "stateMutability": "nonpayable",
      "type": "function"
    },
    {
      "inputs": [
        {
          "components": [
            {
              "internalType": "address",
              "name": "smartVault",
              "type": "address"
            },
            {
              "internalType": "uint256[2]",
              "name": "bag",
              "type": "uint256[2]"
            },
            {
              "internalType": "address[]",
              "name": "strategies",
              "type": "address[]"
            },
            {
              "internalType": "address[]",
              "name": "assetGroup",
              "type": "address[]"
            },
            {
              "internalType": "uint16a16",
              "name": "dhwIndexes",
              "type": "uint256"
            },
            {
              "internalType": "uint16a16",
              "name": "dhwIndexesOld",
              "type": "uint256"
            },
            {
              "components": [
                {
                  "internalType": "uint16",
                  "name": "managementFeePct",
                  "type": "uint16"
                },
                {
                  "internalType": "uint16",
                  "name": "depositFeePct",
                  "type": "uint16"
                },
                {
                  "internalType": "uint16",
                  "name": "performanceFeePct",
                  "type": "uint16"
                }
              ],
              "internalType": "struct SmartVaultFees",
              "name": "fees",
              "type": "tuple"
            }
          ],
          "internalType": "struct SimulateDepositParams",
          "name": "parameters",
          "type": "tuple"
        }
      ],
      "name": "syncDepositsSimulate",
      "outputs": [
        {
          "components": [
            {
              "internalType": "uint256",
              "name": "mintedSVTs",
              "type": "uint256"
            },
            {
              "internalType": "uint256",
              "name": "dhwTimestamp",
              "type": "uint256"
            },
            {
              "internalType": "uint256",
              "name": "feeSVTs",
              "type": "uint256"
            },
            {
              "components": [
                {
                  "internalType": "uint256",
                  "name": "depositFees",
                  "type": "uint256"
                },
                {
                  "internalType": "uint256",
                  "name": "performanceFees",
                  "type": "uint256"
                },
                {
                  "internalType": "uint256",
                  "name": "managementFees",
                  "type": "uint256"
                }
              ],
              "internalType": "struct SmartVaultFeesCollected",
              "name": "feesCollected",
              "type": "tuple"
            },
            {
              "internalType": "uint256",
              "name": "initialLockedSVTs",
              "type": "uint256"
            },
            {
              "internalType": "uint256[]",
              "name": "sstShares",
              "type": "uint256[]"
            }
          ],
          "internalType": "struct DepositSyncResult",
          "name": "result",
          "type": "tuple"
        }
      ],
      "stateMutability": "view",
      "type": "function"
    }
  ],
  "bytecode": {
    "object": "0x6101606040523480156200001257600080fd5b50604051620054fe380380620054fe8339810160408190526200003591620001a1565b826001600160a01b0381166200005e5760405163bb0e4c3560e01b815260040160405180910390fd5b6001600160a01b0390811660805285166200008c5760405163bb0e4c3560e01b815260040160405180910390fd5b6001600160a01b038416620000b45760405163bb0e4c3560e01b815260040160405180910390fd5b6001600160a01b038716620000dc5760405163bb0e4c3560e01b815260040160405180910390fd5b6001600160a01b038616620001045760405163bb0e4c3560e01b815260040160405180910390fd5b6001600160a01b0382166200012c5760405163bb0e4c3560e01b815260040160405180910390fd5b6001600160a01b038116620001545760405163bb0e4c3560e01b815260040160405180910390fd5b6001600160a01b0394851660e0529284166101005294831660a0525091811660c0529182166101205216610140526200024c565b6001600160a01b03811681146200019e57600080fd5b50565b600080600080600080600060e0888a031215620001bd57600080fd5b8751620001ca8162000188565b6020890151909750620001dd8162000188565b6040890151909650620001f08162000188565b6060890151909550620002038162000188565b6080890151909450620002168162000188565b60a0890151909350620002298162000188565b60c08901519092506200023c8162000188565b8091505092959891949750929550565b60805160a05160c05160e0516101005161012051610140516151ee620003106000396000612683015260006127ff015260006103f60152600081816102690152610f640152600081816105e5015281816114ca015281816115da01528181611bc30152818161253d01528181612a8901526137de0152600081816106950152818161175c0152818161194b015281816119ef015281816125f101528181612bc401528181612d9401526136ef015260008181610d500152612e4701526151ee6000f3fe608060405234801561001057600080fd5b50600436106100cf5760003560e01c8063708215b01161008c578063959aed4211610066578063959aed42146101b9578063ac18ea13146101ce578063b261ea8b146101e1578063fa6c18d8146101f457600080fd5b8063708215b01461018057806371b5cb8d1461019357806392a89fa1146101a657600080fd5b8063237d311d146100d45780633883c2f6146100fa578063413551571461011a57806341c4f0751461013a5780635e66a75e1461015a5780636521c1941461016d575b600080fd5b6100e76100e23660046139e2565b610207565b6040519081526020015b60405180910390f35b61010d610108366004613c26565b610964565b6040516100f19190613ccd565b61012d610128366004613ce0565b6109d5565b6040516100f19190613df3565b61014d610148366004613e85565b6109ff565b6040516100f19190613f49565b61010d610168366004613fbd565b610e7c565b6100e761017b366004613ff2565b610f28565b6100e761018e3660046140c9565b611320565b61014d6101a13660046142cc565b61174f565b61012d6101b4366004613c26565b612144565b6101cc6101c73660046143a6565b61239a565b005b61010d6101dc366004614437565b61251b565b6101cc6101ef366004614499565b61265e565b6100e7610202366004614538565b61294f565b6000600080516020615199833981519152336102238282612e21565b61023060208601866145cd565b905061023f60208601866145cd565b90501461025f576040516320ca797d60e21b815260040160405180910390fd5b6001600160a01b037f000000000000000000000000000000000000000000000000000000000000000016632c8dfb2661029b6020880188614616565b6040518060c001604052808960400160208101906102b99190614616565b6001600160a01b031681526020908101906102d6908a018a614616565b6001600160a01b031681526020908101906102f3908a018a614616565b6001600160a01b031681526020016000815260200189806020019061031891906145cd565b8080602002602001604051908101604052809392919081815260200183836020028082843760009201919091525050509082525060209081019061035e908a018a6145cd565b8080602002602001604051908101604052809392919081815260200183836020028082843760009201919091525050509152506040516001600160e01b031960e085901b1681526103b39291906004016146a4565b60006040518083038186803b1580156103cb57600080fd5b505afa1580156103df573d6000803e3d6000fd5b50506040805160e081019091526001600160a01b037f0000000000000000000000000000000000000000000000000000000000000000169250634a896e7591508061042d60208a018a614616565b6001600160a01b0316815260200161044b60608a0160408b01614616565b6001600160a01b0316815260209081019061046890890189614616565b6001600160a01b0316815260209081019061048590890189614616565b6001600160a01b03168152602001600081526020018780602001906104aa91906145cd565b808060200260200160405190810160405280939291908181526020018383602002808284376000920191909152505050908252506020908101906104f0908a018a6145cd565b8080602002602001604051908101604052809392919081815260200183836020028082843760009201919091525050509152506040516001600160e01b031960e084901b1681526105449190600401614724565b600060405180830381600087803b15801561055e57600080fd5b505af1158015610572573d6000803e3d6000fd5b50610717925061058891505060208701876145cd565b8080602002602001604051908101604052809392919081815260200183836020028082843760009201919091525073__$2fc03011347fd683a4aabd6bd80108a73f$__925063bd1b6f4291506105e3905060208901896145cd565b7f00000000000000000000000000000000000000000000000000000000000000006040518463ffffffff1660e01b8152600401610622939291906147ff565b600060405180830381865af415801561063f573d6000803e3d6000fd5b505050506040513d6000823e601f3d908101601f191682016040526106679190810190614886565b606087013573__$2fc03011347fd683a4aabd6bd80108a73f$__6332c24deb61069360408b018b6145cd565b7f00000000000000000000000000000000000000000000000000000000000000006040518463ffffffff1660e01b81526004016106d2939291906147ff565b600060405180830381865af41580156106ef573d6000803e3d6000fd5b505050506040513d6000823e601f3d908101601f191682016040526101c791908101906148ba565b60005b61072760208601866145cd565b90508110156107c35761073d60208701876145cd565b8281811061074d5761074d61496a565b905060200201356034600088600001602081019061076b9190614616565b6001600160a01b031681526020808201929092526040908101600090812060808a013582528352818120858252909252812080549091906107ad908490614996565b909155506107bc9050816149a9565b905061071a565b50600060405180606001604052808780602001906107e191906145cd565b80806020026020016040519081016040528093929190818152602001838360200280828437600092018290525093855250504260208085019190915260808a01356040909401939093525091925061083b90880188614616565b6001600160a01b031663b431608761085960608a0160408b01614616565b846040518363ffffffff1660e01b81526004016108779291906149c2565b6020604051808303816000875af1158015610896573d6000803e3d6000fd5b505050506040513d601f19601f820116820180604052508101906108ba9190614a0d565b9050806108cd6060890160408a01614616565b6001600160a01b03166108e360208a018a614616565b6001600160a01b03167fa6a70cc777947e6314128792031cd7a807f80f273c12fe5ebcced518030a736760808a013561091f60208d018d6145cd565b61092c60208e018e614616565b8e606001602081019061093f9190614616565b604051610950959493929190614a58565b60405180910390a49350505b505092915050565b606083516001036109b857604080516001808252818301909252600091602080830190803683370190505090506001816000815181106109a6576109a661496a565b602090810291909101015290506109ce565b6109cb6109c6858585612144565b612ee5565b90505b9392505050565b8051516060906001036109f1576109eb82612ffd565b92915050565b6109eb826132ac565b919050565b610a07613912565b610a1f60008051602061519983398151915233612e21565b6000610b056040518060e001604052808c6001600160a01b031681526020018b6002806020026040519081016040528092919082600260200280828437600092019190915250505081526040805160208c810282810182019093528c82529283019290918d918d91829185019084908082843760009201919091525050509082525060408051602089810282810182019093528982529283019290918a918a91829185019084908082843760009201919091525050509082525088356020808301919091528901356040820152606001610afe36879003870187614a94565b905261174f565b805190915015610c46578051610b1a9061367d565b6001600160a01b038b1660009081526033602090815260408083208d35845290915281206001600160801b03929092169091555b87811015610c445760008260a001518281518110610b6e57610b6e61496a565b60200260200101511115610c3457888882818110610b8e57610b8e61496a565b9050602002016020810190610ba39190614616565b6001600160a01b0316632ce5183f8c8460a001518481518110610bc857610bc861496a565b60200260200101516040518363ffffffff1660e01b8152600401610c019291906001600160a01b03929092168252602082015260400190565b600060405180830381600087803b158015610c1b57600080fd5b505af1158015610c2f573d6000803e3d6000fd5b505050505b610c3d816149a9565b9050610b4e565b505b608081015115610cb9576080810151604051631e4008d560e31b815261dead600482015260248101919091526001600160a01b038b169063f20046a890604401600060405180830381600087803b158015610ca057600080fd5b505af1158015610cb4573d6000803e3d6000fd5b505050505b805115610d24578051604051631e4008d560e31b81526001600160a01b038c1660048201819052602482019290925263f20046a890604401600060405180830381600087803b158015610d0b57600080fd5b505af1158015610d1f573d6000803e3d6000fd5b505050505b604081015115610e2a576040516303af47f160e31b81526001600160a01b038b811660048301526000917f000000000000000000000000000000000000000000000000000000000000000090911690631d7a3f8890602401602060405180830381865afa158015610d99573d6000803e3d6000fd5b505050506040513d601f19601f82011682018060405250810190610dbd9190614ab0565b6040808401519051631e4008d560e31b81526001600160a01b03808416600483015260248201929092529192508c169063f20046a890604401600060405180830381600087803b158015610e1057600080fd5b505af1158015610e24573d6000803e3d6000fd5b50505050505b896001600160a01b03167f263ce985fe506cb67ef6c206d4cd39eaa07324bc5e3e797ec1626e7b9ceac3058260600151604051610e679190614acd565b60405180910390a29998505050505050505050565b6001600160a01b0383166000908152603460209081526040808320858452909152908190209051636c32cbbf60e11b815260609173__$ba8e5d637ad49eca2b53a11fd00384e3c0$__9163d865977e91610ee3918690600401918252602082015260400190565b600060405180830381865af4158015610f00573d6000803e3d6000fd5b505050506040513d6000823e601f3d908101601f191682016040526109cb9190810190614886565b6000610f4260008051602061519983398151915233612e21565b888714610f62576040516325a6fd7360e11b815260040160405180910390fd5b7f00000000000000000000000000000000000000000000000000000000000000006001600160a01b0316632c8dfb268c6040518060c00160405280886001600160a01b03168152602001876001600160a01b03168152602001886001600160a01b0316815260200160036004811115610fdd57610fdd614633565b81526020018e8e808060200260200160405190810160405280939291908181526020018383602002808284376000920182905250938552505060408051928352602080840182529093019190915250516001600160e01b031960e085901b16815261104c9291906004016146a4565b60006040518083038186803b15801561106457600080fd5b505afa158015611078573d6000803e3d6000fd5b5050505061108461396a565b60405163a99fb77160e01b81526001600160a01b038d169063a99fb771906110b89088908f908f908f908f90600401614aee565b6000604051808303816000875af11580156110d7573d6000803e3d6000fd5b505050506040513d6000823e601f3d908101601f191682016040526110ff9190810190614b32565b81526000805b8b81101561125a57600160ff1b8d8d838181106111245761112461496a565b90506020020135111561116f578c8c828181106111435761114361496a565b905060200201356040516319eefb7b60e31b815260040161116691815260200190565b60405180910390fd5b82518051829081106111835761118361496a565b602002602001015180602001905181019061119e9190614c4f565b6040808501829052015185116111e3578c8c828181106111c0576111c061496a565b9050602002013560405163329f1caf60e11b815260040161116691815260200190565b6001600160a01b038e16600090815260336020908152604080832086820180518301518552908352922054908501525161123e908f908d8d8581811061122b5761122b61496a565b9050602002013586602001518d8d611320565b6112489083614996565b9150611253816149a9565b9050611105565b50604051632ce5183f60e01b81526001600160a01b038781166004830152602482018390528e1690632ce5183f90604401600060405180830381600087803b1580156112a557600080fd5b505af11580156112b9573d6000803e3d6000fd5b50505050856001600160a01b03168d6001600160a01b03167f05e705e1a2e55931ff614cec1bb060ac0956d83c944598c02489e11d8f274c60838f8f8f8f604051611308959493929190614cd2565b60405180910390a39c9b505050505050505050505050565b6001600160a01b03861660009081526034602090815260408083208882015184529091528082208751519151636c32cbbf60e11b815260609283928592839273__$ba8e5d637ad49eca2b53a11fd00384e3c0$__9263d865977e926113919290600401918252602082015260400190565b600060405180830381865af41580156113ae573d6000803e3d6000fd5b505050506040513d6000823e601f3d908101601f191682016040526113d69190810190614886565b6001600160a01b038c1660009081526031602090815260408083208e8201518452909152908190208c51519151636c32cbbf60e11b815292965073__$ba8e5d637ad49eca2b53a11fd00384e3c0$__9263d865977e926114429291600401918252602082015260400190565b600060405180830381865af415801561145f573d6000803e3d6000fd5b505050506040513d6000823e601f3d908101601f191682016040526114879190810190614886565b9250876000036114bb576001600160a01b038b1660009081526033602090815260408083208d820151845290915290205497505b60005b8a51518110156116f6577f00000000000000000000000000000000000000000000000000000000000000006001600160a01b0316639115900c8989848181106115095761150961496a565b905060200201602081019061151e9190614616565b8d518051859081106115325761153261496a565b602002602001015187858151811061154c5761154c61496a565b60209081029190910101516040516001600160e01b031960e086901b1681526001600160a01b03909316600484015260248301919091526044820152606401602060405180830381865afa1580156115a8573d6000803e3d6000fd5b505050506040513d601f19601f820116820180604052508101906115cc9190614a0d565b6115d69084614996565b92507f00000000000000000000000000000000000000000000000000000000000000006001600160a01b0316639115900c8989848181106116195761161961496a565b905060200201602081019061162e9190614616565b8784815181106116405761164061496a565b602002602001015187858151811061165a5761165a61496a565b60209081029190910101516040516001600160e01b031960e086901b1681526001600160a01b03909316600484015260248301919091526044820152606401602060405180830381865afa1580156116b6573d6000803e3d6000fd5b505050506040513d601f19601f820116820180604052508101906116da9190614a0d565b6116e49083614996565b91506116ef816149a9565b90506114be565b508160000361170c576000945050505050611745565b600081611719848b614cec565b6117239190614d19565b9050620f42406117338b83614cec565b61173d9190614d19565b955050505050505b9695505050505050565b611757613912565b6000807f00000000000000000000000000000000000000000000000000000000000000006001600160a01b0316639063a90e856040015186608001516040518363ffffffff1660e01b81526004016117b0929190614d2d565b600060405180830381865afa1580156117cd573d6000803e3d6000fd5b505050506040513d6000823e601f3d908101601f191682016040526117f59190810190614886565b602085810151810151908501526040850151519091506001600160401b0381111561182257611822613a45565b60405190808252806020026020018201604052801561184b578160200160208202803683370190505b5060a084015260005b8460400151518110156118ba5783602001518282815181106118785761187861496a565b602002602001015111156118aa578181815181106118985761189861496a565b60200260200101518460200181815250505b6118b3816149a9565b9050611854565b5060005b8460600151518110156119155784516001600160a01b0316600090815260346020908152604080832082890151518452825280832084845290915290205415159250826119155761190e816149a9565b90506118be565b505061191f6139ac565b60408085015160808601516060870151519251630c9c085960e01b815260009384936001600160a01b037f00000000000000000000000000000000000000000000000000000000000000001693630c9c08599361197f9390600401614d4f565b600060405180830381865afa15801561199c573d6000803e3d6000fd5b505050506040513d6000823e601f3d908101601f191682016040526119c49190810190614d74565b9050606060008760c001516040015161ffff161180156119e8575060008760a00151115b15611a8b577f00000000000000000000000000000000000000000000000000000000000000006001600160a01b031663100e8c6588604001518960a001516040518363ffffffff1660e01b8152600401611a43929190614d2d565b600060405180830381865afa158015611a60573d6000803e3d6000fd5b505050506040513d6000823e601f3d908101601f19168201604052611a889190810190614ea2565b90505b60006040518060400160405280611aa06136ea565b815260200189600001516001600160a01b03166318160ddd6040518163ffffffff1660e01b8152600401602060405180830381865afa158015611ae7573d6000803e3d6000fd5b505050506040513d601f19601f82011682018060405250810190611b0b9190614a0d565b9052905060005b886040015151811015611ea4576000848281518110611b3357611b3361496a565b60200260200101519050878015611b4e575060008160400151115b15611cd157611b5b6139ac565b8a5160208c01515160408d01518051611b989392919087908110611b8157611b8161496a565b602002602001015185600001518f6060015161379d565b80825215611ccf5760608b01516020830151835160405163a2d2657f60e01b81526001600160a01b037f0000000000000000000000000000000000000000000000000000000000000000169363a2d2657f93611bfb939192909190600401614f27565b602060405180830381865afa158015611c18573d6000803e3d6000fd5b505050506040513d601f19601f82011682018060405250810190611c3c9190614a0d565b6020820181905281516040840151611c549190614cec565b611c5e9190614d19565b8a60a001518481518110611c7457611c7461496a565b602002602001018181525050816060015182608001518b60a001518581518110611ca057611ca061496a565b6020026020010151611cb29190614cec565b611cbc9190614d19565b88518990611ccb908390614996565b9052505b505b8060800151600003611ce35750611e94565b600081606001518b604001518481518110611d0057611d0061496a565b60209081029190910101518c516040516370a0823160e01b81526001600160a01b0391821660048201529116906370a0823190602401602060405180830381865afa158015611d53573d6000803e3d6000fd5b505050506040513d601f19601f82011682018060405250810190611d779190614a0d565b8360800151611d869190614cec565b611d909190614d19565b90508088600160200201818151611da79190614996565b90525060c08b01516040015161ffff1615801590611dc6575060008551115b15611e91576000858481518110611ddf57611ddf61496a565b602002602001015164e8d4a51000611df79190614f60565b868581518110611e0957611e0961496a565b60200260200101518460a00151611e209190614f80565b611e2f9064e8d4a51000614fa0565b611e399190614fd0565b855190915061271090611e4c9082614f80565b611e569083614fa0565b611e609190614fd0565b611e6f9064e8d4a51000614f60565b611e798284614fa0565b611e839190614fd0565b611e8d9089614f60565b9750505b50505b611e9d816149a9565b9050611b12565b5064e8d4a5100081602001511015611ef8578451611ec5906103e890614cec565b808852602082015164e8d4a5100003608089018190521115611ee957865160808801525b608087015187510387526120d0565b6020850151156120b75760c088015151600090819061ffff1615611f745760208a810151810151908a0151612710916301e1853e91611f379190614ffe565b60c08d01515160208b0151611f509161ffff1690614cec565b611f5a9190614cec565b611f649190614d19565b611f6e9190614d19565b90508091505b60008a60c001516040015161ffff16118015611f905750600086135b15611fc7576127108a60c001516040015161ffff1687611fb09190614cec565b611fba9190614d19565b611fc49083614996565b91505b811561207a576020870151606590611fe0906064614cec565b611fea9190614d19565b821015612025576020870151612001908390614ffe565b8284602001516120119190614cec565b61201b9190614d19565b60408a015261203b565b6020830151612035906064614cec565b60408a01525b81818a6040015161204c9190614cec565b6120569190614d19565b60608a0180516040908101929092525180820151918b015191909103602091909101525b602080880151885160408c015192860151919290916120999190614996565b6120a39190614cec565b6120ad9190614d19565b8952506120d09050565b60405163af69be0160e01b815260040160405180910390fd5b60008860c001516020015161ffff161180156120ec5750865115155b15612139576127108860c001516020015161ffff1688600001516121109190614cec565b61211a9190614d19565b6060880180519190915251805160408901805190910190525187510387525b505050505050919050565b6060600082516001600160401b0381111561216157612161613a45565b60405190808252806020026020018201604052801561219457816020015b606081526020019060019003908161217f5790505b50905060005b83518110156123915785516001600160401b038111156121bc576121bc613a45565b6040519080825280602002602001820160405280156121e5578160200160208202803683370190505b508282815181106121f8576121f861496a565b602090810291909101015261220d85826138de565b15612381576000805b8751811015612292578781815181106122315761223161496a565b602002602001015186848151811061224b5761224b61496a565b602002602001015182815181106122645761226461496a565b60200260200101516122769190614cec565b6122809083614996565b915061228b816149a9565b9050612216565b50806000036122b457604051632ef650e960e21b815260040160405180910390fd5b60005b875181101561237e5781710b7abc627050305adf14a3d9e400000000008785815181106122e6576122e661496a565b602002602001015183815181106122ff576122ff61496a565b602002602001015161231a868b6138de90919063ffffffff16565b6123249190614cec565b61232e9190614cec565b6123389190614d19565b84848151811061234a5761234a61496a565b602002602001015182815181106123635761236361496a565b6020908102919091010152612377816149a9565b90506122b7565b50505b61238a816149a9565b905061219a565b50949350505050565b83516001146125155760006123b0848484610964565b90506000805b82518110156123f95760008382815181106123d3576123d361496a565b602002602001015111156123e9578091506123f9565b6123f2816149a9565b90506123b6565b5060005b8651811015612511578082146125015760008383815181106124215761242161496a565b602002602001015188838151811061243b5761243b61496a565b602002602001015161244d9190614cec565b905060008483815181106124635761246361496a565b602002602001015189858151811061247d5761247d61496a565b602002602001015161248f9190614cec565b905061271061249f603282614ffe565b6124a99083614cec565b6124b39190614d19565b8210806124e057506127106124c9603282614996565b6124d39083614cec565b6124dd9190614d19565b82115b156124fe57604051631cd362cd60e01b815260040160405180910390fd5b50505b61250a816149a9565b90506123fd565b5050505b50505050565b60606109cb73__$2fc03011347fd683a4aabd6bd80108a73f$__63bd1b6f42867f00000000000000000000000000000000000000000000000000000000000000006040518363ffffffff1660e01b8152600401612579929190615011565b600060405180830381865af4158015612596573d6000803e3d6000fd5b505050506040513d6000823e601f3d908101601f191682016040526125be9190810190614886565b6040516332c24deb60e01b8152859073__$2fc03011347fd683a4aabd6bd80108a73f$__906332c24deb906126199088907f000000000000000000000000000000000000000000000000000000000000000090600401615011565b600060405180830381865af4158015612636573d6000803e3d6000fd5b505050506040513d6000823e601f3d908101601f1916820160405261010891908101906148ba565b61267660008051602061519983398151915233612e21565b60005b84811015612709577f00000000000000000000000000000000000000000000000000000000000000006001600160a01b03168686838181106126bd576126bd61496a565b90506020020160208101906126d29190614616565b6001600160a01b0316146126f9576040516307ee04d160e41b815260040160405180910390fd5b612702816149a9565b9050612679565b50600080836001600160401b0381111561272557612725613a45565b60405190808252806020026020018201604052801561274e578160200160208202803683370190505b50905060005b848110156128e1576001600160a01b038a1660009081526034602090815260408083208c84528252808320848452909152902054825183908390811061279c5761279c61496a565b6020026020010181815250508181815181106127ba576127ba61496a565b6020026020010151836127cd9190614996565b6001600160a01b03808c1660009081526034602090815260408083208e845282528083208684529091528120559093507f00000000000000000000000000000000000000000000000000000000000000001663beabacc88787848181106128365761283661496a565b905060200201602081019061284b9190614616565b8685858151811061285e5761285e61496a565b60209081029190910101516040516001600160e01b031960e086901b1681526001600160a01b0393841660048201529290911660248301526044820152606401600060405180830381600087803b1580156128b857600080fd5b505af11580156128cc573d6000803e3d6000fd5b50505050806128da906149a9565b9050612754565b50816000036129035760405163097f76b560e01b815260040160405180910390fd5b886001600160a01b03167fdaca6c695ba7d08261722884fe84c5781ee154ba9bdad3576bafc55cd54a16bc8260405161293c9190613ccd565b60405180910390a2505050505050505050565b600061296960008051602061519983398151915233612e21565b6000826001600160401b0381111561298357612983613a45565b6040519080825280602002602001820160405280156129ac578160200160208202803683370190505b5090506000805b84811015612a3e576001600160a01b038b1660009081526034602090815260408083208d8452825280832084845290915290205483518490839081106129fb576129fb61496a565b602002602001018181525050828181518110612a1957612a1961496a565b602002602001015182612a2c9190614996565b9150612a37816149a9565b90506129b3565b5080600003612a5257600092505050612e16565b50604051635e8db7a160e11b815260009073__$2fc03011347fd683a4aabd6bd80108a73f$__9063bd1b6f4290612ab190889088907f0000000000000000000000000000000000000000000000000000000000000000906004016147ff565b600060405180830381865af4158015612ace573d6000803e3d6000fd5b505050506040513d6000823e601f3d908101601f19168201604052612af69190810190614886565b6001600160a01b038b1660009081526031602090815260408083208d84529091529081902090516302c5c00b60e21b815291925073__$ba8e5d637ad49eca2b53a11fd00384e3c0$__91630b17002c91612b5491859060040161503b565b60006040518083038186803b158015612b6c57600080fd5b505af4158015612b80573d6000803e3d6000fd5b505050506000612c4d604051806080016040528085815260200184815260200189815260200173__$2fc03011347fd683a4aabd6bd80108a73f$__6332c24deb8d8d7f00000000000000000000000000000000000000000000000000000000000000006040518463ffffffff1660e01b8152600401612c01939291906147ff565b600060405180830381865af4158015612c1e573d6000803e3d6000fd5b505050506040513d6000823e601f3d908101601f19168201604052612c4691908101906148ba565b90526109d5565b905060005b88811015612d7c576000828281518110612c6e57612c6e61496a565b6020026020010151511115612d6c576001600160a01b038c1660009081526032602090815260408083208e84529091528120908b8b84818110612cb357612cb361496a565b9050602002016020810190612cc89190614616565b6001600160a01b03166001600160a01b0316815260200190815260200160002073__$ba8e5d637ad49eca2b53a11fd00384e3c0$__630b17002c9091848481518110612d1657612d1661496a565b60200260200101516040518363ffffffff1660e01b8152600401612d3b92919061503b565b60006040518083038186803b158015612d5357600080fd5b505af4158015612d67573d6000803e3d6000fd5b505050505b612d75816149a9565b9050612c52565b5060405163f384b78560e01b81526001600160a01b037f0000000000000000000000000000000000000000000000000000000000000000169063f384b78590612dcd908c908c908690600401615089565b6020604051808303816000875af1158015612dec573d6000803e3d6000fd5b505050506040513d601f19601f82011682018060405250810190612e109190614a0d565b93505050505b979650505050505050565b604051632474521560e21b8152600481018390526001600160a01b0382811660248301527f000000000000000000000000000000000000000000000000000000000000000016906391d1485490604401602060405180830381865afa158015612e8e573d6000803e3d6000fd5b505050506040513d601f19601f82011682018060405250810190612eb291906150df565b612ee1576040516301d4003760e61b8152600481018390526001600160a01b0382166024820152604401611166565b5050565b6060600082600081518110612efc57612efc61496a565b6020026020010151516001600160401b03811115612f1c57612f1c613a45565b604051908082528060200260200182016040528015612f45578160200160208202803683370190505b50905060005b8351811015612ff65760005b848281518110612f6957612f6961496a565b602002602001015151811015612fe557848281518110612f8b57612f8b61496a565b60200260200101518181518110612fa457612fa461496a565b6020026020010151838281518110612fbe57612fbe61496a565b60200260200101818151612fd29190614996565b905250612fde816149a9565b9050612f57565b50612fef816149a9565b9050612f4b565b5092915050565b60606000808360600151516001600160401b0381111561301f5761301f613a45565b60405190808252806020026020018201604052801561305257816020015b606081526020019060019003908161303d5790505b5090506000805b85606001515181101561309157604086015161307590826138de565b61307f9083614996565b915061308a816149a9565b9050613059565b5060005b8560600151518110156131ad576040805160018082528183019092529060208083019080368337019050508382815181106130d2576130d261496a565b6020026020010181905250816130f58288604001516138de90919063ffffffff16565b875180516000906131085761310861496a565b602002602001015161311a9190614cec565b6131249190614d19565b8382815181106131365761313661496a565b60200260200101516000815181106131505761315061496a565b60200260200101818152505082818151811061316e5761316e61496a565b60200260200101516000815181106131885761318861496a565b60200260200101518461319b9190614996565b93506131a6816149a9565b9050613095565b508285600001516000815181106131c6576131c661496a565b602002602001015111156132a45760005b8560600151518110156132a25760008382815181106131f8576131f861496a565b60200260200101516000815181106132125761321261496a565b60200260200101511115613292578386600001516000815181106132385761323861496a565b602002602001015161324a9190614ffe565b83828151811061325c5761325c61496a565b60200260200101516000815181106132765761327661496a565b6020026020010181815161328a9190614996565b9052506132a2565b61329b816149a9565b90506131d7565b505b509392505050565b606060006132c7836020015184604001518560600151612144565b905060006132d482612ee5565b905060008460000151516001600160401b038111156132f5576132f5613a45565b60405190808252806020026020018201604052801561331e578160200160208202803683370190505b50905060008560600151516001600160401b0381111561334057613340613a45565b60405190808252806020026020018201604052801561337357816020015b606081526020019060019003908161335e5790505b50905060005b86606001515181101561356b578660200151516001600160401b038111156133a3576133a3613a45565b6040519080825280602002602001820160405280156133cc578160200160208202803683370190505b508282815181106133df576133df61496a565b602002602001018190525060005b87602001515181101561355a5785828151811061340c5761340c61496a565b602002602001015181815181106134255761342561496a565b602002602001015160000315613548578481815181106134475761344761496a565b60200260200101518683815181106134615761346161496a565b6020026020010151828151811061347a5761347a61496a565b6020026020010151896000015183815181106134985761349861496a565b60200260200101516134aa9190614cec565b6134b49190614d19565b8383815181106134c6576134c661496a565b602002602001015182815181106134df576134df61496a565b6020026020010181815250508282815181106134fd576134fd61496a565b602002602001015181815181106135165761351661496a565b60200260200101518482815181106135305761353061496a565b602002602001018181516135449190614996565b9052505b80613552816149a9565b9150506133ed565b50613564816149a9565b9050613379565b5060005b8660200151518110156136735760005b8760600151518110156136605760008382815181106135a0576135a061496a565b602002602001015183815181106135b9576135b961496a565b60200260200101511115613650578382815181106135d9576135d961496a565b6020026020010151886000015183815181106135f7576135f761496a565b60200260200101516136099190614ffe565b83828151811061361b5761361b61496a565b602002602001015183815181106136345761363461496a565b602002602001018181516136489190614996565b905250613660565b613659816149a9565b905061357f565b508061366b816149a9565b91505061356f565b5095945050505050565b60006001600160801b038211156136e65760405162461bcd60e51b815260206004820152602760248201527f53616665436173743a2076616c756520646f65736e27742066697420696e20316044820152663238206269747360c81b6064820152608401611166565b5090565b6000807f00000000000000000000000000000000000000000000000000000000000000006001600160a01b031663194a4e7e6040518163ffffffff1660e01b8152600401608060405180830381865afa15801561374b573d6000803e3d6000fd5b505050506040513d601f19601f8201168201806040525081019061376f9190615118565b905080606001516001600160601b031681602001516001600160601b03166137979190614f60565b91505090565b6001600160a01b0385811660009081526032602090815260408083208884528252808320878516845290915280822084519151636c32cbbf60e11b815292937f0000000000000000000000000000000000000000000000000000000000000000169263a2d2657f92869273__$ba8e5d637ad49eca2b53a11fd00384e3c0$__9263d865977e926138399291600401918252602082015260400190565b600060405180830381865af4158015613856573d6000803e3d6000fd5b505050506040513d6000823e601f3d908101601f1916820160405261387e9190810190614886565b866040518463ffffffff1660e01b815260040161389d93929190614f27565b602060405180830381865afa1580156138ba573d6000803e3d6000fd5b505050506040513d601f19601f820116820180604052508101906117459190614a0d565b6000601082106138ed57600080fd5b6138fb600162010000614ffe565b613906836010614cec565b84901c16905092915050565b6040518060c0016040528060008152602001600081526020016000815260200161395660405180606001604052806000815260200160008152602001600081525090565b815260200160008152602001606081525090565b604051806060016040528060608152602001600081526020016139a760405180606001604052806060815260200160008152602001600081525090565b905290565b60405180604001604052806002906020820280368337509192915050565b600060a082840312156139dc57600080fd5b50919050565b600080604083850312156139f557600080fd5b82356001600160401b0380821115613a0c57600080fd5b613a18868387016139ca565b93506020850135915080821115613a2e57600080fd5b50613a3b858286016139ca565b9150509250929050565b634e487b7160e01b600052604160045260246000fd5b604051608081016001600160401b0381118282101715613a7d57613a7d613a45565b60405290565b604051606081016001600160401b0381118282101715613a7d57613a7d613a45565b60405160e081016001600160401b0381118282101715613a7d57613a7d613a45565b60405160c081016001600160401b0381118282101715613a7d57613a7d613a45565b604051601f8201601f191681016001600160401b0381118282101715613b1157613b11613a45565b604052919050565b60006001600160401b03821115613b3257613b32613a45565b5060051b60200190565b600082601f830112613b4d57600080fd5b81356020613b62613b5d83613b19565b613ae9565b82815260059290921b84018101918181019086841115613b8157600080fd5b8286015b84811015613b9c5780358352918301918301613b85565b509695505050505050565b600082601f830112613bb857600080fd5b81356020613bc8613b5d83613b19565b82815260059290921b84018101918181019086841115613be757600080fd5b8286015b84811015613b9c5780356001600160401b03811115613c0a5760008081fd5b613c188986838b0101613b3c565b845250918301918301613beb565b600080600060608486031215613c3b57600080fd5b83356001600160401b0380821115613c5257600080fd5b613c5e87838801613b3c565b9450602086013593506040860135915080821115613c7b57600080fd5b50613c8886828701613ba7565b9150509250925092565b600081518084526020808501945080840160005b83811015613cc257815187529582019590820190600101613ca6565b509495945050505050565b6020815260006109ce6020830184613c92565b600060208284031215613cf257600080fd5b81356001600160401b0380821115613d0957600080fd5b9083019060808286031215613d1d57600080fd5b613d25613a5b565b823582811115613d3457600080fd5b613d4087828601613b3c565b825250602083013582811115613d5557600080fd5b613d6187828601613b3c565b60208301525060408301356040820152606083013582811115613d8357600080fd5b613d8f87828601613ba7565b60608301525095945050505050565b600081518084526020808501808196508360051b8101915082860160005b85811015613de6578284038952613dd4848351613c92565b98850198935090840190600101613dbc565b5091979650505050505050565b6020815260006109ce6020830184613d9e565b6001600160a01b0381168114613e1b57600080fd5b50565b80356109fa81613e06565b80604081018310156109eb57600080fd5b60008083601f840112613e4c57600080fd5b5081356001600160401b03811115613e6357600080fd5b6020830191508360208260051b8501011115613e7e57600080fd5b9250929050565b600080600080600080600080888a03610140811215613ea357600080fd5b8935613eae81613e06565b9850613ebd8b60208c01613e29565b975060608a01356001600160401b0380821115613ed957600080fd5b613ee58d838e01613e3a565b9099509750879150613efa8d60808e01613e29565b965060c08c0135915080821115613f1057600080fd5b50613f1d8c828d01613e3a565b909550935050606060df1982011215613f3557600080fd5b5060e0890190509295985092959890939650565b6020815281516020820152602082015160408201526040820151606082015260006060830151613f9060808401828051825260208082015190830152604090810151910152565b50608083015160e083015260a083015161010080840152613fb5610120840182613c92565b949350505050565b600080600060608486031215613fd257600080fd5b8335613fdd81613e06565b95602085013595506040909401359392505050565b60008060008060008060008060008060e08b8d03121561401157600080fd5b8a3561401c81613e06565b995060208b01356001600160401b038082111561403857600080fd5b6140448e838f01613e3a565b909b50995060408d013591508082111561405d57600080fd5b6140698e838f01613e3a565b909950975060608d013591508082111561408257600080fd5b5061408f8d828e01613e3a565b90965094505060808b01356140a381613e06565b92506140b160a08c01613e1e565b915060c08b013590509295989b9194979a5092959850565b60008060008060008060a087890312156140e257600080fd5b86356140ed81613e06565b955060208701356001600160401b038082111561410957600080fd5b908801906060828b03121561411d57600080fd5b614125613a83565b82358281111561413457600080fd5b6141408c828601613b3c565b82525060208381013590820152604092830135838201529650908801359450606088013593506080880135908082111561417957600080fd5b5061418689828a01613e3a565b979a9699509497509295939492505050565b600082601f8301126141a957600080fd5b604051604081018181106001600160401b03821117156141cb576141cb613a45565b80604052508060408401858111156141e257600080fd5b845b818110156141fc5780358352602092830192016141e4565b509195945050505050565b600082601f83011261421857600080fd5b81356020614228613b5d83613b19565b82815260059290921b8401810191818101908684111561424757600080fd5b8286015b84811015613b9c57803561425e81613e06565b835291830191830161424b565b803561ffff811681146109fa57600080fd5b60006060828403121561428f57600080fd5b614297613a83565b90506142a28261426b565b81526142b06020830161426b565b60208201526142c16040830161426b565b604082015292915050565b6000602082840312156142de57600080fd5b81356001600160401b03808211156142f557600080fd5b90830190610140828603121561430a57600080fd5b614312613aa5565b61431b83613e1e565b815261432a8660208501614198565b602082015260608301358281111561434157600080fd5b61434d87828601614207565b60408301525060808301358281111561436557600080fd5b61437187828601614207565b60608301525060a0830135608082015260c083013560a08201526143988660e0850161427d565b60c082015295945050505050565b600080600080608085870312156143bc57600080fd5b84356001600160401b03808211156143d357600080fd5b6143df88838901613b3c565b955060208701359150808211156143f557600080fd5b61440188838901613b3c565b945060408701359350606087013591508082111561441e57600080fd5b5061442b87828801613ba7565b91505092959194509250565b60008060006060848603121561444c57600080fd5b83356001600160401b038082111561446357600080fd5b61446f87838801614207565b945060208601359350604086013591508082111561448c57600080fd5b50613c8886828701614207565b600080600080600080600060a0888a0312156144b457600080fd5b87356144bf81613e06565b96506020880135955060408801356001600160401b03808211156144e257600080fd5b6144ee8b838c01613e3a565b909750955060608a013591508082111561450757600080fd5b506145148a828b01613e3a565b909450925050608088013561452881613e06565b8091505092959891949750929550565b600080600080600080600060a0888a03121561455357600080fd5b873561455e81613e06565b96506020880135955060408801356001600160401b038082111561458157600080fd5b61458d8b838c01613e3a565b909750955060608a0135945060808a01359150808211156145ad57600080fd5b506145ba8a828b01613e3a565b989b979a50959850939692959293505050565b6000808335601e198436030181126145e457600080fd5b8301803591506001600160401b038211156145fe57600080fd5b6020019150600581901b3603821315613e7e57600080fd5b60006020828403121561462857600080fd5b81356109ce81613e06565b634e487b7160e01b600052602160045260246000fd5b6005811061466757634e487b7160e01b600052602160045260246000fd5b9052565b600081518084526020808501945080840160005b83811015613cc25781516001600160a01b03168752958201959082019060010161467f565b600060018060a01b038085168352604060208401528084511660408401528060208501511660608401528060408501511660808401525060608301516146ed60a0840182614649565b50608083015160c080840152614707610100840182613c92565b905060a0840151603f198483030160e0850152611745828261466b565b60208152600060018060a01b0380845116602084015280602085015116604084015280604085015116606084015250606083015161476d60808401826001600160a01b03169052565b50608083015161478060a0840182614649565b5060a083015160e060c084015261479b61010084018261466b565b905060c0840151601f198483030160e08501526147b88282613c92565b95945050505050565b8183526000602080850194508260005b85811015613cc25781356147e481613e06565b6001600160a01b0316875295820195908201906001016147d1565b6040815260006148136040830185876147c1565b905060018060a01b0383166020830152949350505050565b600082601f83011261483c57600080fd5b8151602061484c613b5d83613b19565b82815260059290921b8401810191818101908684111561486b57600080fd5b8286015b84811015613b9c578051835291830191830161486f565b60006020828403121561489857600080fd5b81516001600160401b038111156148ae57600080fd5b613fb58482850161482b565b600060208083850312156148cd57600080fd5b82516001600160401b03808211156148e457600080fd5b818501915085601f8301126148f857600080fd5b8151614906613b5d82613b19565b81815260059190911b8301840190848101908883111561492557600080fd5b8585015b8381101561495d578051858111156149415760008081fd5b61494f8b89838a010161482b565b845250918601918601614929565b5098975050505050505050565b634e487b7160e01b600052603260045260246000fd5b634e487b7160e01b600052601160045260246000fd5b808201808211156109eb576109eb614980565b6000600182016149bb576149bb614980565b5060010190565b60018060a01b03831681526040602082015260008251606060408401526149ec60a0840182613c92565b90506020840151606084015260408401516080840152809150509392505050565b600060208284031215614a1f57600080fd5b5051919050565b81835260006001600160fb1b03831115614a3f57600080fd5b8260051b80836020870137939093016020019392505050565b858152608060208201526000614a72608083018688614a26565b6001600160a01b03948516604084015292909316606090910152949350505050565b600060608284031215614aa657600080fd5b6109ce838361427d565b600060208284031215614ac257600080fd5b81516109ce81613e06565b815181526020808301519082015260408083015190820152606081016109eb565b6001600160a01b0386168152606060208201819052600090614b139083018688614a26565b8281036040840152614b26818587614a26565b98975050505050505050565b60006020808385031215614b4557600080fd5b82516001600160401b0380821115614b5c57600080fd5b8185019150601f8681840112614b7157600080fd5b8251614b7f613b5d82613b19565b81815260059190911b84018501908581019089831115614b9e57600080fd5b8686015b83811015614c4157805186811115614bba5760008081fd5b8701603f81018c13614bcc5760008081fd5b8881015187811115614be057614be0613a45565b614bf1818801601f19168b01613ae9565b81815260408e81848601011115614c085760008081fd5b60005b83811015614c26578481018201518382018e01528c01614c0b565b505060009181018b0191909152845250918701918701614ba2565b509998505050505050505050565b600060208284031215614c6157600080fd5b81516001600160401b0380821115614c7857600080fd5b9083019060608286031215614c8c57600080fd5b614c94613a83565b825182811115614ca357600080fd5b614caf8782860161482b565b825250602083015160208201526040830151604082015280935050505092915050565b858152606060208201526000614b13606083018688614a26565b80820281158282048414176109eb576109eb614980565b634e487b7160e01b600052601260045260246000fd5b600082614d2857614d28614d03565b500490565b604081526000614d40604083018561466b565b90508260208301529392505050565b606081526000614d62606083018661466b565b60208301949094525060400152919050565b60006020808385031215614d8757600080fd5b82516001600160401b0380821115614d9e57600080fd5b818501915085601f830112614db257600080fd5b8151614dc0613b5d82613b19565b81815260059190911b83018401908481019088831115614ddf57600080fd5b8585015b8381101561495d57805185811115614dfb5760008081fd5b860160c0818c03601f1901811315614e135760008081fd5b614e1b613ac7565b8983015188811115614e2d5760008081fd5b614e3b8e8c8387010161482b565b82525060408084015189811115614e525760008081fd5b614e608f8d8388010161482b565b838d015250606084810151918301919091526080808501519183019190915260a080850151918301919091529190920151908201528352918601918601614de3565b60006020808385031215614eb557600080fd5b82516001600160401b03811115614ecb57600080fd5b8301601f81018513614edc57600080fd5b8051614eea613b5d82613b19565b81815260059190911b82018301908381019087831115614f0957600080fd5b928401925b82841015612e1657835182529284019290840190614f0e565b606081526000614f3a606083018661466b565b8281036020840152614f4c8186613c92565b905082810360408401526117458185613c92565b808201828112600083128015821682158216171561095c5761095c614980565b8181036000831280158383131683831282161715612ff657612ff6614980565b80820260008212600160ff1b84141615614fbc57614fbc614980565b81810583148215176109eb576109eb614980565b600082614fdf57614fdf614d03565b600160ff1b821460001984141615614ff957614ff9614980565b500590565b818103818111156109eb576109eb614980565b604081526000615024604083018561466b565b905060018060a01b03831660208301529392505050565b6000604082018483526020604081850152818551808452606086019150828701935060005b8181101561507c57845183529383019391830191600101615060565b5090979650505050505050565b6040808252810183905260008460608301825b868110156150cc5782356150af81613e06565b6001600160a01b031682526020928301929091019060010161509c565b508381036020850152612e168186613d9e565b6000602082840312156150f157600080fd5b815180151581146109ce57600080fd5b80516001600160601b03811681146109fa57600080fd5b60006080828403121561512a57600080fd5b604051608081018181106001600160401b038211171561514c5761514c613a45565b604052825161515a81613e06565b815261516860208401615101565b6020820152604083015161517b81613e06565b604082015261518c60608401615101565b6060820152939250505056fe72f6db45f6a510a9f71a52fed1cf587666e7205545d52ee38b978222d6abaa56a26469706673582212201c63067d20e5e522a294648f79c1653e8d82aa2599b43dfc4e4ce5567597f1a364736f6c63430008110033",
    "linkReferences": {
      "src/libraries/ArrayMapping.sol": {
        "ArrayMappingUint256": [
          {
            "start": 4546,
            "length": 20
          },
          {
            "start": 5745,
            "length": 20
          },
          {
            "start": 5922,
            "length": 20
          },
          {
            "start": 11836,
            "length": 20
          },
          {
            "start": 12282,
            "length": 20
          },
          {
            "start": 15129,
            "length": 20
          }
        ]
      },
      "src/libraries/SpoolUtils.sol": {
        "SpoolUtils": [
          {
            "start": 2248,
            "length": 20
          },
          {
            "start": 2430,
            "length": 20
          },
          {
            "start": 10290,
            "length": 20
          },
          {
            "start": 10463,
            "length": 20
          },
          {
            "start": 11637,
            "length": 20
          },
          {
            "start": 11960,
            "length": 20
          }
        ]
      }
    }
  },
  "methodIdentifiers": {
    "calculateDepositRatio(uint256[],uint256,uint256[][])": "3883c2f6",
    "calculateFlushFactors(uint256[],uint256,uint256[][])": "92a89fa1",
    "checkDepositRatio(uint256[],uint256[],uint256,uint256[][])": "959aed42",
    "claimSmartVaultTokens(address,uint256[],uint256[],address[],address,address,uint256)": "6521c194",
    "depositAssets((address,uint256[],address,address,bool),(address,address[],address[],uint256,uint256))": "237d311d",
    "distributeDeposit((uint256[],uint256[],uint256,uint256[][]))": "41355157",
    "flushSmartVault(address,uint256,address[],uint256,address[])": "fa6c18d8",
    "getClaimedVaultTokensPreview(address,(uint256[],uint256,uint256),uint256,uint256,address[])": "708215b0",
    "getDepositRatio(address[],uint256,address[])": "ac18ea13",
    "recoverPendingDeposits(address,uint256,address[],address[],address)": "b261ea8b",
    "smartVaultDeposits(address,uint256,uint256)": "5e66a75e",
    "syncDeposits(address,uint256[2],address[],uint256[2],address[],(uint16,uint16,uint16))": "41c4f075",
    "syncDepositsSimulate((address,uint256[2],address[],address[],uint256,uint256,(uint16,uint16,uint16)))": "71b5cb8d"
  },
  "id": 144
}