{
  "abi": [
    {
      "inputs": [
        {
          "internalType": "contract ISpoolAccessControl",
          "name": "accessControl",
          "type": "address"
        }
      ],
      "stateMutability": "nonpayable",
      "type": "constructor"
    },
    {
      "inputs": [
        {
          "internalType": "address",
          "name": "address_",
          "type": "address"
        }
      ],
      "name": "AddressNotContract",
      "type": "error"
    },
    {
      "inputs": [],
      "name": "ConfigurationAddressZero",
      "type": "error"
    },
    {
      "inputs": [],
      "name": "GuardError",
      "type": "error"
    },
    {
      "inputs": [
        {
          "internalType": "uint256",
          "name": "guardNum",
          "type": "uint256"
        }
      ],
      "name": "GuardFailed",
      "type": "error"
    },
    {
      "inputs": [],
      "name": "GuardsAlreadyInitialized",
      "type": "error"
    },
    {
      "inputs": [],
      "name": "IncompleteGuardDefinition",
      "type": "error"
    },
    {
      "inputs": [],
      "name": "InvalidArrayLength",
      "type": "error"
    },
    {
      "inputs": [
        {
          "internalType": "uint256",
          "name": "paramType",
          "type": "uint256"
        }
      ],
      "name": "InvalidGuardParamType",
      "type": "error"
    },
    {
      "inputs": [
        {
          "internalType": "bytes32",
          "name": "role",
          "type": "bytes32"
        },
        {
          "internalType": "address",
          "name": "account",
          "type": "address"
        }
      ],
      "name": "MissingRole",
      "type": "error"
    },
    {
      "inputs": [],
      "name": "TooManyGuards",
      "type": "error"
    },
    {
      "anonymous": false,
      "inputs": [
        {
          "indexed": true,
          "internalType": "address",
          "name": "smartVault",
          "type": "address"
        },
        {
          "components": [
            {
              "internalType": "string",
              "name": "methodSignature",
              "type": "string"
            },
            {
              "internalType": "address",
              "name": "contractAddress",
              "type": "address"
            },
            {
              "internalType": "bytes2",
              "name": "operator",
              "type": "bytes2"
            },
            {
              "internalType": "uint256",
              "name": "expectedValue",
              "type": "uint256"
            },
            {
              "internalType": "enum GuardParamType[]",
              "name": "methodParamTypes",
              "type": "uint8[]"
            },
            {
              "internalType": "bytes[]",
              "name": "methodParamValues",
              "type": "bytes[]"
            }
          ],
          "indexed": false,
          "internalType": "struct GuardDefinition[][]",
          "name": "guards",
          "type": "tuple[][]"
        },
        {
          "indexed": false,
          "internalType": "enum RequestType[]",
          "name": "requestTypes",
          "type": "uint8[]"
        }
      ],
      "name": "GuardsInitialized",
      "type": "event"
    },
    {
      "inputs": [
        {
          "internalType": "address",
          "name": "",
          "type": "address"
        }
      ],
      "name": "guardsInitialized",
      "outputs": [
        {
          "internalType": "bool",
          "name": "",
          "type": "bool"
        }
      ],
      "stateMutability": "view",
      "type": "function"
    },
    {
      "inputs": [
        {
          "internalType": "address",
          "name": "smartVaultId",
          "type": "address"
        },
        {
          "internalType": "enum RequestType",
          "name": "requestType",
          "type": "uint8"
        }
      ],
      "name": "readGuards",
      "outputs": [
        {
          "components": [
            {
              "internalType": "string",
              "name": "methodSignature",
              "type": "string"
            },
            {
              "internalType": "address",
              "name": "contractAddress",
              "type": "address"
            },
            {
              "internalType": "bytes2",
              "name": "operator",
              "type": "bytes2"
            },
            {
              "internalType": "uint256",
              "name": "expectedValue",
              "type": "uint256"
            },
            {
              "internalType": "enum GuardParamType[]",
              "name": "methodParamTypes",
              "type": "uint8[]"
            },
            {
              "internalType": "bytes[]",
              "name": "methodParamValues",
              "type": "bytes[]"
            }
          ],
          "internalType": "struct GuardDefinition[]",
          "name": "guards",
          "type": "tuple[]"
        }
      ],
      "stateMutability": "view",
      "type": "function"
    },
    {
      "inputs": [
        {
          "internalType": "address",
          "name": "smartVaultId",
          "type": "address"
        },
        {
          "components": [
            {
              "internalType": "address",
              "name": "receiver",
              "type": "address"
            },
            {
              "internalType": "address",
              "name": "executor",
              "type": "address"
            },
            {
              "internalType": "address",
              "name": "owner",
              "type": "address"
            },
            {
              "internalType": "enum RequestType",
              "name": "requestType",
              "type": "uint8"
            },
            {
              "internalType": "uint256[]",
              "name": "assets",
              "type": "uint256[]"
            },
            {
              "internalType": "address[]",
              "name": "tokens",
              "type": "address[]"
            }
          ],
          "internalType": "struct RequestContext",
          "name": "context",
          "type": "tuple"
        }
      ],
      "name": "runGuards",
      "outputs": [],
      "stateMutability": "view",
      "type": "function"
    },
    {
      "inputs": [
        {
          "internalType": "address",
          "name": "smartVaultId",
          "type": "address"
        },
        {
          "components": [
            {
              "internalType": "string",
              "name": "methodSignature",
              "type": "string"
            },
            {
              "internalType": "address",
              "name": "contractAddress",
              "type": "address"
            },
            {
              "internalType": "bytes2",
              "name": "operator",
              "type": "bytes2"
            },
            {
              "internalType": "uint256",
              "name": "expectedValue",
              "type": "uint256"
            },
            {
              "internalType": "enum GuardParamType[]",
              "name": "methodParamTypes",
              "type": "uint8[]"
            },
            {
              "internalType": "bytes[]",
              "name": "methodParamValues",
              "type": "bytes[]"
            }
          ],
          "internalType": "struct GuardDefinition[][]",
          "name": "guards",
          "type": "tuple[][]"
        },
        {
          "internalType": "enum RequestType[]",
          "name": "requestTypes",
          "type": "uint8[]"
        }
      ],
      "name": "setGuards",
      "outputs": [],
      "stateMutability": "nonpayable",
      "type": "function"
    }
  ],
  "bytecode": {
    "object": "0x60a060405234801561001057600080fd5b5060405162002071380380620020718339810160408190526100319161006b565b806001600160a01b0381166100595760405163bb0e4c3560e01b815260040160405180910390fd5b6001600160a01b03166080525061009b565b60006020828403121561007d57600080fd5b81516001600160a01b038116811461009457600080fd5b9392505050565b608051611fba620000b76000396000610d710152611fba6000f3fe608060405234801561001057600080fd5b506004361061004c5760003560e01c80632c8dfb26146100515780633993059014610066578063519fe8f614610079578063eaecd3c8146100a2575b600080fd5b61006461005f3660046110f7565b6100d5565b005b610064610074366004611198565b610288565b61008c610087366004611229565b6103b7565b6040516100999190611334565b60405180910390f35b6100c56100b0366004611436565b60316020526000908152604090205460ff1681565b6040519015158152602001610099565b6001600160a01b0382166000908152603260205260408120816100fe6080850160608601611453565b600481111561010f5761010f6112ae565b6004811115610120576101206112ae565b81526020810191909152604001600020546001600160a01b031603610143575050565b600061015e836101596080850160608601611453565b6103cc565b905060005b81518110156102825760008282815181106101805761018061146e565b602002602001015190506101aa81602001516001600160a01b03166001600160a01b03163b151590565b6101dd57602081015160405163247e970160e01b81526001600160a01b0390911660048201526024015b60405180910390fd5b60006101f286836101ed886115e4565b610525565b905060008083602001516001600160a01b0316836040516102139190611694565b600060405180830381855afa9150503d806000811461024e576040519150601f19603f3d011682016040523d82523d6000602084013e610253565b606091505b509150915061026d82828660400151876060015189610bec565b505050508061027b906116c6565b9050610163565b50505050565b7fadcdbe1f109205bda263b8a003b032ba3d5feba6ed7a93446d414c5591a92710336102b48282610d4b565b6102bd87610e0f565b8483146102dd57604051634ec4810560e11b815260040160405180910390fd5b60005b8381101561034c5761033c888686848181106102fe576102fe61146e565b90506020020160208101906103139190611453565b8989858181106103255761032561146e565b905060200281019061033791906116df565b610e4c565b610345816116c6565b90506102e0565b506001600160a01b03871660008181526031602052604090819020805460ff19166001179055517fb9f47a76b7534856ef0c4c98da9b5c95949f67ee9394a455848de9e081c42ee4906103a69089908990899089906119a6565b60405180910390a250505050505050565b60606103c383836103cc565b90505b92915050565b6001600160a01b038216600090815260326020526040812060609190818460048111156103fb576103fb6112ae565b600481111561040c5761040c6112ae565b81526020810191909152604001600020546001600160a01b0316036104a85760408051600080825260208201909252906104a0565b61048d6040518060c001604052806060815260200160006001600160a01b0316815260200160006001600160f01b03191681526020016000815260200160608152602001606081525090565b8152602001906001900390816104415790505b5090506103c6565b6001600160a01b038316600090815260326020526040812061050790828560048111156104d7576104d76112ae565b60048111156104e8576104e86112ae565b81526020810191909152604001600020546001600160a01b0316610fe9565b90508080602001905181019061051d9190611bd7565b949350505050565b60606000836000015160405160200161053e9190611694565b60408051601f1981840301815282825280516020918201206080880151516000855291840183529350919061057890829085908201611d38565b60408051601f198184030181529190529050600080610598846020611d67565b905060005b84811015610932576000896080015182815181106105bd576105bd61146e565b602002602001015190506008808111156105d9576105d96112ae565b8160088111156105eb576105eb6112ae565b0361068057848360405160200161060491815260200190565b60408051601f19818403018152908290526106229291602001611d7e565b60405160208183030381529060405294508960a001518461ffff168151811061064d5761064d61146e565b60200260200101515160206106629190611dad565b61066c9084611dad565b92508361067881611dc0565b945050610921565b6007816008811115610694576106946112ae565b036106e957848a60a001518561ffff16815181106106b4576106b461146e565b60200260200101516040516020016106cd929190611d7e565b6040516020818303038152906040529450838061067890611dc0565b60008160088111156106fd576106fd6112ae565b0361074d57604080516001600160a01b038d1660208201528691015b60408051601f19818403018152908290526107379291602001611d7e565b6040516020818303038152906040529450610921565b6002816008811115610761576107616112ae565b03610784578851604080516001600160a01b039092166020830152869101610719565b6001816008811115610798576107986112ae565b036107c25784896020015160405160200161071991906001600160a01b0391909116815260200190565b60038160088111156107d6576107d66112ae565b036107fb576040808a015181516001600160a01b039091166020820152869101610719565b600481600881111561080f5761080f6112ae565b0361088557848360405160200161082891815260200190565b60408051601f19818403018152908290526108469291602001611d7e565b604051602081830303815290604052945088608001515160206108699190611d67565b610874906020611dad565b61087e9084611dad565b9250610921565b6005816008811115610899576108996112ae565b036108f35784836040516020016108b291815260200190565b60408051601f19818403018152908290526108d09291602001611d7e565b60405160208183030381529060405294508860a001515160206108699190611d67565b806008811115610905576109056112ae565b604051637d59a7a960e11b81526004016101d491815260200190565b5061092b816116c6565b905061059d565b506000915060005b84811015610bdc5760008960800151828151811061095a5761095a61146e565b60200260200101519050600880811115610976576109766112ae565b816008811115610988576109886112ae565b03610a56578460208b60a001518661ffff16815181106109aa576109aa61146e565b6020026020010151516109bd9190611de1565b6040516020016109cf91815260200190565b60408051601f19818403018152908290526109ed9291602001611d7e565b6040516020818303038152906040529450848a60a001518561ffff1681518110610a1957610a1961146e565b6020026020010151604051602001610a32929190611d7e565b60405160208183030381529060405294508380610a4e90611dc0565b945050610bcb565b6007816008811115610a6a57610a6a6112ae565b03610a795783610a4e81611dc0565b6004816008811115610a8d57610a8d6112ae565b03610b245784896080015151604051602001610aab91815260200190565b60408051601f1981840301815290829052610ac99291602001611d7e565b6040516020818303038152906040529450848960800151604051602001610af09190611e03565b60408051601f1981840301815290829052610b0e9291602001611d7e565b6040516020818303038152906040529450610bcb565b6005816008811115610b3857610b386112ae565b03610bcb57848960a0015151604051602001610b5691815260200190565b60408051601f1981840301815290829052610b749291602001611d7e565b6040516020818303038152906040529450848960a00151604051602001610b9b9190611e39565b60408051601f1981840301815290829052610bb99291602001611d7e565b60405160208183030381529060405294505b50610bd5816116c6565b905061093a565b50919450505050505b9392505050565b84610c0a5760405163b6a383fd60e01b815260040160405180910390fd5b600161c2c360f01b6001600160f01b0319851601610c3f578285806020019051810190610c379190611e6c565b149050610d22565b61c3c360f01b6001600160f01b0319851601610c73578285806020019051810190610c6a9190611e6c565b11159050610d22565b61c1c360f01b6001600160f01b0319851601610ca7578285806020019051810190610c9e9190611e6c565b10159050610d22565b603160fa1b6001600160f01b0319851601610cd9578285806020019051810190610cd19190611e6c565b109050610d22565b606160f91b6001600160f01b0319851601610d0b578285806020019051810190610d039190611e6c565b119050610d22565b84806020019051810190610d1f9190611e85565b90505b80610d435760405163d246c8d760e01b8152600481018390526024016101d4565b505050505050565b604051632474521560e21b8152600481018390526001600160a01b0382811660248301527f000000000000000000000000000000000000000000000000000000000000000016906391d1485490604401602060405180830381865afa158015610db8573d6000803e3d6000fd5b505050506040513d601f19601f82011682018060405250810190610ddc9190611e85565b610e0b576040516301d4003760e61b8152600481018390526001600160a01b03821660248201526044016101d4565b5050565b6001600160a01b03811660009081526031602052604090205460ff1615610e4957604051636785bea760e11b815260040160405180910390fd5b50565b6000819003610e6e5760405163f63ee30560e01b815260040160405180910390fd5b600a811115610e905760405163cd084cff60e01b815260040160405180910390fd5b60005b81811015610f42576000838383818110610eaf57610eaf61146e565b9050602002810190610ec19190611ea7565b610ed2906040810190602001611436565b6001600160a01b03161480610f145750828282818110610ef457610ef461146e565b9050602002810190610f069190611ea7565b610f109080611ebd565b1590505b15610f325760405163f63ee30560e01b815260040160405180910390fd5b610f3b816116c6565b9050610e93565b506000610f6f8383604051602001610f5b929190611f03565b60405160208183030381529060405261100a565b6001600160a01b0386166000908152603260205260408120919250829190866004811115610f9f57610f9f6112ae565b6004811115610fb057610fb06112ae565b815260200190815260200160002060006101000a8154816001600160a01b0302191690836001600160a01b031602179055505050505050565b60606103c6826001611005816001600160a01b0384163b611f17565b6110af565b6000808260405160200161101e9190611f2a565b60405160208183030381529060405290506000816040516020016110429190611f50565b60405160208183030381529060405290508051602082016000f092506001600160a01b0383166110a85760405162461bcd60e51b81526020600482015260116024820152701111541313d65351539517d19052531151607a1b60448201526064016101d4565b5050919050565b60408051603f8301601f19168101909152818152818360208301863c9392505050565b6001600160a01b0381168114610e4957600080fd5b80356110f2816110d2565b919050565b6000806040838503121561110a57600080fd5b8235611115816110d2565b915060208301356001600160401b0381111561113057600080fd5b830160c0818603121561114257600080fd5b809150509250929050565b60008083601f84011261115f57600080fd5b5081356001600160401b0381111561117657600080fd5b6020830191508360208260051b850101111561119157600080fd5b9250929050565b6000806000806000606086880312156111b057600080fd5b85356111bb816110d2565b945060208601356001600160401b03808211156111d757600080fd5b6111e389838a0161114d565b909650945060408801359150808211156111fc57600080fd5b506112098882890161114d565b969995985093965092949392505050565b8035600581106110f257600080fd5b6000806040838503121561123c57600080fd5b8235611247816110d2565b91506112556020840161121a565b90509250929050565b60005b83811015611279578181015183820152602001611261565b50506000910152565b6000815180845261129a81602086016020860161125e565b601f01601f19169290920160200192915050565b634e487b7160e01b600052602160045260246000fd5b6000600982106112d6576112d66112ae565b50815260200190565b600081518084526020808501808196508360051b8101915082860160005b85811015611327578284038952611315848351611282565b988501989350908401906001016112fd565b5091979650505050505050565b60006020808301818452808551808352604092508286019150828160051b8701018488016000805b8481101561142757603f198a8503018652825160c0815181875261138282880182611282565b838c01516001600160a01b0316888d01528a8401516001600160f01b0319168b89015260608085015190890152608080850151898303918a01919091528051808352908d019350908c01915085905b808210156113f6576113e48385516112c4565b92508c840193506001820191506113d1565b505060a0928301518782038885015292915061141281846112df565b988b019896505050928801925060010161135c565b50919998505050505050505050565b60006020828403121561144857600080fd5b8135610be5816110d2565b60006020828403121561146557600080fd5b6103c38261121a565b634e487b7160e01b600052603260045260246000fd5b634e487b7160e01b600052604160045260246000fd5b60405160c081016001600160401b03811182821017156114bc576114bc611484565b60405290565b604051601f8201601f191681016001600160401b03811182821017156114ea576114ea611484565b604052919050565b60006001600160401b0382111561150b5761150b611484565b5060051b60200190565b600082601f83011261152657600080fd5b8135602061153b611536836114f2565b6114c2565b82815260059290921b8401810191818101908684111561155a57600080fd5b8286015b84811015611575578035835291830191830161155e565b509695505050505050565b600082601f83011261159157600080fd5b813560206115a1611536836114f2565b82815260059290921b840181019181810190868411156115c057600080fd5b8286015b848110156115755780356115d7816110d2565b83529183019183016115c4565b600060c082360312156115f657600080fd5b6115fe61149a565b611607836110e7565b8152611615602084016110e7565b6020820152611626604084016110e7565b60408201526116376060840161121a565b606082015260808301356001600160401b038082111561165657600080fd5b61166236838701611515565b608084015260a085013591508082111561167b57600080fd5b5061168836828601611580565b60a08301525092915050565b600082516116a681846020870161125e565b9190910192915050565b634e487b7160e01b600052601160045260246000fd5b6000600182016116d8576116d86116b0565b5060010190565b6000808335601e198436030181126116f657600080fd5b8301803591506001600160401b0382111561171057600080fd5b6020019150600581901b360382131561119157600080fd5b6000808335601e1984360301811261173f57600080fd5b83016020810192503590506001600160401b0381111561175e57600080fd5b80360382131561119157600080fd5b81835281816020850137506000828201602090810191909152601f909101601f19169091010190565b6001600160f01b031981168114610e4957600080fd5b6000808335601e198436030181126117c357600080fd5b83016020810192503590506001600160401b038111156117e257600080fd5b8060051b360382131561119157600080fd5b60098110610e4957600080fd5b8183526000602080850194508260005b8581101561183d578135611824816117f4565b61182e88826112c4565b97505090820190600101611811565b509495945050505050565b81835260006020808501808196508560051b810191508460005b878110156113275782840389526118798288611728565b61188486828461176d565b9a87019a9550505090840190600101611862565b6000823560be198336030181126118ae57600080fd5b90910192915050565b81835260006020808501808196508560051b810191508460005b878110156113275782840389526118e88288611898565b60c06118f48283611728565b828852611904838901828461176d565b9250505086820135611915816110d2565b6001600160a01b03168688015260408281013561193181611796565b6001600160f01b03191690870152606082810135908701526080611957818401846117ac565b888403838a0152611969848284611801565b935050505060a061197c818401846117ac565b935087830382890152611990838583611848565b9c89019c975050509286019250506001016118d1565b604080825281018490526000600560608084019087831b85010188845b89811015611a0157868303605f190184526119de828c6117ac565b6119e98582846118b7565b602096870196909550939093019250506001016119c3565b505084810360208681019190915286825291508690820160005b87811015611a4d57611a2c8361121a565b858110611a3b57611a3b6112ae565b82529183019190830190600101611a1b565b509998505050505050505050565b60006001600160401b03831115611a7457611a74611484565b611a87601f8401601f19166020016114c2565b9050828152838383011115611a9b57600080fd5b610be583602083018461125e565b600082601f830112611aba57600080fd5b6103c383835160208501611a5b565b80516110f2816110d2565b80516110f281611796565b600082601f830112611af057600080fd5b81516020611b00611536836114f2565b82815260059290921b84018101918181019086841115611b1f57600080fd5b8286015b84811015611575578051611b36816117f4565b8352918301918301611b23565b600082601f830112611b5457600080fd5b81516020611b64611536836114f2565b82815260059290921b84018101918181019086841115611b8357600080fd5b8286015b848110156115755780516001600160401b03811115611ba65760008081fd5b8701603f81018913611bb85760008081fd5b611bc9898683015160408401611a5b565b845250918301918301611b87565b60006020808385031215611bea57600080fd5b82516001600160401b0380821115611c0157600080fd5b818501915085601f830112611c1557600080fd5b8151611c23611536826114f2565b81815260059190911b83018401908481019088831115611c4257600080fd5b8585015b83811015611d2b57805185811115611c5d57600080fd5b860160c0818c03601f19011215611c745760008081fd5b611c7c61149a565b8882015187811115611c8e5760008081fd5b611c9c8d8b83860101611aa9565b8252506040611cac818401611ac9565b8a8301526060611cbd818501611ad4565b828401526080915081840151818401525060a08084015189811115611ce25760008081fd5b611cf08f8d83880101611adf565b838501525060c0840151915088821115611d0a5760008081fd5b611d188e8c84870101611b43565b9083015250845250918601918601611c46565b5098975050505050505050565b60008351611d4a81846020880161125e565b6001600160e01b0319939093169190920190815260040192915050565b80820281158282048414176103c6576103c66116b0565b60008351611d9081846020880161125e565b835190830190611da481836020880161125e565b01949350505050565b808201808211156103c6576103c66116b0565b600061ffff808316818103611dd757611dd76116b0565b6001019392505050565b600082611dfe57634e487b7160e01b600052601260045260246000fd5b500490565b815160009082906020808601845b83811015611e2d57815185529382019390820190600101611e11565b50929695505050505050565b815160009082906020808601845b83811015611e2d5781516001600160a01b031685529382019390820190600101611e47565b600060208284031215611e7e57600080fd5b5051919050565b600060208284031215611e9757600080fd5b81518015158114610be557600080fd5b6000823560be198336030181126116a657600080fd5b6000808335601e19843603018112611ed457600080fd5b8301803591506001600160401b03821115611eee57600080fd5b60200191503681900382131561119157600080fd5b60208152600061051d6020830184866118b7565b818103818111156103c6576103c66116b0565b6000815260008251611f4381600185016020870161125e565b9190910160010192915050565b6a600b5981380380925939f360a81b81528151600090611f7781600b85016020870161125e565b91909101600b019291505056fea26469706673582212209318ed67c95bb5163205ccc76c308483ab860def4a93d451676481f733d20b9c64736f6c63430008110033",
    "linkReferences": {}
  },
  "methodIdentifiers": {
    "guardsInitialized(address)": "eaecd3c8",
    "readGuards(address,uint8)": "519fe8f6",
    "runGuards(address,(address,address,address,uint8,uint256[],address[]))": "2c8dfb26",
    "setGuards(address,(string,address,bytes2,uint256,uint8[],bytes[])[][],uint8[])": "39930590"
  },
  "id": 145
}