{
  "abi": [
    {
      "inputs": [
        {
          "internalType": "contract ISpoolAccessControl",
          "name": "accessControl",
          "type": "address"
        }
      ],
      "stateMutability": "nonpayable",
      "type": "constructor"
    },
    {
      "inputs": [
        {
          "internalType": "address",
          "name": "address_",
          "type": "address"
        }
      ],
      "name": "AddressNotContract",
      "type": "error"
    },
    {
      "inputs": [],
      "name": "ConfigurationAddressZero",
      "type": "error"
    },
    {
      "inputs": [],
      "name": "GuardError",
      "type": "error"
    },
    {
      "inputs": [
        {
          "internalType": "uint256",
          "name": "guardNum",
          "type": "uint256"
        }
      ],
      "name": "GuardFailed",
      "type": "error"
    },
    {
      "inputs": [],
      "name": "GuardsAlreadyInitialized",
      "type": "error"
    },
    {
      "inputs": [],
      "name": "IncompleteGuardDefinition",
      "type": "error"
    },
    {
      "inputs": [
        {
          "internalType": "uint256",
          "name": "paramType",
          "type": "uint256"
        }
      ],
      "name": "InvalidGuardParamType",
      "type": "error"
    },
    {
      "inputs": [
        {
          "internalType": "bytes32",
          "name": "role",
          "type": "bytes32"
        },
        {
          "internalType": "address",
          "name": "account",
          "type": "address"
        }
      ],
      "name": "MissingRole",
      "type": "error"
    },
    {
      "inputs": [],
      "name": "TooManyGuards",
      "type": "error"
    },
    {
      "anonymous": false,
      "inputs": [
        {
          "indexed": true,
          "internalType": "address",
          "name": "smartVault",
          "type": "address"
        },
        {
          "components": [
            {
              "internalType": "address",
              "name": "contractAddress",
              "type": "address"
            },
            {
              "internalType": "string",
              "name": "methodSignature",
              "type": "string"
            },
            {
              "internalType": "uint256",
              "name": "expectedValue",
              "type": "uint256"
            },
            {
              "internalType": "enum GuardParamType[]",
              "name": "methodParamTypes",
              "type": "uint8[]"
            },
            {
              "internalType": "bytes[]",
              "name": "methodParamValues",
              "type": "bytes[]"
            },
            {
              "internalType": "bytes2",
              "name": "operator",
              "type": "bytes2"
            }
          ],
          "indexed": false,
          "internalType": "struct GuardDefinition[][]",
          "name": "guards",
          "type": "tuple[][]"
        },
        {
          "indexed": false,
          "internalType": "enum RequestType[]",
          "name": "requestTypes",
          "type": "uint8[]"
        }
      ],
      "name": "GuardsInitialized",
      "type": "event"
    },
    {
      "inputs": [
        {
          "internalType": "address",
          "name": "",
          "type": "address"
        }
      ],
      "name": "guardsInitialized",
      "outputs": [
        {
          "internalType": "bool",
          "name": "",
          "type": "bool"
        }
      ],
      "stateMutability": "view",
      "type": "function"
    },
    {
      "inputs": [
        {
          "internalType": "address",
          "name": "smartVaultId",
          "type": "address"
        },
        {
          "internalType": "enum RequestType",
          "name": "requestType",
          "type": "uint8"
        }
      ],
      "name": "readGuards",
      "outputs": [
        {
          "components": [
            {
              "internalType": "address",
              "name": "contractAddress",
              "type": "address"
            },
            {
              "internalType": "string",
              "name": "methodSignature",
              "type": "string"
            },
            {
              "internalType": "uint256",
              "name": "expectedValue",
              "type": "uint256"
            },
            {
              "internalType": "enum GuardParamType[]",
              "name": "methodParamTypes",
              "type": "uint8[]"
            },
            {
              "internalType": "bytes[]",
              "name": "methodParamValues",
              "type": "bytes[]"
            },
            {
              "internalType": "bytes2",
              "name": "operator",
              "type": "bytes2"
            }
          ],
          "internalType": "struct GuardDefinition[]",
          "name": "guards",
          "type": "tuple[]"
        }
      ],
      "stateMutability": "view",
      "type": "function"
    },
    {
      "inputs": [
        {
          "internalType": "address",
          "name": "smartVaultId",
          "type": "address"
        },
        {
          "components": [
            {
              "internalType": "address",
              "name": "receiver",
              "type": "address"
            },
            {
              "internalType": "address",
              "name": "executor",
              "type": "address"
            },
            {
              "internalType": "address",
              "name": "owner",
              "type": "address"
            },
            {
              "internalType": "enum RequestType",
              "name": "requestType",
              "type": "uint8"
            },
            {
              "internalType": "uint256[]",
              "name": "assets",
              "type": "uint256[]"
            },
            {
              "internalType": "address[]",
              "name": "tokens",
              "type": "address[]"
            }
          ],
          "internalType": "struct RequestContext",
          "name": "context",
          "type": "tuple"
        }
      ],
      "name": "runGuards",
      "outputs": [],
      "stateMutability": "view",
      "type": "function"
    },
    {
      "inputs": [
        {
          "internalType": "address",
          "name": "smartVaultId",
          "type": "address"
        },
        {
          "components": [
            {
              "internalType": "address",
              "name": "contractAddress",
              "type": "address"
            },
            {
              "internalType": "string",
              "name": "methodSignature",
              "type": "string"
            },
            {
              "internalType": "uint256",
              "name": "expectedValue",
              "type": "uint256"
            },
            {
              "internalType": "enum GuardParamType[]",
              "name": "methodParamTypes",
              "type": "uint8[]"
            },
            {
              "internalType": "bytes[]",
              "name": "methodParamValues",
              "type": "bytes[]"
            },
            {
              "internalType": "bytes2",
              "name": "operator",
              "type": "bytes2"
            }
          ],
          "internalType": "struct GuardDefinition[][]",
          "name": "guards",
          "type": "tuple[][]"
        },
        {
          "internalType": "enum RequestType[]",
          "name": "requestTypes",
          "type": "uint8[]"
        }
      ],
      "name": "setGuards",
      "outputs": [],
      "stateMutability": "nonpayable",
      "type": "function"
    }
  ],
  "bytecode": {
    "object": "0x60a060405234801561001057600080fd5b5060405162002059380380620020598339810160408190526100319161006b565b806001600160a01b0381166100595760405163bb0e4c3560e01b815260040160405180910390fd5b6001600160a01b03166080525061009b565b60006020828403121561007d57600080fd5b81516001600160a01b038116811461009457600080fd5b9392505050565b608051611fa2620000b760003960006103cf0152611fa26000f3fe608060405234801561001057600080fd5b506004361061004c5760003560e01c8063184cff83146100515780632c8dfb2614610066578063519fe8f614610079578063eaecd3c8146100a2575b600080fd5b61006461005f36600461111b565b6100d5565b005b61006461007436600461119d565b6101e4565b61008c610087366004611202565b610394565b604051610099919061130d565b60405180910390f35b6100c56100b036600461141c565b60316020526000908152604090205460ff1681565b6040519015158152602001610099565b7fb04978a413dc95581e5605aac8e1377bf9e219a1adef2930e03ea31e127ae3c33361010182826103a9565b61010a8761046d565b60005b83811015610179576101698886868481811061012b5761012b611439565b9050602002016020810190610140919061144f565b89898581811061015257610152611439565b9050602002810190610164919061146a565b6104aa565b610172816114c9565b905061010d565b506001600160a01b03871660008181526031602052604090819020805460ff19166001179055517f07a734cce31b1b6c8a12ebb8ec56ac969dba89ac301b52a8b4109a6d56787c4a906101d3908990899089908990611763565b60405180910390a250505050505050565b6001600160a01b03821660009081526032602052604081208161020d608085016060860161144f565b600481111561021e5761021e611287565b600481111561022f5761022f611287565b81526020810191909152604001600020546001600160a01b031603610252575050565b600061026d83610268608085016060860161144f565b610648565b905060005b815181101561038e57600082828151811061028f5761028f611439565b602002602001015190506102b981600001516001600160a01b03166001600160a01b03163b151590565b6102e957805160405163247e970160e01b81526001600160a01b0390911660048201526024015b60405180910390fd5b60006102fe86836102f988611978565b6107a1565b905060008083600001516001600160a01b03168360405161031f9190611a28565b600060405180830381855afa9150503d806000811461035a576040519150601f19603f3d011682016040523d82523d6000602084013e61035f565b606091505b509150915061037982828660a00151876040015189610e68565b5050505080610387906114c9565b9050610272565b50505050565b60606103a08383610648565b90505b92915050565b604051632474521560e21b8152600481018390526001600160a01b0382811660248301527f000000000000000000000000000000000000000000000000000000000000000016906391d1485490604401602060405180830381865afa158015610416573d6000803e3d6000fd5b505050506040513d601f19601f8201168201806040525081019061043a9190611a44565b610469576040516301d4003760e61b8152600481018390526001600160a01b03821660248201526044016102e0565b5050565b6001600160a01b03811660009081526031602052604090205460ff16156104a757604051636785bea760e11b815260040160405180910390fd5b50565b60008190036104cc5760405163f63ee30560e01b815260040160405180910390fd5b600a8111156104ee5760405163cd084cff60e01b815260040160405180910390fd5b60005b818110156105a157600083838381811061050d5761050d611439565b905060200281019061051f9190611a66565b61052d90602081019061141c565b6001600160a01b03161480610573575082828281811061054f5761054f611439565b90506020028101906105619190611a66565b61056f906020810190611a7c565b1590505b156105915760405163f63ee30560e01b815260040160405180910390fd5b61059a816114c9565b90506104f1565b5060006105ce83836040516020016105ba929190611ac2565b604051602081830303815290604052610fc7565b6001600160a01b03861660009081526032602052604081209192508291908660048111156105fe576105fe611287565b600481111561060f5761060f611287565b815260200190815260200160002060006101000a8154816001600160a01b0302191690836001600160a01b031602179055505050505050565b6001600160a01b0382166000908152603260205260408120606091908184600481111561067757610677611287565b600481111561068857610688611287565b81526020810191909152604001600020546001600160a01b03160361072457604080516000808252602082019092529061071c565b6107096040518060c0016040528060006001600160a01b031681526020016060815260200160008152602001606081526020016060815260200160006001600160f01b03191681525090565b8152602001906001900390816106bd5790505b5090506103a3565b6001600160a01b0383166000908152603260205260408120610783908285600481111561075357610753611287565b600481111561076457610764611287565b81526020810191909152604001600020546001600160a01b031661106c565b9050808060200190518101906107999190611c52565b949350505050565b6060600083602001516040516020016107ba9190611a28565b60408051601f198184030181528282528051602091820120606088015151600085529184018352935091906107f490829085908201611db2565b60408051601f198184030181529190529050600080610814846020611de1565b905060005b84811015610bae5760008960600151828151811061083957610839611439565b6020026020010151905060088081111561085557610855611287565b81600881111561086757610867611287565b036108fc57848360405160200161088091815260200190565b60408051601f198184030181529082905261089e9291602001611df8565b604051602081830303815290604052945089608001518461ffff16815181106108c9576108c9611439565b60200260200101515160206108de9190611e27565b6108e89084611e27565b9250836108f481611e3a565b945050610b9d565b600781600881111561091057610910611287565b0361096557848a608001518561ffff168151811061093057610930611439565b6020026020010151604051602001610949929190611df8565b604051602081830303815290604052945083806108f490611e3a565b600081600881111561097957610979611287565b036109c957604080516001600160a01b038d1660208201528691015b60408051601f19818403018152908290526109b39291602001611df8565b6040516020818303038152906040529450610b9d565b60028160088111156109dd576109dd611287565b03610a00578851604080516001600160a01b039092166020830152869101610995565b6001816008811115610a1457610a14611287565b03610a3e5784896020015160405160200161099591906001600160a01b0391909116815260200190565b6003816008811115610a5257610a52611287565b03610a77576040808a015181516001600160a01b039091166020820152869101610995565b6004816008811115610a8b57610a8b611287565b03610b01578483604051602001610aa491815260200190565b60408051601f1981840301815290829052610ac29291602001611df8565b60405160208183030381529060405294508860800151516020610ae59190611de1565b610af0906020611e27565b610afa9084611e27565b9250610b9d565b6005816008811115610b1557610b15611287565b03610b6f578483604051602001610b2e91815260200190565b60408051601f1981840301815290829052610b4c9291602001611df8565b60405160208183030381529060405294508860a00151516020610ae59190611de1565b806008811115610b8157610b81611287565b604051637d59a7a960e11b81526004016102e091815260200190565b50610ba7816114c9565b9050610819565b506000915060005b84811015610e5857600089606001518281518110610bd657610bd6611439565b60200260200101519050600880811115610bf257610bf2611287565b816008811115610c0457610c04611287565b03610cd2578460208b608001518661ffff1681518110610c2657610c26611439565b602002602001015151610c399190611e5b565b604051602001610c4b91815260200190565b60408051601f1981840301815290829052610c699291602001611df8565b6040516020818303038152906040529450848a608001518561ffff1681518110610c9557610c95611439565b6020026020010151604051602001610cae929190611df8565b60405160208183030381529060405294508380610cca90611e3a565b945050610e47565b6007816008811115610ce657610ce6611287565b03610cf55783610cca81611e3a565b6004816008811115610d0957610d09611287565b03610da05784896080015151604051602001610d2791815260200190565b60408051601f1981840301815290829052610d459291602001611df8565b6040516020818303038152906040529450848960800151604051602001610d6c9190611e7d565b60408051601f1981840301815290829052610d8a9291602001611df8565b6040516020818303038152906040529450610e47565b6005816008811115610db457610db4611287565b03610e4757848960a0015151604051602001610dd291815260200190565b60408051601f1981840301815290829052610df09291602001611df8565b6040516020818303038152906040529450848960a00151604051602001610e179190611eb3565b60408051601f1981840301815290829052610e359291602001611df8565b60405160208183030381529060405294505b50610e51816114c9565b9050610bb6565b50919450505050505b9392505050565b84610e865760405163b6a383fd60e01b815260040160405180910390fd5b600161c2c360f01b6001600160f01b0319851601610ebb578285806020019051810190610eb39190611ee6565b149050610f9e565b61c3c360f01b6001600160f01b0319851601610eef578285806020019051810190610ee69190611ee6565b11159050610f9e565b61c1c360f01b6001600160f01b0319851601610f23578285806020019051810190610f1a9190611ee6565b10159050610f9e565b603160fa1b6001600160f01b0319851601610f55578285806020019051810190610f4d9190611ee6565b109050610f9e565b606160f91b6001600160f01b0319851601610f87578285806020019051810190610f7f9190611ee6565b119050610f9e565b84806020019051810190610f9b9190611a44565b90505b80610fbf5760405163d246c8d760e01b8152600481018390526024016102e0565b505050505050565b60008082604051602001610fdb9190611eff565b6040516020818303038152906040529050600081604051602001610fff9190611f25565b60405160208183030381529060405290508051602082016000f092506001600160a01b0383166110655760405162461bcd60e51b81526020600482015260116024820152701111541313d65351539517d19052531151607a1b60448201526064016102e0565b5050919050565b60606103a3826001611088816001600160a01b0384163b611f59565b60408051603f8301601f19168101909152818152818360208301863c9392505050565b6001600160a01b03811681146104a757600080fd5b80356110cb816110ab565b919050565b60008083601f8401126110e257600080fd5b5081356001600160401b038111156110f957600080fd5b6020830191508360208260051b850101111561111457600080fd5b9250929050565b60008060008060006060868803121561113357600080fd5b853561113e816110ab565b945060208601356001600160401b038082111561115a57600080fd5b61116689838a016110d0565b9096509450604088013591508082111561117f57600080fd5b5061118c888289016110d0565b969995985093965092949392505050565b600080604083850312156111b057600080fd5b82356111bb816110ab565b915060208301356001600160401b038111156111d657600080fd5b830160c081860312156111e857600080fd5b809150509250929050565b8035600581106110cb57600080fd5b6000806040838503121561121557600080fd5b8235611220816110ab565b915061122e602084016111f3565b90509250929050565b60005b8381101561125257818101518382015260200161123a565b50506000910152565b60008151808452611273816020860160208601611237565b601f01601f19169290920160200192915050565b634e487b7160e01b600052602160045260246000fd5b6000600982106112af576112af611287565b50815260200190565b600081518084526020808501808196508360051b8101915082860160005b858110156113005782840389526112ee84835161125b565b988501989350908401906001016112d6565b5091979650505050505050565b60006020808301818452808551808352604092508286019150828160051b8701018488016000805b8481101561140d57898403603f19018652825180516001600160a01b031685528881015160c08a87018190529061136e8288018261125b565b838b0151888c0152606080850151898303918a01919091528051808352908d019350908c01915085905b808210156113bd576113ab83855161129d565b92508c84019350600182019150611398565b50506080915081830151878203838901526113d882826112b8565b9250505060a08083015192506113f9818801846001600160f01b0319169052565b509689019694505091870191600101611335565b50919998505050505050505050565b60006020828403121561142e57600080fd5b8135610e61816110ab565b634e487b7160e01b600052603260045260246000fd5b60006020828403121561146157600080fd5b6103a0826111f3565b6000808335601e1984360301811261148157600080fd5b8301803591506001600160401b0382111561149b57600080fd5b6020019150600581901b360382131561111457600080fd5b634e487b7160e01b600052601160045260246000fd5b6000600182016114db576114db6114b3565b5060010190565b6000808335601e198436030181126114f957600080fd5b83016020810192503590506001600160401b0381111561151857600080fd5b80360382131561111457600080fd5b81835281816020850137506000828201602090810191909152601f909101601f19169091010190565b6000808335601e1984360301811261156757600080fd5b83016020810192503590506001600160401b0381111561158657600080fd5b8060051b360382131561111457600080fd5b600981106104a757600080fd5b81835260006020808501808196508560051b810191508460005b878110156113005782840389526115d682886114e2565b6115e1868284611527565b9a87019a95505050908401906001016115bf565b6001600160f01b0319811681146104a757600080fd5b80356110cb816115f5565b6000823560be1983360301811261162c57600080fd5b90910192915050565b81835260006020808501808196508560051b81019150846000805b88811015611755578385038a526116678389611616565b60c08135611674816110ab565b6001600160a01b0316875261168b828901836114e2565b828a8a015261169d838a018284611527565b92505050604080830135818901525060606116ba81840184611550565b898403928a01929092528183529189019085905b808210156116fe5783356116e181611598565b6116eb848261129d565b9350508a840193506001820191506116ce565b50506080915061171082840184611550565b898303848b01526117228382846115a5565b935050505060a061173481840161160b565b6001600160f01b031916970196909652509885019891850191600101611650565b509298975050505050505050565b604080825281018490526000600560608084019087831b85010188845b898110156117be57868303605f1901845261179b828c611550565b6117a6858284611635565b60209687019690955093909301925050600101611780565b505084810360208681019190915286825291508690820160005b8781101561180a576117e9836111f3565b8581106117f8576117f8611287565b825291830191908301906001016117d8565b509998505050505050505050565b634e487b7160e01b600052604160045260246000fd5b60405160c081016001600160401b038111828210171561185057611850611818565b60405290565b604051601f8201601f191681016001600160401b038111828210171561187e5761187e611818565b604052919050565b60006001600160401b0382111561189f5761189f611818565b5060051b60200190565b600082601f8301126118ba57600080fd5b813560206118cf6118ca83611886565b611856565b82815260059290921b840181019181810190868411156118ee57600080fd5b8286015b8481101561190957803583529183019183016118f2565b509695505050505050565b600082601f83011261192557600080fd5b813560206119356118ca83611886565b82815260059290921b8401810191818101908684111561195457600080fd5b8286015b8481101561190957803561196b816110ab565b8352918301918301611958565b600060c0823603121561198a57600080fd5b61199261182e565b61199b836110c0565b81526119a9602084016110c0565b60208201526119ba604084016110c0565b60408201526119cb606084016111f3565b606082015260808301356001600160401b03808211156119ea57600080fd5b6119f6368387016118a9565b608084015260a0850135915080821115611a0f57600080fd5b50611a1c36828601611914565b60a08301525092915050565b60008251611a3a818460208701611237565b9190910192915050565b600060208284031215611a5657600080fd5b81518015158114610e6157600080fd5b6000823560be19833603018112611a3a57600080fd5b6000808335601e19843603018112611a9357600080fd5b8301803591506001600160401b03821115611aad57600080fd5b60200191503681900382131561111457600080fd5b602081526000610799602083018486611635565b80516110cb816110ab565b60006001600160401b03831115611afa57611afa611818565b611b0d601f8401601f1916602001611856565b9050828152838383011115611b2157600080fd5b610e61836020830184611237565b600082601f830112611b4057600080fd5b6103a083835160208501611ae1565b600082601f830112611b6057600080fd5b81516020611b706118ca83611886565b82815260059290921b84018101918181019086841115611b8f57600080fd5b8286015b84811015611909578051611ba681611598565b8352918301918301611b93565b600082601f830112611bc457600080fd5b81516020611bd46118ca83611886565b82815260059290921b84018101918181019086841115611bf357600080fd5b8286015b848110156119095780516001600160401b03811115611c165760008081fd5b8701603f81018913611c285760008081fd5b611c39898683015160408401611ae1565b845250918301918301611bf7565b80516110cb816115f5565b60006020808385031215611c6557600080fd5b82516001600160401b0380821115611c7c57600080fd5b818501915085601f830112611c9057600080fd5b8151611c9e6118ca82611886565b81815260059190911b83018401908481019088831115611cbd57600080fd5b8585015b83811015611da557805185811115611cd857600080fd5b860160c0818c03601f19011215611cef5760008081fd5b611cf761182e565b611d02898301611ad6565b815260408083015188811115611d185760008081fd5b611d268e8c83870101611b2f565b8b8401525060608084015182840152608091508184015189811115611d4b5760008081fd5b611d598f8d83880101611b4f565b82850152505060a08084015189811115611d735760008081fd5b611d818f8d83880101611bb3565b8385015250611d9260c08501611c47565b9083015250845250918601918601611cc1565b5098975050505050505050565b60008351611dc4818460208801611237565b6001600160e01b0319939093169190920190815260040192915050565b80820281158282048414176103a3576103a36114b3565b60008351611e0a818460208801611237565b835190830190611e1e818360208801611237565b01949350505050565b808201808211156103a3576103a36114b3565b600061ffff808316818103611e5157611e516114b3565b6001019392505050565b600082611e7857634e487b7160e01b600052601260045260246000fd5b500490565b815160009082906020808601845b83811015611ea757815185529382019390820190600101611e8b565b50929695505050505050565b815160009082906020808601845b83811015611ea75781516001600160a01b031685529382019390820190600101611ec1565b600060208284031215611ef857600080fd5b5051919050565b6000815260008251611f18816001850160208701611237565b9190910160010192915050565b6a600b5981380380925939f360a81b81528151600090611f4c81600b850160208701611237565b91909101600b0192915050565b818103818111156103a3576103a36114b356fea26469706673582212208038cccedaad52d07010336e439372c52c7f1dc99636d2070761b59df2dc788f64736f6c63430008110033",
    "linkReferences": {}
  },
  "methodIdentifiers": {
    "guardsInitialized(address)": "eaecd3c8",
    "readGuards(address,uint8)": "519fe8f6",
    "runGuards(address,(address,address,address,uint8,uint256[],address[]))": "2c8dfb26",
    "setGuards(address,(address,string,uint256,uint8[],bytes[],bytes2)[][],uint8[])": "184cff83"
  },
  "id": 144
}