{
  "abi": [
    {
      "inputs": [
        {
          "internalType": "address",
          "name": "implementation",
          "type": "address"
        },
        {
          "internalType": "contract ISpoolAccessControl",
          "name": "accessControl_",
          "type": "address"
        },
        {
          "internalType": "contract IActionManager",
          "name": "actionManager_",
          "type": "address"
        },
        {
          "internalType": "contract IGuardManager",
          "name": "guardManager_",
          "type": "address"
        },
        {
          "internalType": "contract ISmartVaultRegistry",
          "name": "smartVaultRegistry_",
          "type": "address"
        },
        {
          "internalType": "contract IAssetGroupRegistry",
          "name": "assetGroupRegistry_",
          "type": "address"
        },
        {
          "internalType": "contract IRiskManager",
          "name": "riskManager_",
          "type": "address"
        }
      ],
      "stateMutability": "nonpayable",
      "type": "constructor"
    },
    {
      "inputs": [],
      "name": "ConfigurationAddressZero",
      "type": "error"
    },
    {
      "inputs": [
        {
          "internalType": "uint256",
          "name": "depositFeePct",
          "type": "uint256"
        }
      ],
      "name": "DepositFeeTooLarge",
      "type": "error"
    },
    {
      "inputs": [],
      "name": "InvalidStaticAllocation",
      "type": "error"
    },
    {
      "inputs": [
        {
          "internalType": "address",
          "name": "address_",
          "type": "address"
        }
      ],
      "name": "InvalidStrategy",
      "type": "error"
    },
    {
      "inputs": [],
      "name": "InvalidStrategyAllocationsLength",
      "type": "error"
    },
    {
      "inputs": [
        {
          "internalType": "uint256",
          "name": "mgmtFeePct",
          "type": "uint256"
        }
      ],
      "name": "ManagementFeeTooLarge",
      "type": "error"
    },
    {
      "inputs": [],
      "name": "NotSameAssetGroup",
      "type": "error"
    },
    {
      "inputs": [
        {
          "internalType": "uint256",
          "name": "performanceFeePct",
          "type": "uint256"
        }
      ],
      "name": "PerformanceFeeTooLarge",
      "type": "error"
    },
    {
      "inputs": [],
      "name": "SingleStrategyDynamicAllocation",
      "type": "error"
    },
    {
      "inputs": [],
      "name": "SmartVaultRegistrationNoStrategies",
      "type": "error"
    },
    {
      "inputs": [],
      "name": "StaticAllocationAndAllocationProviderSet",
      "type": "error"
    },
    {
      "inputs": [],
      "name": "StaticAllocationAndRiskProviderSet",
      "type": "error"
    },
    {
      "inputs": [],
      "name": "StaticAllocationAndRiskToleranceSet",
      "type": "error"
    },
    {
      "inputs": [],
      "name": "StrategiesNotUnique",
      "type": "error"
    },
    {
      "inputs": [],
      "name": "StrategyCapExceeded",
      "type": "error"
    },
    {
      "anonymous": false,
      "inputs": [
        {
          "indexed": true,
          "internalType": "address",
          "name": "previousOwner",
          "type": "address"
        },
        {
          "indexed": true,
          "internalType": "address",
          "name": "newOwner",
          "type": "address"
        }
      ],
      "name": "OwnershipTransferred",
      "type": "event"
    },
    {
      "anonymous": false,
      "inputs": [
        {
          "indexed": true,
          "internalType": "address",
          "name": "smartVault",
          "type": "address"
        },
        {
          "indexed": true,
          "internalType": "address",
          "name": "deployer",
          "type": "address"
        }
      ],
      "name": "SmartVaultDeployed",
      "type": "event"
    },
    {
      "anonymous": false,
      "inputs": [
        {
          "indexed": true,
          "internalType": "address",
          "name": "implementation",
          "type": "address"
        }
      ],
      "name": "Upgraded",
      "type": "event"
    },
    {
      "inputs": [
        {
          "components": [
            {
              "internalType": "string",
              "name": "smartVaultName",
              "type": "string"
            },
            {
              "internalType": "string",
              "name": "svtSymbol",
              "type": "string"
            },
            {
              "internalType": "string",
              "name": "baseURI",
              "type": "string"
            },
            {
              "internalType": "uint256",
              "name": "assetGroupId",
              "type": "uint256"
            },
            {
              "internalType": "address[]",
              "name": "strategies",
              "type": "address[]"
            },
            {
              "internalType": "uint16a16",
              "name": "strategyAllocation",
              "type": "uint256"
            },
            {
              "internalType": "int8",
              "name": "riskTolerance",
              "type": "int8"
            },
            {
              "internalType": "address",
              "name": "riskProvider",
              "type": "address"
            },
            {
              "internalType": "address",
              "name": "allocationProvider",
              "type": "address"
            },
            {
              "internalType": "contract IAction[]",
              "name": "actions",
              "type": "address[]"
            },
            {
              "internalType": "enum RequestType[]",
              "name": "actionRequestTypes",
              "type": "uint8[]"
            },
            {
              "components": [
                {
                  "internalType": "address",
                  "name": "contractAddress",
                  "type": "address"
                },
                {
                  "internalType": "string",
                  "name": "methodSignature",
                  "type": "string"
                },
                {
                  "internalType": "uint256",
                  "name": "expectedValue",
                  "type": "uint256"
                },
                {
                  "internalType": "enum GuardParamType[]",
                  "name": "methodParamTypes",
                  "type": "uint8[]"
                },
                {
                  "internalType": "bytes[]",
                  "name": "methodParamValues",
                  "type": "bytes[]"
                },
                {
                  "internalType": "bytes2",
                  "name": "operator",
                  "type": "bytes2"
                }
              ],
              "internalType": "struct GuardDefinition[][]",
              "name": "guards",
              "type": "tuple[][]"
            },
            {
              "internalType": "enum RequestType[]",
              "name": "guardRequestTypes",
              "type": "uint8[]"
            },
            {
              "internalType": "uint16",
              "name": "managementFeePct",
              "type": "uint16"
            },
            {
              "internalType": "uint16",
              "name": "depositFeePct",
              "type": "uint16"
            },
            {
              "internalType": "uint16",
              "name": "performanceFeePct",
              "type": "uint16"
            },
            {
              "internalType": "bool",
              "name": "allowRedeemFor",
              "type": "bool"
            }
          ],
          "internalType": "struct SmartVaultSpecification",
          "name": "specification",
          "type": "tuple"
        }
      ],
      "name": "deploySmartVault",
      "outputs": [
        {
          "internalType": "contract ISmartVault",
          "name": "",
          "type": "address"
        }
      ],
      "stateMutability": "nonpayable",
      "type": "function"
    },
    {
      "inputs": [
        {
          "components": [
            {
              "internalType": "string",
              "name": "smartVaultName",
              "type": "string"
            },
            {
              "internalType": "string",
              "name": "svtSymbol",
              "type": "string"
            },
            {
              "internalType": "string",
              "name": "baseURI",
              "type": "string"
            },
            {
              "internalType": "uint256",
              "name": "assetGroupId",
              "type": "uint256"
            },
            {
              "internalType": "address[]",
              "name": "strategies",
              "type": "address[]"
            },
            {
              "internalType": "uint16a16",
              "name": "strategyAllocation",
              "type": "uint256"
            },
            {
              "internalType": "int8",
              "name": "riskTolerance",
              "type": "int8"
            },
            {
              "internalType": "address",
              "name": "riskProvider",
              "type": "address"
            },
            {
              "internalType": "address",
              "name": "allocationProvider",
              "type": "address"
            },
            {
              "internalType": "contract IAction[]",
              "name": "actions",
              "type": "address[]"
            },
            {
              "internalType": "enum RequestType[]",
              "name": "actionRequestTypes",
              "type": "uint8[]"
            },
            {
              "components": [
                {
                  "internalType": "address",
                  "name": "contractAddress",
                  "type": "address"
                },
                {
                  "internalType": "string",
                  "name": "methodSignature",
                  "type": "string"
                },
                {
                  "internalType": "uint256",
                  "name": "expectedValue",
                  "type": "uint256"
                },
                {
                  "internalType": "enum GuardParamType[]",
                  "name": "methodParamTypes",
                  "type": "uint8[]"
                },
                {
                  "internalType": "bytes[]",
                  "name": "methodParamValues",
                  "type": "bytes[]"
                },
                {
                  "internalType": "bytes2",
                  "name": "operator",
                  "type": "bytes2"
                }
              ],
              "internalType": "struct GuardDefinition[][]",
              "name": "guards",
              "type": "tuple[][]"
            },
            {
              "internalType": "enum RequestType[]",
              "name": "guardRequestTypes",
              "type": "uint8[]"
            },
            {
              "internalType": "uint16",
              "name": "managementFeePct",
              "type": "uint16"
            },
            {
              "internalType": "uint16",
              "name": "depositFeePct",
              "type": "uint16"
            },
            {
              "internalType": "uint16",
              "name": "performanceFeePct",
              "type": "uint16"
            },
            {
              "internalType": "bool",
              "name": "allowRedeemFor",
              "type": "bool"
            }
          ],
          "internalType": "struct SmartVaultSpecification",
          "name": "specification",
          "type": "tuple"
        },
        {
          "internalType": "bytes32",
          "name": "salt",
          "type": "bytes32"
        }
      ],
      "name": "deploySmartVaultDeterministically",
      "outputs": [
        {
          "internalType": "contract ISmartVault",
          "name": "",
          "type": "address"
        }
      ],
      "stateMutability": "nonpayable",
      "type": "function"
    },
    {
      "inputs": [],
      "name": "implementation",
      "outputs": [
        {
          "internalType": "address",
          "name": "",
          "type": "address"
        }
      ],
      "stateMutability": "view",
      "type": "function"
    },
    {
      "inputs": [],
      "name": "owner",
      "outputs": [
        {
          "internalType": "address",
          "name": "",
          "type": "address"
        }
      ],
      "stateMutability": "view",
      "type": "function"
    },
    {
      "inputs": [
        {
          "components": [
            {
              "internalType": "string",
              "name": "smartVaultName",
              "type": "string"
            },
            {
              "internalType": "string",
              "name": "svtSymbol",
              "type": "string"
            },
            {
              "internalType": "string",
              "name": "baseURI",
              "type": "string"
            },
            {
              "internalType": "uint256",
              "name": "assetGroupId",
              "type": "uint256"
            },
            {
              "internalType": "address[]",
              "name": "strategies",
              "type": "address[]"
            },
            {
              "internalType": "uint16a16",
              "name": "strategyAllocation",
              "type": "uint256"
            },
            {
              "internalType": "int8",
              "name": "riskTolerance",
              "type": "int8"
            },
            {
              "internalType": "address",
              "name": "riskProvider",
              "type": "address"
            },
            {
              "internalType": "address",
              "name": "allocationProvider",
              "type": "address"
            },
            {
              "internalType": "contract IAction[]",
              "name": "actions",
              "type": "address[]"
            },
            {
              "internalType": "enum RequestType[]",
              "name": "actionRequestTypes",
              "type": "uint8[]"
            },
            {
              "components": [
                {
                  "internalType": "address",
                  "name": "contractAddress",
                  "type": "address"
                },
                {
                  "internalType": "string",
                  "name": "methodSignature",
                  "type": "string"
                },
                {
                  "internalType": "uint256",
                  "name": "expectedValue",
                  "type": "uint256"
                },
                {
                  "internalType": "enum GuardParamType[]",
                  "name": "methodParamTypes",
                  "type": "uint8[]"
                },
                {
                  "internalType": "bytes[]",
                  "name": "methodParamValues",
                  "type": "bytes[]"
                },
                {
                  "internalType": "bytes2",
                  "name": "operator",
                  "type": "bytes2"
                }
              ],
              "internalType": "struct GuardDefinition[][]",
              "name": "guards",
              "type": "tuple[][]"
            },
            {
              "internalType": "enum RequestType[]",
              "name": "guardRequestTypes",
              "type": "uint8[]"
            },
            {
              "internalType": "uint16",
              "name": "managementFeePct",
              "type": "uint16"
            },
            {
              "internalType": "uint16",
              "name": "depositFeePct",
              "type": "uint16"
            },
            {
              "internalType": "uint16",
              "name": "performanceFeePct",
              "type": "uint16"
            },
            {
              "internalType": "bool",
              "name": "allowRedeemFor",
              "type": "bool"
            }
          ],
          "internalType": "struct SmartVaultSpecification",
          "name": "specification",
          "type": "tuple"
        },
        {
          "internalType": "bytes32",
          "name": "salt",
          "type": "bytes32"
        }
      ],
      "name": "predictDeterministicAddress",
      "outputs": [
        {
          "internalType": "address",
          "name": "",
          "type": "address"
        }
      ],
      "stateMutability": "view",
      "type": "function"
    },
    {
      "inputs": [],
      "name": "renounceOwnership",
      "outputs": [],
      "stateMutability": "nonpayable",
      "type": "function"
    },
    {
      "inputs": [
        {
          "internalType": "address",
          "name": "newOwner",
          "type": "address"
        }
      ],
      "name": "transferOwnership",
      "outputs": [],
      "stateMutability": "nonpayable",
      "type": "function"
    },
    {
      "inputs": [
        {
          "internalType": "address",
          "name": "newImplementation",
          "type": "address"
        }
      ],
      "name": "upgradeTo",
      "outputs": [],
      "stateMutability": "nonpayable",
      "type": "function"
    }
  ],
  "bytecode": {
    "object": "0x6101406040523480156200001257600080fd5b50604051620028d9380380620028d98339810160408190526200003591620002bd565b86620000413362000196565b6200004c81620001e6565b506001600160a01b038716620000755760405163bb0e4c3560e01b815260040160405180910390fd5b6001600160a01b0386166200009d5760405163bb0e4c3560e01b815260040160405180910390fd5b6001600160a01b038516620000c55760405163bb0e4c3560e01b815260040160405180910390fd5b6001600160a01b038416620000ed5760405163bb0e4c3560e01b815260040160405180910390fd5b6001600160a01b038316620001155760405163bb0e4c3560e01b815260040160405180910390fd5b6001600160a01b0382166200013d5760405163bb0e4c3560e01b815260040160405180910390fd5b6001600160a01b038116620001655760405163bb0e4c3560e01b815260040160405180910390fd5b6001600160a01b0395861660805293851660a05291841660c052831660e05282166101005216610120525062000368565b600080546001600160a01b038381166001600160a01b0319831681178455604051919092169283917f8be0079c531659141344cd1fd0a4f28419497f9722a3daafe3b4186f6b6457e09190a35050565b620001fc816200029560201b620004671760201c565b620002735760405162461bcd60e51b815260206004820152603360248201527f5570677261646561626c65426561636f6e3a20696d706c656d656e746174696f60448201527f6e206973206e6f74206120636f6e747261637400000000000000000000000000606482015260840160405180910390fd5b600180546001600160a01b0319166001600160a01b0392909216919091179055565b6001600160a01b03163b151590565b6001600160a01b0381168114620002ba57600080fd5b50565b600080600080600080600060e0888a031215620002d957600080fd5b8751620002e681620002a4565b6020890151909750620002f981620002a4565b60408901519096506200030c81620002a4565b60608901519095506200031f81620002a4565b60808901519094506200033281620002a4565b60a08901519093506200034581620002a4565b60c08901519092506200035881620002a4565b8091505092959891949750929550565b60805160a05160c05160e05161010051610120516124fe620003db60003960008181610f0101528181610fa40152818161104b01526110f3015260006105820152600061119501526000610d8901526000610ce10152600081816107bc01528181610c7b0152610e8901526124fe6000f3fe60806040523480156200001157600080fd5b5060043610620000935760003560e01c8063715018a61162000062578063715018a614620001085780638da5cb5b1462000112578063b254a0251462000124578063f2fde38b146200013b57600080fd5b80633659cfe614620000985780635c60da1b14620000b15780636a7a2e3a14620000da5780636fe27e7714620000f1575b600080fd5b620000af620000a936600462001382565b62000152565b005b6001546001600160a01b03165b6040516001600160a01b03909116815260200160405180910390f35b620000be620000eb366004620013c3565b6200019e565b620000be620001023660046200140c565b62000244565b620000af620002e2565b6000546001600160a01b0316620000be565b620000be62000135366004620013c3565b620002fa565b620000af6200014c36600462001382565b620003e4565b6200015c62000476565b6200016781620004d2565b6040516001600160a01b038216907fbc7cd75a20ee27fd9adebab32041f755214dbc6bffa90cc0225b39da2e5c2d3b90600090a250565b6000620001ab8362000569565b60008230620001ba8662000bdd565b604051620001c8906200135e565b620001d592919062001473565b8190604051809103906000f5905080158015620001f6573d6000803e3d6000fd5b50905062000205818562000c56565b60405133906001600160a01b038316907f4b6fc311ac818259806f64049ebe6924e21a6b8e08a6b97fbf10baf7dd6f534d90600090a390505b92915050565b6000620002518262000569565b6000306200025f8462000bdd565b6040516200026d906200135e565b6200027a92919062001473565b604051809103906000f08015801562000297573d6000803e3d6000fd5b509050620002a6818462000c56565b60405133906001600160a01b038316907f4b6fc311ac818259806f64049ebe6924e21a6b8e08a6b97fbf10baf7dd6f534d90600090a392915050565b620002ec62000476565b620002f86000620012d5565b565b600060ff60f81b30836040518060200162000315906200135e565b601f1982820381018352601f9091011660405230620003348862000bdd565b6040516020016200034792919062001473565b60408051601f1981840301815290829052620003679291602001620014b7565b60405160208183030381529060405280519060200120604051602001620003c594939291906001600160f81b031994909416845260609290921b6bffffffffffffffffffffffff191660018401526015830152603582015260550190565b60408051601f1981840301815291905280516020909101209392505050565b620003ee62000476565b6001600160a01b038116620004595760405162461bcd60e51b815260206004820152602660248201527f4f776e61626c653a206e6577206f776e657220697320746865207a65726f206160448201526564647265737360d01b60648201526084015b60405180910390fd5b6200046481620012d5565b50565b6001600160a01b03163b151590565b6000546001600160a01b03163314620002f85760405162461bcd60e51b815260206004820181905260248201527f4f776e61626c653a2063616c6c6572206973206e6f7420746865206f776e6572604482015260640162000450565b6001600160a01b0381163b620005475760405162461bcd60e51b815260206004820152603360248201527f5570677261646561626c65426561636f6e3a20696d706c656d656e746174696f6044820152721b881a5cc81b9bdd08184818dbdb9d1c9858dd606a1b606482015260840162000450565b600180546001600160a01b0319166001600160a01b0392909216919091179055565b604051637032e73760e11b8152606082013560048201527f00000000000000000000000000000000000000000000000000000000000000006001600160a01b03169063e065ce6e9060240160006040518083038186803b158015620005cd57600080fd5b505afa158015620005e2573d6000803e3d6000fd5b50620005f6925050506080820182620014ea565b9050600003620006195760405163951be16360e01b815260040160405180910390fd5b60106200062a6080830183620014ea565b905011156200064c5760405163ae9c5c5b60e01b815260040160405180910390fd5b60a081013515156000620006646080840184620014ea565b9050600114801562000674575081155b1562000693576040516301d725b960e41b815260040160405180910390fd5b811562000749576000620006af610100850160e0860162001382565b6001600160a01b031614620006d757604051631329ae2b60e01b815260040160405180910390fd5b620006e960e0840160c085016200153e565b60000b156200070b57604051632912b9d960e11b815260040160405180910390fd5b6000620007216101208501610100860162001382565b6001600160a01b031614620007495760405163ccdac46f60e01b815260040160405180910390fd5b60005b6200075b6080850185620014ea565b905081101562000aa5578215620007b2576200077c60a08501358262001325565b6000036200079d5760405163a397f01960e01b815260040160405180910390fd5b620007ad60a08501358262001325565b820191505b6001600160a01b037f0000000000000000000000000000000000000000000000000000000000000000166391d148547f49e347583a7b9e7f325e8963ee1f94127eba81e401796874b5a22f7c8f9d45f7620008116080880188620014ea565b8581811062000824576200082462001563565b90506020020160208101906200083b919062001382565b6040516001600160e01b031960e085901b16815260048101929092526001600160a01b03166024820152604401602060405180830381865afa15801562000886573d6000803e3d6000fd5b505050506040513d601f19601f82011682018060405250810190620008ac919062001588565b6200091057620008c06080850185620014ea565b82818110620008d357620008d362001563565b9050602002016020810190620008ea919062001382565b604051633ae252cd60e21b81526001600160a01b03909116600482015260240162000450565b6060840135620009246080860186620014ea565b8381811062000937576200093762001563565b90506020020160208101906200094e919062001382565b6001600160a01b03166384ba89e36040518163ffffffff1660e01b8152600401602060405180830381865afa1580156200098c573d6000803e3d6000fd5b505050506040513d601f19601f82011682018060405250810190620009b29190620015a8565b14620009d15760405163030f0dd360e11b815260040160405180910390fd5b600181015b620009e56080860186620014ea565b905081101562000a9b57620009fe6080860186620014ea565b8281811062000a115762000a1162001563565b905060200201602081019062000a28919062001382565b6001600160a01b031662000a406080870187620014ea565b8481811062000a535762000a5362001563565b905060200201602081019062000a6a919062001382565b6001600160a01b03160362000a9257604051631cb9c6dd60e31b815260040160405180910390fd5b600101620009d6565b506001016200074c565b5081801562000ab657506127108114155b1562000ad5576040516318e200ab60e01b815260040160405180910390fd5b506101f4905062000aef6101c083016101a08401620015c2565b61ffff16111562000b2f5762000b0e6101c082016101a08301620015c2565b604051632ad7996160e21b815261ffff909116600482015260240162000450565b6101f462000b466101e083016101c08401620015c2565b61ffff16111562000b865762000b656101e082016101c08301620015c2565b604051631b948fe760e11b815261ffff909116600482015260240162000450565b6107d062000b9d61020083016101e08401620015c2565b61ffff161115620004645762000bbc61020082016101e08301620015c2565b60405163af603d4560e01b815261ffff909116600482015260240162000450565b606062000beb8280620015e8565b62000bfa6020850185620015e8565b62000c096040870187620015e8565b876060013560405160240162000c2697969594939291906200165b565b60408051601f198184030181529190526020810180516001600160e01b0316631c5d2b4960e01b17905292915050565b604051630854da8360e21b81526001600160a01b0383811660048301523360248301527f000000000000000000000000000000000000000000000000000000000000000016906321536a0c90604401600060405180830381600087803b15801562000cc057600080fd5b505af115801562000cd5573d6000803e3d6000fd5b50506001600160a01b037f0000000000000000000000000000000000000000000000000000000000000000169150637197028a90508362000d1b610120850185620014ea565b62000d2b610140870187620014ea565b6040518663ffffffff1660e01b815260040162000d4d959493929190620016fa565b600060405180830381600087803b15801562000d6857600080fd5b505af115801562000d7d573d6000803e3d6000fd5b50506001600160a01b037f000000000000000000000000000000000000000000000000000000000000000016915063184cff8390508362000dc3610160850185620014ea565b62000dd3610180870187620014ea565b6040518663ffffffff1660e01b815260040162000df5959493929190620018c4565b600060405180830381600087803b15801562000e1057600080fd5b505af115801562000e25573d6000803e3d6000fd5b5062000e3e925050506102208201610200830162001a54565b1562000ee857604051632f2ff15d60e01b81527f8175070940abf2fdc44d0ca002a58b0ee7538d3bf19eb0576843c4b91dd91b4560048201526001600160a01b0383811660248301527f00000000000000000000000000000000000000000000000000000000000000001690632f2ff15d90604401600060405180830381600087803b15801562000ece57600080fd5b505af115801562000ee3573d6000803e3d6000fd5b505050505b60a0810135600081900362001193576001600160a01b037f00000000000000000000000000000000000000000000000000000000000000001663d2d087148462000f3a610100860160e0870162001382565b6040516001600160e01b031960e085901b1681526001600160a01b03928316600482015291166024820152604401600060405180830381600087803b15801562000f8357600080fd5b505af115801562000f98573d6000803e3d6000fd5b50506001600160a01b037f000000000000000000000000000000000000000000000000000000000000000016915063df63ec6e90508462000fe060e0860160c087016200153e565b6040516001600160e01b031960e085901b1681526001600160a01b03909216600483015260000b6024820152604401600060405180830381600087803b1580156200102a57600080fd5b505af11580156200103f573d6000803e3d6000fd5b50506001600160a01b037f000000000000000000000000000000000000000000000000000000000000000016915063ece20e7a905084620010896101208601610100870162001382565b6040516001600160e01b031960e085901b1681526001600160a01b03928316600482015291166024820152604401600060405180830381600087803b158015620010d257600080fd5b505af1158015620010e7573d6000803e3d6000fd5b50506001600160a01b037f000000000000000000000000000000000000000000000000000000000000000016915063bb427f509050846200112c6080860186620014ea565b6040518463ffffffff1660e01b81526004016200114c9392919062001a74565b602060405180830381865afa1580156200116a573d6000803e3d6000fd5b505050506040513d601f19601f82011682018060405250810190620011909190620015a8565b90505b7f00000000000000000000000000000000000000000000000000000000000000006001600160a01b031663146c6743846040518060c0016040528086606001358152602001868060800190620011ea9190620014ea565b80806020026020016040519081016040528093929190818152602001838360200280828437600092019190915250505090825250602081018690526040016200123c6101c088016101a08901620015c2565b61ffff168152602001620012596101e088016101c08901620015c2565b61ffff1681526020016200127661020088016101e08901620015c2565b61ffff168152506040518363ffffffff1660e01b81526004016200129c92919062001ad4565b600060405180830381600087803b158015620012b757600080fd5b505af1158015620012cc573d6000803e3d6000fd5b50505050505050565b600080546001600160a01b038381166001600160a01b0319831681178455604051919092169283917f8be0079c531659141344cd1fd0a4f28419497f9722a3daafe3b4186f6b6457e09190a35050565b6000601082106200133557600080fd5b6200134560016201000062001b98565b6200135283601062001bae565b84901c16905092915050565b6109008062001bc983390190565b6001600160a01b03811681146200046457600080fd5b6000602082840312156200139557600080fd5b8135620013a2816200136c565b9392505050565b60006102208284031215620013bd57600080fd5b50919050565b60008060408385031215620013d757600080fd5b823567ffffffffffffffff811115620013ef57600080fd5b620013fd85828601620013a9565b95602094909401359450505050565b6000602082840312156200141f57600080fd5b813567ffffffffffffffff8111156200143757600080fd5b6200144584828501620013a9565b949350505050565b60005b838110156200146a57818101518382015260200162001450565b50506000910152565b60018060a01b03831681526040602082015260008251806040840152620014a28160608501602087016200144d565b601f01601f1916919091016060019392505050565b60008351620014cb8184602088016200144d565b835190830190620014e18183602088016200144d565b01949350505050565b6000808335601e198436030181126200150257600080fd5b83018035915067ffffffffffffffff8211156200151e57600080fd5b6020019150600581901b36038213156200153757600080fd5b9250929050565b6000602082840312156200155157600080fd5b81358060000b8114620013a257600080fd5b634e487b7160e01b600052603260045260246000fd5b80151581146200046457600080fd5b6000602082840312156200159b57600080fd5b8151620013a28162001579565b600060208284031215620015bb57600080fd5b5051919050565b600060208284031215620015d557600080fd5b813561ffff81168114620013a257600080fd5b6000808335601e198436030181126200160057600080fd5b83018035915067ffffffffffffffff8211156200161c57600080fd5b6020019150368190038213156200153757600080fd5b81835281816020850137506000828201602090810191909152601f909101601f19169091010190565b6080815260006200167160808301898b62001632565b82810360208401526200168681888a62001632565b905082810360408401526200169d81868862001632565b91505082606083015298975050505050505050565b818352600060208085019450826000805b86811015620016ee57823560058110620016db578283fd5b88529683019691830191600101620016c3565b50959695505050505050565b6001600160a01b03868116825260606020808401829052908301869052600091879160808501845b898110156200174d57843562001738816200136c565b84168252938201939082019060010162001722565b5085810360408701526200176381888a620016b2565b9b9a5050505050505050505050565b6000808335601e198436030181126200178a57600080fd5b830160208101925035905067ffffffffffffffff811115620017ab57600080fd5b8036038213156200153757600080fd5b6000808335601e19843603018112620017d357600080fd5b830160208101925035905067ffffffffffffffff811115620017f457600080fd5b8060051b36038213156200153757600080fd5b818352600060208085019450826000805b86811015620016ee5782356009811062001830578283fd5b8852968301969183019160010162001818565b81835260006020808501808196508560051b810191508460005b878110156200189957828403895262001877828862001772565b6200188486828462001632565b9a87019a95505050908401906001016200185d565b5091979650505050505050565b80356001600160f01b031981168114620018bf57600080fd5b919050565b6001600160a01b038681168252606060208084018290529083018690526000916080600588901b850181019290850189855b8a81101562001a2e57878603607f1901835262001914828d620017bb565b808852858801600582901b890187018360005b8481101562001a15578b8303601f1901845281353687900360be190181126200194f57600080fd5b860180356200195e816200136c565b8c16845262001970818c018262001772565b60c08d8701526200198660c08701828462001632565b9150506040808301358187015250620019a36060830183620017bb565b8683036060880152620019b883828462001807565b92505050620019cb6080830183620017bb565b8683036080880152620019e083828462001843565b9250505060a0620019f3818401620018a6565b6001600160f01b03191695019490945250928901929089019060010162001927565b50909950505093850193505090830190600101620018f6565b5050505050828103604084015262001a48818587620016b2565b98975050505050505050565b60006020828403121562001a6757600080fd5b8135620013a28162001579565b6001600160a01b03848116825260406020808401829052908301849052600091859160608501845b8781101562001ac757843562001ab2816200136c565b84168252938201939082019060010162001a9c565b5098975050505050505050565b6001600160a01b038381168252604060208084018290528451918401919091528381015160c0606085015280516101008501819052600093929182019084906101208701905b8083101562001b3e5783518616825292840192600192909201919084019062001b1a565b5060408801516080880152606088015161ffff811660a08901529450608088015161ffff811660c0890152945060a088015161ffff811660e0890152945062001a48565b634e487b7160e01b600052601160045260246000fd5b818103818111156200023e576200023e62001b82565b80820281158282048414176200023e576200023e62001b8256fe60806040526040516109003803806109008339810160408190526100229161045b565b61002e82826000610035565b5050610585565b61003e83610100565b6040516001600160a01b038416907f1cf3b03a6cf19fa2baba4df148e9dcabedea7f8a5c07840e207e5c089be95d3e90600090a260008251118061007f5750805b156100fb576100f9836001600160a01b0316635c60da1b6040518163ffffffff1660e01b8152600401602060405180830381865afa1580156100c5573d6000803e3d6000fd5b505050506040513d601f19601f820116820180604052508101906100e9919061051b565b836102a360201b6100291760201c565b505b505050565b610113816102cf60201b6100551760201c565b6101725760405162461bcd60e51b815260206004820152602560248201527f455243313936373a206e657720626561636f6e206973206e6f74206120636f6e6044820152641d1c9858dd60da1b60648201526084015b60405180910390fd5b6101e6816001600160a01b0316635c60da1b6040518163ffffffff1660e01b8152600401602060405180830381865afa1580156101b3573d6000803e3d6000fd5b505050506040513d601f19601f820116820180604052508101906101d7919061051b565b6102cf60201b6100551760201c565b61024b5760405162461bcd60e51b815260206004820152603060248201527f455243313936373a20626561636f6e20696d706c656d656e746174696f6e206960448201526f1cc81b9bdd08184818dbdb9d1c9858dd60821b6064820152608401610169565b806102827fa3f0ad74e5423aebfd80d3ef4346578335a9a72aeaee59ff6cb3582b35133d5060001b6102de60201b6100641760201c565b80546001600160a01b0319166001600160a01b039290921691909117905550565b60606102c883836040518060600160405280602781526020016108d9602791396102e1565b9392505050565b6001600160a01b03163b151590565b90565b6060600080856001600160a01b0316856040516102fe9190610536565b600060405180830381855af49150503d8060008114610339576040519150601f19603f3d011682016040523d82523d6000602084013e61033e565b606091505b5090925090506103508683838761035a565b9695505050505050565b606083156103c95782516000036103c2576001600160a01b0385163b6103c25760405162461bcd60e51b815260206004820152601d60248201527f416464726573733a2063616c6c20746f206e6f6e2d636f6e74726163740000006044820152606401610169565b50816103d3565b6103d383836103db565b949350505050565b8151156103eb5781518083602001fd5b8060405162461bcd60e51b81526004016101699190610552565b80516001600160a01b038116811461041c57600080fd5b919050565b634e487b7160e01b600052604160045260246000fd5b60005b8381101561045257818101518382015260200161043a565b50506000910152565b6000806040838503121561046e57600080fd5b61047783610405565b60208401519092506001600160401b038082111561049457600080fd5b818501915085601f8301126104a857600080fd5b8151818111156104ba576104ba610421565b604051601f8201601f19908116603f011681019083821181831017156104e2576104e2610421565b816040528281528860208487010111156104fb57600080fd5b61050c836020830160208801610437565b80955050505050509250929050565b60006020828403121561052d57600080fd5b6102c882610405565b60008251610548818460208701610437565b9190910192915050565b6020815260008251806020840152610571816040850160208701610437565b601f01601f19169190910160400192915050565b610345806105946000396000f3fe60806040523661001357610011610017565b005b6100115b610027610022610067565b610100565b565b606061004e83836040518060600160405280602781526020016102e960279139610124565b9392505050565b6001600160a01b03163b151590565b90565b600061009a7fa3f0ad74e5423aebfd80d3ef4346578335a9a72aeaee59ff6cb3582b35133d50546001600160a01b031690565b6001600160a01b0316635c60da1b6040518163ffffffff1660e01b8152600401602060405180830381865afa1580156100d7573d6000803e3d6000fd5b505050506040513d601f19601f820116820180604052508101906100fb919061024c565b905090565b3660008037600080366000845af43d6000803e80801561011f573d6000f35b3d6000fd5b6060600080856001600160a01b0316856040516101419190610299565b600060405180830381855af49150503d806000811461017c576040519150601f19603f3d011682016040523d82523d6000602084013e610181565b606091505b50915091506101928683838761019c565b9695505050505050565b60608315610210578251600003610209576001600160a01b0385163b6102095760405162461bcd60e51b815260206004820152601d60248201527f416464726573733a2063616c6c20746f206e6f6e2d636f6e747261637400000060448201526064015b60405180910390fd5b508161021a565b61021a8383610222565b949350505050565b8151156102325781518083602001fd5b8060405162461bcd60e51b815260040161020091906102b5565b60006020828403121561025e57600080fd5b81516001600160a01b038116811461004e57600080fd5b60005b83811015610290578181015183820152602001610278565b50506000910152565b600082516102ab818460208701610275565b9190910192915050565b60208152600082518060208401526102d4816040850160208701610275565b601f01601f1916919091016040019291505056fe416464726573733a206c6f772d6c6576656c2064656c65676174652063616c6c206661696c6564a264697066735822122095f579d2f59ef5d88216d4c4dee04587af3c0e201bcfa18abd24a093012a0a9764736f6c63430008110033416464726573733a206c6f772d6c6576656c2064656c65676174652063616c6c206661696c6564a2646970667358221220e2b144b3ecea1cbe5812ed89daa377b5af8bcba5982bfa85c51b96ad45594aeb64736f6c63430008110033",
    "linkReferences": {}
  },
  "methodIdentifiers": {
    "deploySmartVault((string,string,string,uint256,address[],uint256,int8,address,address,address[],uint8[],(address,string,uint256,uint8[],bytes[],bytes2)[][],uint8[],uint16,uint16,uint16,bool))": "6fe27e77",
    "deploySmartVaultDeterministically((string,string,string,uint256,address[],uint256,int8,address,address,address[],uint8[],(address,string,uint256,uint8[],bytes[],bytes2)[][],uint8[],uint16,uint16,uint16,bool),bytes32)": "6a7a2e3a",
    "implementation()": "5c60da1b",
    "owner()": "8da5cb5b",
    "predictDeterministicAddress((string,string,string,uint256,address[],uint256,int8,address,address,address[],uint8[],(address,string,uint256,uint8[],bytes[],bytes2)[][],uint8[],uint16,uint16,uint16,bool),bytes32)": "b254a025",
    "renounceOwnership()": "715018a6",
    "transferOwnership(address)": "f2fde38b",
    "upgradeTo(address)": "3659cfe6"
  },
  "id": 83
}