{
  "abi": [
    {
      "inputs": [
        {
          "internalType": "contract ISpoolAccessControl",
          "name": "accessControl_",
          "type": "address"
        },
        {
          "internalType": "contract IAssetGroupRegistry",
          "name": "assetGroupRegistry_",
          "type": "address"
        },
        {
          "internalType": "contract IRiskManager",
          "name": "riskManager_",
          "type": "address"
        },
        {
          "internalType": "contract IDepositManager",
          "name": "depositManager_",
          "type": "address"
        },
        {
          "internalType": "contract IWithdrawalManager",
          "name": "withdrawalManager_",
          "type": "address"
        },
        {
          "internalType": "contract IStrategyRegistry",
          "name": "strategyRegistry_",
          "type": "address"
        },
        {
          "internalType": "contract IMasterWallet",
          "name": "masterWallet_",
          "type": "address"
        },
        {
          "internalType": "contract IUsdPriceFeedManager",
          "name": "priceFeedManager_",
          "type": "address"
        },
        {
          "internalType": "address",
          "name": "ghostStrategy",
          "type": "address"
        }
      ],
      "stateMutability": "nonpayable",
      "type": "constructor"
    },
    {
      "inputs": [],
      "name": "ConfigurationAddressZero",
      "type": "error"
    },
    {
      "inputs": [
        {
          "internalType": "address",
          "name": "strategy",
          "type": "address"
        },
        {
          "internalType": "uint256",
          "name": "strategyIndex",
          "type": "uint256"
        }
      ],
      "name": "DhwNotRunYetForIndex",
      "type": "error"
    },
    {
      "inputs": [],
      "name": "GhostVault",
      "type": "error"
    },
    {
      "inputs": [],
      "name": "InvalidArrayLength",
      "type": "error"
    },
    {
      "inputs": [
        {
          "internalType": "bytes32",
          "name": "role",
          "type": "bytes32"
        },
        {
          "internalType": "address",
          "name": "account",
          "type": "address"
        }
      ],
      "name": "MissingRole",
      "type": "error"
    },
    {
      "inputs": [],
      "name": "NotSameAssetGroup",
      "type": "error"
    },
    {
      "inputs": [],
      "name": "NothingToFlush",
      "type": "error"
    },
    {
      "inputs": [],
      "name": "NothingToSync",
      "type": "error"
    },
    {
      "inputs": [
        {
          "internalType": "address",
          "name": "address_",
          "type": "address"
        }
      ],
      "name": "OnlyViewExecution",
      "type": "error"
    },
    {
      "inputs": [],
      "name": "ReallocationParametersExpired",
      "type": "error"
    },
    {
      "inputs": [],
      "name": "SmartVaultAlreadyRegistered",
      "type": "error"
    },
    {
      "inputs": [],
      "name": "SmartVaultNotRegisteredYet",
      "type": "error"
    },
    {
      "inputs": [],
      "name": "StaticAllocationSmartVault",
      "type": "error"
    },
    {
      "inputs": [],
      "name": "SystemPaused",
      "type": "error"
    },
    {
      "inputs": [],
      "name": "VaultNotSynced",
      "type": "error"
    },
    {
      "anonymous": false,
      "inputs": [
        {
          "indexed": true,
          "internalType": "address",
          "name": "smartVault",
          "type": "address"
        },
        {
          "indexed": false,
          "internalType": "uint256",
          "name": "flushIndex",
          "type": "uint256"
        }
      ],
      "name": "SmartVaultFlushed",
      "type": "event"
    },
    {
      "anonymous": false,
      "inputs": [
        {
          "indexed": true,
          "internalType": "address",
          "name": "smartVault",
          "type": "address"
        },
        {
          "indexed": false,
          "internalType": "uint16a16",
          "name": "newAllocations",
          "type": "uint256"
        }
      ],
      "name": "SmartVaultReallocated",
      "type": "event"
    },
    {
      "anonymous": false,
      "inputs": [
        {
          "indexed": true,
          "internalType": "address",
          "name": "smartVault",
          "type": "address"
        },
        {
          "components": [
            {
              "internalType": "uint256",
              "name": "assetGroupId",
              "type": "uint256"
            },
            {
              "internalType": "address[]",
              "name": "strategies",
              "type": "address[]"
            },
            {
              "internalType": "uint16a16",
              "name": "strategyAllocation",
              "type": "uint256"
            },
            {
              "internalType": "uint16",
              "name": "managementFeePct",
              "type": "uint16"
            },
            {
              "internalType": "uint16",
              "name": "depositFeePct",
              "type": "uint16"
            },
            {
              "internalType": "uint16",
              "name": "performanceFeePct",
              "type": "uint16"
            }
          ],
          "indexed": false,
          "internalType": "struct SmartVaultRegistrationForm",
          "name": "registrationForm",
          "type": "tuple"
        }
      ],
      "name": "SmartVaultRegistered",
      "type": "event"
    },
    {
      "anonymous": false,
      "inputs": [
        {
          "indexed": true,
          "internalType": "address",
          "name": "smartVault",
          "type": "address"
        },
        {
          "indexed": false,
          "internalType": "uint256",
          "name": "flushIndex",
          "type": "uint256"
        }
      ],
      "name": "SmartVaultSynced",
      "type": "event"
    },
    {
      "anonymous": false,
      "inputs": [
        {
          "indexed": true,
          "internalType": "address",
          "name": "strategy",
          "type": "address"
        },
        {
          "indexed": true,
          "internalType": "address",
          "name": "vault",
          "type": "address"
        }
      ],
      "name": "StrategyRemovedFromVault",
      "type": "event"
    },
    {
      "inputs": [
        {
          "internalType": "address",
          "name": "smartVault",
          "type": "address"
        }
      ],
      "name": "allocations",
      "outputs": [
        {
          "internalType": "uint16a16",
          "name": "",
          "type": "uint256"
        }
      ],
      "stateMutability": "view",
      "type": "function"
    },
    {
      "inputs": [
        {
          "internalType": "address",
          "name": "smartVault",
          "type": "address"
        }
      ],
      "name": "assetGroupId",
      "outputs": [
        {
          "internalType": "uint256",
          "name": "",
          "type": "uint256"
        }
      ],
      "stateMutability": "view",
      "type": "function"
    },
    {
      "inputs": [
        {
          "internalType": "address",
          "name": "smartVault",
          "type": "address"
        },
        {
          "internalType": "uint256[]",
          "name": "nftIds",
          "type": "uint256[]"
        },
        {
          "internalType": "uint256[]",
          "name": "nftAmounts",
          "type": "uint256[]"
        }
      ],
      "name": "claimSmartVaultTokens",
      "outputs": [
        {
          "internalType": "uint256",
          "name": "",
          "type": "uint256"
        }
      ],
      "stateMutability": "nonpayable",
      "type": "function"
    },
    {
      "inputs": [
        {
          "internalType": "address",
          "name": "smartVault",
          "type": "address"
        },
        {
          "internalType": "uint256[]",
          "name": "nftIds",
          "type": "uint256[]"
        },
        {
          "internalType": "uint256[]",
          "name": "nftAmounts",
          "type": "uint256[]"
        },
        {
          "internalType": "address",
          "name": "receiver",
          "type": "address"
        }
      ],
      "name": "claimWithdrawal",
      "outputs": [
        {
          "internalType": "uint256[]",
          "name": "",
          "type": "uint256[]"
        },
        {
          "internalType": "uint256",
          "name": "",
          "type": "uint256"
        }
      ],
      "stateMutability": "nonpayable",
      "type": "function"
    },
    {
      "inputs": [
        {
          "components": [
            {
              "internalType": "address",
              "name": "smartVault",
              "type": "address"
            },
            {
              "internalType": "uint256[]",
              "name": "assets",
              "type": "uint256[]"
            },
            {
              "internalType": "address",
              "name": "receiver",
              "type": "address"
            },
            {
              "internalType": "address",
              "name": "referral",
              "type": "address"
            },
            {
              "internalType": "bool",
              "name": "doFlush",
              "type": "bool"
            }
          ],
          "internalType": "struct DepositBag",
          "name": "bag",
          "type": "tuple"
        }
      ],
      "name": "deposit",
      "outputs": [
        {
          "internalType": "uint256",
          "name": "",
          "type": "uint256"
        }
      ],
      "stateMutability": "nonpayable",
      "type": "function"
    },
    {
      "inputs": [
        {
          "internalType": "address",
          "name": "smartVault",
          "type": "address"
        }
      ],
      "name": "depositRatio",
      "outputs": [
        {
          "internalType": "uint256[]",
          "name": "",
          "type": "uint256[]"
        }
      ],
      "stateMutability": "view",
      "type": "function"
    },
    {
      "inputs": [
        {
          "internalType": "address",
          "name": "smartVault",
          "type": "address"
        },
        {
          "internalType": "uint256",
          "name": "flushIndex",
          "type": "uint256"
        }
      ],
      "name": "dhwIndexes",
      "outputs": [
        {
          "internalType": "uint16a16",
          "name": "",
          "type": "uint256"
        }
      ],
      "stateMutability": "view",
      "type": "function"
    },
    {
      "inputs": [
        {
          "internalType": "address",
          "name": "smartVault",
          "type": "address"
        }
      ],
      "name": "flushSmartVault",
      "outputs": [],
      "stateMutability": "nonpayable",
      "type": "function"
    },
    {
      "inputs": [
        {
          "internalType": "address",
          "name": "smartVault",
          "type": "address"
        }
      ],
      "name": "getLatestFlushIndex",
      "outputs": [
        {
          "internalType": "uint256",
          "name": "",
          "type": "uint256"
        }
      ],
      "stateMutability": "view",
      "type": "function"
    },
    {
      "inputs": [
        {
          "components": [
            {
              "internalType": "address[]",
              "name": "smartVaults",
              "type": "address[]"
            },
            {
              "internalType": "address[]",
              "name": "strategies",
              "type": "address[]"
            },
            {
              "components": [
                {
                  "internalType": "address",
                  "name": "swapTarget",
                  "type": "address"
                },
                {
                  "internalType": "address",
                  "name": "token",
                  "type": "address"
                },
                {
                  "internalType": "bytes",
                  "name": "swapCallData",
                  "type": "bytes"
                }
              ],
              "internalType": "struct SwapInfo[][]",
              "name": "swapInfo",
              "type": "tuple[][]"
            },
            {
              "internalType": "uint256[][]",
              "name": "depositSlippages",
              "type": "uint256[][]"
            },
            {
              "internalType": "uint256[][]",
              "name": "withdrawalSlippages",
              "type": "uint256[][]"
            },
            {
              "internalType": "uint256[2][]",
              "name": "exchangeRateSlippages",
              "type": "uint256[2][]"
            },
            {
              "internalType": "uint256",
              "name": "validUntil",
              "type": "uint256"
            }
          ],
          "internalType": "struct ReallocateParamBag",
          "name": "reallocateParams",
          "type": "tuple"
        }
      ],
      "name": "reallocate",
      "outputs": [],
      "stateMutability": "nonpayable",
      "type": "function"
    },
    {
      "inputs": [
        {
          "internalType": "address",
          "name": "smartVault",
          "type": "address"
        }
      ],
      "name": "recoverPendingDeposits",
      "outputs": [],
      "stateMutability": "nonpayable",
      "type": "function"
    },
    {
      "inputs": [
        {
          "components": [
            {
              "internalType": "address",
              "name": "smartVault",
              "type": "address"
            },
            {
              "internalType": "uint256",
              "name": "shares",
              "type": "uint256"
            },
            {
              "internalType": "uint256[]",
              "name": "nftIds",
              "type": "uint256[]"
            },
            {
              "internalType": "uint256[]",
              "name": "nftAmounts",
              "type": "uint256[]"
            }
          ],
          "internalType": "struct RedeemBag",
          "name": "bag",
          "type": "tuple"
        },
        {
          "internalType": "address",
          "name": "receiver",
          "type": "address"
        },
        {
          "internalType": "bool",
          "name": "doFlush",
          "type": "bool"
        }
      ],
      "name": "redeem",
      "outputs": [
        {
          "internalType": "uint256",
          "name": "",
          "type": "uint256"
        }
      ],
      "stateMutability": "nonpayable",
      "type": "function"
    },
    {
      "inputs": [
        {
          "components": [
            {
              "internalType": "address",
              "name": "smartVault",
              "type": "address"
            },
            {
              "internalType": "uint256",
              "name": "shares",
              "type": "uint256"
            },
            {
              "internalType": "uint256[]",
              "name": "nftIds",
              "type": "uint256[]"
            },
            {
              "internalType": "uint256[]",
              "name": "nftAmounts",
              "type": "uint256[]"
            }
          ],
          "internalType": "struct RedeemBag",
          "name": "bag",
          "type": "tuple"
        },
        {
          "internalType": "uint256[][]",
          "name": "withdrawalSlippages",
          "type": "uint256[][]"
        }
      ],
      "name": "redeemFast",
      "outputs": [
        {
          "internalType": "uint256[]",
          "name": "",
          "type": "uint256[]"
        }
      ],
      "stateMutability": "nonpayable",
      "type": "function"
    },
    {
      "inputs": [
        {
          "components": [
            {
              "internalType": "address",
              "name": "smartVault",
              "type": "address"
            },
            {
              "internalType": "uint256",
              "name": "shares",
              "type": "uint256"
            },
            {
              "internalType": "uint256[]",
              "name": "nftIds",
              "type": "uint256[]"
            },
            {
              "internalType": "uint256[]",
              "name": "nftAmounts",
              "type": "uint256[]"
            }
          ],
          "internalType": "struct RedeemBag",
          "name": "bag",
          "type": "tuple"
        },
        {
          "internalType": "uint256[][]",
          "name": "withdrawalSlippages",
          "type": "uint256[][]"
        },
        {
          "internalType": "address",
          "name": "redeemer",
          "type": "address"
        }
      ],
      "name": "redeemFastView",
      "outputs": [
        {
          "internalType": "uint256[]",
          "name": "",
          "type": "uint256[]"
        }
      ],
      "stateMutability": "nonpayable",
      "type": "function"
    },
    {
      "inputs": [
        {
          "components": [
            {
              "internalType": "address",
              "name": "smartVault",
              "type": "address"
            },
            {
              "internalType": "uint256",
              "name": "shares",
              "type": "uint256"
            },
            {
              "internalType": "uint256[]",
              "name": "nftIds",
              "type": "uint256[]"
            },
            {
              "internalType": "uint256[]",
              "name": "nftAmounts",
              "type": "uint256[]"
            }
          ],
          "internalType": "struct RedeemBag",
          "name": "bag",
          "type": "tuple"
        },
        {
          "internalType": "address",
          "name": "owner",
          "type": "address"
        },
        {
          "internalType": "bool",
          "name": "doFlush",
          "type": "bool"
        }
      ],
      "name": "redeemFor",
      "outputs": [
        {
          "internalType": "uint256",
          "name": "",
          "type": "uint256"
        }
      ],
      "stateMutability": "nonpayable",
      "type": "function"
    },
    {
      "inputs": [
        {
          "internalType": "address",
          "name": "smartVault",
          "type": "address"
        },
        {
          "components": [
            {
              "internalType": "uint256",
              "name": "assetGroupId",
              "type": "uint256"
            },
            {
              "internalType": "address[]",
              "name": "strategies",
              "type": "address[]"
            },
            {
              "internalType": "uint16a16",
              "name": "strategyAllocation",
              "type": "uint256"
            },
            {
              "internalType": "uint16",
              "name": "managementFeePct",
              "type": "uint16"
            },
            {
              "internalType": "uint16",
              "name": "depositFeePct",
              "type": "uint16"
            },
            {
              "internalType": "uint16",
              "name": "performanceFeePct",
              "type": "uint16"
            }
          ],
          "internalType": "struct SmartVaultRegistrationForm",
          "name": "registrationForm",
          "type": "tuple"
        }
      ],
      "name": "registerSmartVault",
      "outputs": [],
      "stateMutability": "nonpayable",
      "type": "function"
    },
    {
      "inputs": [
        {
          "internalType": "address",
          "name": "strategy",
          "type": "address"
        },
        {
          "internalType": "address[]",
          "name": "vaults",
          "type": "address[]"
        },
        {
          "internalType": "bool",
          "name": "disableStrategy",
          "type": "bool"
        }
      ],
      "name": "removeStrategyFromVaults",
      "outputs": [],
      "stateMutability": "nonpayable",
      "type": "function"
    },
    {
      "inputs": [
        {
          "internalType": "address",
          "name": "smartVault",
          "type": "address"
        }
      ],
      "name": "simulateSync",
      "outputs": [
        {
          "internalType": "uint256",
          "name": "oldTotalSVTs",
          "type": "uint256"
        },
        {
          "internalType": "uint256",
          "name": "",
          "type": "uint256"
        },
        {
          "internalType": "uint256",
          "name": "",
          "type": "uint256"
        },
        {
          "internalType": "uint256[]",
          "name": "",
          "type": "uint256[]"
        }
      ],
      "stateMutability": "view",
      "type": "function"
    },
    {
      "inputs": [
        {
          "internalType": "address",
          "name": "smartVault",
          "type": "address"
        },
        {
          "internalType": "address",
          "name": "userAddress",
          "type": "address"
        },
        {
          "internalType": "uint256[]",
          "name": "nftIds",
          "type": "uint256[]"
        }
      ],
      "name": "simulateSyncWithBurn",
      "outputs": [
        {
          "internalType": "uint256",
          "name": "newBalance",
          "type": "uint256"
        }
      ],
      "stateMutability": "view",
      "type": "function"
    },
    {
      "inputs": [
        {
          "internalType": "address",
          "name": "smartVault",
          "type": "address"
        }
      ],
      "name": "strategies",
      "outputs": [
        {
          "internalType": "address[]",
          "name": "",
          "type": "address[]"
        }
      ],
      "stateMutability": "view",
      "type": "function"
    },
    {
      "inputs": [
        {
          "internalType": "address",
          "name": "smartVault",
          "type": "address"
        },
        {
          "internalType": "bool",
          "name": "revertIfError",
          "type": "bool"
        }
      ],
      "name": "syncSmartVault",
      "outputs": [],
      "stateMutability": "nonpayable",
      "type": "function"
    }
  ],
  "bytecode": {
    "object": "0x6101a06040523480156200001257600080fd5b50604051620060a9380380620060a98339810160408190526200003591620001fc565b886001600160a01b0381166200005e5760405163bb0e4c3560e01b815260040160405180910390fd5b6001600160a01b0390811660805288166200008c5760405163bb0e4c3560e01b815260040160405180910390fd5b6001600160a01b038716620000b45760405163bb0e4c3560e01b815260040160405180910390fd5b6001600160a01b038616620000dc5760405163bb0e4c3560e01b815260040160405180910390fd5b6001600160a01b038516620001045760405163bb0e4c3560e01b815260040160405180910390fd5b6001600160a01b0384166200012c5760405163bb0e4c3560e01b815260040160405180910390fd5b6001600160a01b038316620001545760405163bb0e4c3560e01b815260040160405180910390fd5b6001600160a01b0382166200017c5760405163bb0e4c3560e01b815260040160405180910390fd5b6001600160a01b038116620001a45760405163bb0e4c3560e01b815260040160405180910390fd5b6001600160a01b03978816610100529587166101205293861660a05291851660c052841660e052831661014052821661016052166101805250620002d3565b6001600160a01b0381168114620001f957600080fd5b50565b60008060008060008060008060006101208a8c0312156200021c57600080fd5b89516200022981620001e3565b60208b01519099506200023c81620001e3565b60408b01519098506200024f81620001e3565b60608b01519097506200026281620001e3565b60808b01519096506200027581620001e3565b60a08b01519095506200028881620001e3565b60c08b01519094506200029b81620001e3565b60e08b0151909350620002ae81620001e3565b6101008b0151909250620002c281620001e3565b809150509295985092959850929598565b60805160a05160c05160e0516101005161012051610140516101605161018051615c4d6200045c60003960008181610e300152818161253e0152818161271a0152613537015260006123dd01526000818161240c0152613d9f01526000818161217201526122ba01526000818161043b015281816107210152818161094c01528181610be101528181611127015281816117fd01528181611aab01528181611da301528181612033015281816123ae01528181612b89015281816137650152613b7b01526000818161079201528181610f63015281816112e00152818161171b0152612f73015260008181611b970152818161281301528181612dbc0152818161308701526139330152600081816106e701528181610a81015281816114590152818161190d01528181611d79015281816128ad01528181612cb90152818161310d0152818161344b015281816138780152613c820152600081816125c60152818161266801528181612a3b0152818161327f01528181613a100152613a7f0152615c4d6000f3fe608060405234801561001057600080fd5b50600436106101375760003560e01c8063a1280e4d116100b8578063e1c2eea61161007c578063e1c2eea6146102e3578063e90173bd146102f6578063f8a7048614610309578063f8fdca7a1461032a578063fa15b91b1461033d578063fe19c1681461035057600080fd5b8063a1280e4d14610248578063a1bd9cc11461027a578063ab1e74ca1461028d578063bb9a7578146102a0578063c6a6d7cb146102c357600080fd5b806352a9039c116100ff57806352a9039c146101bd57806361189dd3146101e65780636e6462d6146101f957806373bf0e50146102225780637f03e6831461023557600080fd5b80630d5745351461013c578063146c674314610151578063260c231314610164578063388bbfd31461017757806339ebf8231461019d575b600080fd5b61014f61014a3660046141ec565b610363565b005b61014f61015f366004614209565b6104b3565b61014f6101723660046141ec565b61067f565b61018a610185366004614285565b610867565b6040519081526020015b60405180910390f35b6101b06101ab3660046141ec565b610890565b604051610194919061432c565b61018a6101cb3660046141ec565b6001600160a01b031660009081526035602052604090205490565b61018a6101f436600461438a565b610906565b61018a6102073660046141ec565b6001600160a01b031660009081526032602052604090205490565b61014f61023036600461440c565b610b15565b61018a610243366004614285565b610c59565b61018a6102563660046141ec565b6001600160a01b03166000908152603660205260409020546001600160801b031690565b61014f61028836600461443a565b610ce5565b61018a61029b3660046145b4565b610fc6565b6102b36102ae3660046141ec565b611501565b6040516101949493929190614645565b6102d66102d1366004614674565b6119c2565b60405161019491906146e4565b6102d66102f13660046146f7565b611a09565b61018a61030436600461475f565b611a31565b61031c61031736600461478b565b611a5c565b60405161019492919061481f565b6102d66103383660046141ec565b611d44565b61018a61034b366004614841565b611e9d565b61014f61035e36600461487b565b611ed2565b61036b6125c4565b610373612666565b61037c816126d3565b6001600160a01b0381166000908152603360209081526040808320805482518185028101850190935280835291929091908301828280156103e657602002820191906000526020600020905b81546001600160a01b031681526001909101906020018083116103c8575b505050505090506103f68161270c565b6001600160a01b03828116600090815260356020908152604080832054603290925291829020549151636e87f18d60e11b815260048101929092526104af92859285917f0000000000000000000000000000000000000000000000000000000000000000169063dd0fe31a90602401600060405180830381865afa158015610482573d6000803e3d6000fd5b505050506040513d6000823e601f3d908101601f191682016040526104aa91908101906148b5565b612798565b5050565b6104bb6125c4565b6104e57fadcdbe1f109205bda263b8a003b032ba3d5feba6ed7a93446d414c5591a9271033612a15565b6001600160a01b03821660009081526031602052604090205460ff161561051f576040516336bee8f160e21b815260040160405180910390fd5b6001600160a01b03821660009081526032602090815260409091208235905561054a90820182614943565b6001600160a01b038416600090815260336020526040902061056d9290916140c8565b50604051806060016040528082606001602081019061058c919061499e565b61ffff1681526020016105a560a084016080850161499e565b61ffff1681526020016105be60c0840160a0850161499e565b61ffff9081169091526001600160a01b038416600081815260346020908152604080832086518154888501519884015188166401000000000265ffff0000000019998916620100000263ffffffff19909216929098169190911717969096169490941790945560358452828120858401359055603190935291819020805460ff19166001179055517f3de86e7d916b4d19191e071d9ca9ba1c74cc94fc5fea1332b180acf42e27d53690610673908490614a01565b60405180910390a25050565b6106876125c4565b61068f612666565b61069a600033612a15565b6106a3816126d3565b6001600160a01b0381811660009081526036602090815260408083205460338352818420603290935292819020549051636e87f18d60e11b815260048101919091527f000000000000000000000000000000000000000000000000000000000000000084169363b261ea8b9386936001600160801b039091169290917f0000000000000000000000000000000000000000000000000000000000000000169063dd0fe31a90602401600060405180830381865afa158015610768573d6000803e3d6000fd5b505050506040513d6000823e601f3d908101601f1916820160405261079091908101906148b5565b7f00000000000000000000000000000000000000000000000000000000000000006001600160a01b031663471ab76c6040518163ffffffff1660e01b8152600401602060405180830381865afa1580156107ee573d6000803e3d6000fd5b505050506040513d601f19601f820116820180604052508101906108129190614aba565b6040518663ffffffff1660e01b8152600401610832959493929190614b15565b600060405180830381600087803b15801561084c57600080fd5b505af1158015610860573d6000803e3d6000fd5b5050505050565b60006108716125c4565b610879612666565b6108868484333386612ad5565b90505b9392505050565b6001600160a01b0381166000908152603360209081526040918290208054835181840281018401909452808452606093928301828280156108fa57602002820191906000526020600020905b81546001600160a01b031681526001909101906020018083116108dc575b50505050509050919050565b60006109106125c4565b610918612666565b610921866126d3565b6001600160a01b03868116600090815260326020526040808220549051636e87f18d60e11b815291927f0000000000000000000000000000000000000000000000000000000000000000169163dd0fe31a916109839160040190815260200190565b600060405180830381865afa1580156109a0573d6000803e3d6000fd5b505050506040513d6000823e601f3d908101601f191682016040526109c891908101906148b5565b6001600160a01b0388166000908152603360209081526040918290208054835181840281018401909452808452939450610a45938b9392830182828015610a3857602002820191906000526020600020905b81546001600160a01b03168152600190910190602001808311610a1a575b5050505050836000612e94565b6001600160a01b0387811660009081526036602052604090819020549051631948706560e21b8152600160801b9091046001600160801b0316917f00000000000000000000000000000000000000000000000000000000000000001690636521c19490610ac6908b908b908b908b908b908a90339081908c90600401614ba0565b6020604051808303816000875af1158015610ae5573d6000803e3d6000fd5b505050506040513d601f19601f82011682018060405250810190610b099190614c0b565b98975050505050505050565b610b1d6125c4565b610b25612666565b610b2e826126d3565b6104af8260336000856001600160a01b03166001600160a01b03168152602001908152602001600020805480602002602001604051908101604052809291908181526020018280548015610bab57602002820191906000526020600020905b81546001600160a01b03168152600190910190602001808311610b8d575b505050506001600160a01b0386811660009081526032602052604090819020549051636e87f18d60e11b815260048101919091527f0000000000000000000000000000000000000000000000000000000000000000909116915063dd0fe31a90602401600060405180830381865afa158015610c2b573d6000803e3d6000fd5b505050506040513d6000823e601f3d908101601f19168201604052610c5391908101906148b5565b84612e94565b6000610c636125c4565b610c6b612666565b610ca17f8175070940abf2fdc44d0ca002a58b0ee7538d3bf19eb0576843c4b91dd91b45610c9c60208701876141ec565b612a15565b610cd8610cb160208601866141ec565b7f3f4962f8c2b64c6192ef9b583127ce92f8061bd2cdb53f44f7d399d083bda82333613251565b6108868484853386612ad5565b610ced612666565b610cf8600033612a15565b60005b82811015610f3d576000848483818110610d1757610d17614c24565b9050602002016020810190610d2c91906141ec565b9050600060336000878786818110610d4657610d46614c24565b9050602002016020810190610d5b91906141ec565b6001600160a01b03166001600160a01b03168152602001908152602001600020805480602002602001604051908101604052809291908181526020018280548015610dcf57602002820191906000526020600020905b81546001600160a01b03168152600190910190602001808311610db1575b5050505050905060005b8151811015610f2f57876001600160a01b0316828281518110610dfe57610dfe614c24565b60200260200101516001600160a01b031603610f27576001600160a01b038316600090815260336020526040902080547f0000000000000000000000000000000000000000000000000000000000000000919083908110610e6157610e61614c24565b600091825260208083209190910180546001600160a01b0319166001600160a01b03948516179055918516815260359091526040812054610ea391839061331e565b6001600160a01b038416600090815260356020526040902055868685818110610ece57610ece614c24565b9050602002016020810190610ee391906141ec565b6001600160a01b0316886001600160a01b03167feb80b29f2addaaffe1908cea1e5251e60bf25cb5bef4c02f816e670ede404dfa60405160405180910390a3610f2f565b600101610dd9565b505050806001019050610cfb565b508015610fc0576040516302ea311d60e31b81526001600160a01b0385811660048301527f0000000000000000000000000000000000000000000000000000000000000000169063175188e890602401600060405180830381600087803b158015610fa757600080fd5b505af1158015610fbb573d6000803e3d6000fd5b505050505b50505050565b6000610ff36040518060800160405280606081526020016060815260200160608152602001606081525090565b60408051808201825260008082526020820152905163a7614d8160e01b81526001600160a01b0387169063a7614d81906110319087906004016146e4565b600060405180830381865afa15801561104e573d6000803e3d6000fd5b505050506040513d6000823e601f3d908101601f191682016040526110769190810190614c85565b6040808401919091525163539183e760e01b81526001600160a01b0387169063539183e7906110ab9088908890600401614d71565b600060405180830381865afa1580156110c8573d6000803e3d6000fd5b505050506040513d6000823e601f3d908101601f191682016040526110f09190810190614df0565b60608301526001600160a01b0386811660009081526032602052604090819020549051636e87f18d60e11b815260048101919091527f00000000000000000000000000000000000000000000000000000000000000009091169063dd0fe31a90602401600060405180830381865afa158015611170573d6000803e3d6000fd5b505050506040513d6000823e601f3d908101601f1916820160405261119891908101906148b5565b82526001600160a01b0386166000908152603360209081526040918290208054835181840281018401909452808452909183018282801561120257602002820191906000526020600020905b81546001600160a01b031681526001909101906020018083116111e4575b50505050602080850192909252506001600160a01b03871660009081526036825260408082208151808301909252546001600160801b038082168352600160801b909104169281019290925290915061126290879086908590858161336a565b61126c9084614e3a565b925080600001516001600160801b031681602001516001600160801b031603611296575050610889565b6001600160a01b038087166000908152603760209081526040808320858301516001600160801b031684528252918290205490850151915163669d1b7160e11b81529092611367927f00000000000000000000000000000000000000000000000000000000000000009091169163cd3a36e2916113159160040161432c565b600060405180830381865afa158015611332573d6000803e3d6000fd5b505050506040513d6000823e601f3d908101601f1916820160405261135a9190810190614df0565b8285602001516000613528565b61137357505050610889565b61137b61412b565b506001600160a01b0387166000818152603860209081526040808320548151808301835287840180516001600160801b0390811683528286019390935286865260348552838620845160608082018752915461ffff80821683526201000082048116838a01526401000000009091041681870152855160e081018752988952888701849052958b01519488019490945289519387019390935260808601879052915191949293929160a0830191611434918e911661363d565b81526020018390526040516371b5cb8d60e01b81529091506000906001600160a01b037f000000000000000000000000000000000000000000000000000000000000000016906371b5cb8d9061148e908590600401614e70565b600060405180830381865afa1580156114ab573d6000803e3d6000fd5b505050506040513d6000823e601f3d908101601f191682016040526114d39190810190614f1f565b90506114e88b8a8984600001518a600161336a565b6114f29089614e3a565b9b9a5050505050505050505050565b6040805160608181018352600080835260208301819052928201839052829182919081906001600160a01b03871660008181526036602090815260408083208151808301835290546001600160801b038082168352600160801b909104168184015293835260338252808320805482518185028101850190935280835293949391929091908301828280156115bf57602002820191906000526020600020905b81546001600160a01b031681526001909101906020018083116115a1575b50505050509350886001600160a01b03166318160ddd6040518163ffffffff1660e01b8152600401602060405180830381865afa158015611604573d6000803e3d6000fd5b505050506040513d601f19601f820116820180604052508101906116289190614c0b565b6001600160a01b038a1660008181526034602090815260408083208151606081018352905461ffff808216835262010000820481168386015264010000000090910416818301529383526037825280832086830180516001600160801b0390811686529190935292205490518551949c509296509450908116911603611700578760008086516001600160401b038111156116c5576116c56144a1565b6040519080825280602002602001820160405280156116ee578160200160208202803683370190505b509750975097509750505050506119bb565b60405163669d1b7160e11b815261179e906001600160a01b037f0000000000000000000000000000000000000000000000000000000000000000169063cd3a36e29061175090889060040161432c565b600060405180830381865afa15801561176d573d6000803e3d6000fd5b505050506040513d6000823e601f3d908101601f191682016040526117959190810190614df0565b83866000613528565b6117bf578760008086516001600160401b038111156116c5576116c56144a1565b6117c761412b565b6001600160a01b038a8116600090815260326020526040808220549051636e87f18d60e11b8152600481019190915290916060917f00000000000000000000000000000000000000000000000000000000000000009091169063dd0fe31a90602401600060405180830381865afa158015611846573d6000803e3d6000fd5b505050506040513d6000823e601f3d908101601f1916820160405261186e91908101906148b5565b90506118878c85602001516001600160801b031661363d565b6001600160a01b038d16600090815260386020908152604091829020548251808401909352878201516001600160801b0316835290820152935091506118cb614149565b6040518060e001604052808e6001600160a01b0316815260200185815260200189815260200183815260200187815260200184815260200188815250905060007f00000000000000000000000000000000000000000000000000000000000000006001600160a01b03166371b5cb8d836040518263ffffffff1660e01b81526004016119579190614e70565b600060405180830381865afa158015611974573d6000803e3d6000fd5b505050506040513d6000823e601f3d908101601f1916820160405261199c9190810190614f1f565b8051604082015160a090920151909d50909b5099505050505050505050505b9193509193565b60606119cc6125c4565b32156119f257604051632aa2819760e01b81523260048201526024015b60405180910390fd5b6119fe85858585613686565b90505b949350505050565b6060611a136125c4565b611a1b613a0e565b611a2784848433613686565b9050610889613a7d565b6001600160a01b03821660009081526037602090815260408083208484529091529020545b92915050565b60606000611a686125c4565b611a70612666565b611a79886126d3565b6001600160a01b03888116600090815260326020526040808220549051636e87f18d60e11b81526004810182905290927f0000000000000000000000000000000000000000000000000000000000000000169063dd0fe31a90602401600060405180830381865afa158015611af2573d6000803e3d6000fd5b505050506040513d6000823e601f3d908101601f19168201604052611b1a91908101906148b5565b6001600160a01b038b166000908152603360209081526040918290208054835181840281018401909452808452939450611b95938e9392830182828015610a38576020028201919060005260206000209081546001600160a01b03168152600190910190602001808311610a1a575050505050836000612e94565b7f00000000000000000000000000000000000000000000000000000000000000006001600160a01b031663b8b1a3e76040518061010001604052808d6001600160a01b031681526020018c8c808060200260200160405190810160405280939291908181526020018383602002808284376000920191909152505050908252506040805160208c810282810182019093528c82529283019290918d918d918291850190849080828437600081840152601f19601f820116905080830192505050505050508152602001886001600160a01b03168152602001336001600160a01b03168152602001858152602001848152602001603660008f6001600160a01b03166001600160a01b0316815260200190815260200160002060000160109054906101000a90046001600160801b03166001600160801b03168152506040518263ffffffff1660e01b8152600401611cec9190614ff4565b6000604051808303816000875af1158015611d0b573d6000803e3d6000fd5b505050506040513d6000823e601f3d908101601f19168201604052611d3391908101906150bb565b935093505050965096945050505050565b6001600160a01b0381811660009081526032602052604090819020549051636e87f18d60e11b815260048101919091526060917f000000000000000000000000000000000000000000000000000000000000000081169163ac18ea13917f0000000000000000000000000000000000000000000000000000000000000000169063dd0fe31a90602401600060405180830381865afa158015611dea573d6000803e3d6000fd5b505050506040513d6000823e601f3d908101601f19168201604052611e1291908101906148b5565b6001600160a01b03851660009081526035602090815260408083205460339092529182902091516001600160e01b031960e086901b168152611e58939290600401615101565b600060405180830381865afa158015611e75573d6000803e3d6000fd5b505050506040513d6000823e601f3d908101601f19168201604052611a569190810190614df0565b6000611ea76125c4565b611eaf612666565b611ec4611ebf60208401846141ec565b6126d3565b611a5682613ad8565b919050565b611eda6125c4565b611ee2613a0e565b3215611f1257611f127f0a66f215ebc1d03d1ea20a9a71a7626b5d7c81bb86acae0bee93ba60b544a9f633612a15565b428160c001351015611f3a576040516001620ae83560e11b0319815260040160405180910390fd5b611f448180614943565b1590506125b957611f586040820182614943565b9050611f676020830183614943565b9050141580611f925750611f7e6060820182614943565b9050611f8d6020830183614943565b905014155b80611fb95750611fa56080820182614943565b9050611fb46020830183614943565b905014155b15611fd757604051634ec4810560e11b815260040160405180910390fd5b6000603281611fe68480614943565b6000818110611ff757611ff7614c24565b905060200201602081019061200c91906141ec565b6001600160a01b03166001600160a01b0316815260200190815260200160002054905060007f00000000000000000000000000000000000000000000000000000000000000006001600160a01b031663dd0fe31a836040518263ffffffff1660e01b815260040161207f91815260200190565b600060405180830381865afa15801561209c573d6000803e3d6000fd5b505050506040513d6000823e601f3d908101601f191682016040526120c491908101906148b5565b905060005b6120d38480614943565b905081101561239d5760006120e88580614943565b838181106120f8576120f8614c24565b905060200201602081019061210d91906141ec565b9050612118816126d3565b6001600160a01b03811660009081526032602052604090205484146121505760405163030f0dd360e11b815260040160405180910390fd5b6040516325e4e74f60e21b81526001600160a01b0382811660048301526000917f0000000000000000000000000000000000000000000000000000000000000000909116906397939d3c90602401602060405180830381865afa1580156121bb573d6000803e3d6000fd5b505050506040513d601f19601f820116820180604052508101906121df9190614aba565b6001600160a01b031603612206576040516319be728160e11b815260040160405180910390fd5b6122908160336000846001600160a01b03166001600160a01b0316815260200190815260200160002080548060200260200160405190810160405280929190818152602001828054801561228357602002820191906000526020600020905b81546001600160a01b03168152600190910190602001808311612265575b5050505050856000612e94565b6001600160a01b038181166000908152603360205260408082209051630bb427f560e41b815291927f0000000000000000000000000000000000000000000000000000000000000000169163bb427f50916122f09186919060040161512c565b602060405180830381865afa15801561230d573d6000803e3d6000fd5b505050506040513d601f19601f820116820180604052508101906123319190614c0b565b6001600160a01b0383166000818152603560205260409081902083905551919250907fee364d6312abc273abfa22ba799f321e049f2e38d0100fad80090594bc0fbff3906123829084815260200190565b60405180910390a250508061239690615150565b90506120c9565b5060006040518061010001604052807f00000000000000000000000000000000000000000000000000000000000000006001600160a01b031681526020017f00000000000000000000000000000000000000000000000000000000000000006001600160a01b031681526020017f00000000000000000000000000000000000000000000000000000000000000006001600160a01b0316815260200184815260200185806040019061244f9190614943565b61245891615169565b815260200161246a6060870187614943565b612473916152ed565b81526020016124856080870187614943565b61248e916152ed565b81526020016124a060a0870187615354565b808060200260200160405190810160405280939291908181526020016000905b828210156124fe57604080518082018252908084028701906002908390839080828437600092019190915250505081526001909101906020016124c0565b505050919092525090915073__$03214c9106283b570127cfadfea5427cfa$__905063d24a280f61252f8680614943565b61253c6020890189614943565b7f000000000000000000000000000000000000000000000000000000000000000087603360356040518963ffffffff1660e01b81526004016125859897969594939291906155a8565b60006040518083038186803b15801561259d57600080fd5b505af41580156125b1573d6000803e3d6000fd5b505050505050505b6125c1613a7d565b50565b7f00000000000000000000000000000000000000000000000000000000000000006001600160a01b0316635c975abb6040518163ffffffff1660e01b8152600401602060405180830381865afa158015612622573d6000803e3d6000fd5b505050506040513d601f19601f8201168201806040525081019061264691906156b0565b15612664576040516301ca793160e61b815260040160405180910390fd5b565b7f00000000000000000000000000000000000000000000000000000000000000006001600160a01b031663d8f1086a6040518163ffffffff1660e01b815260040160006040518083038186803b1580156126bf57600080fd5b505afa158015610fc0573d6000803e3d6000fd5b6001600160a01b03811660009081526031602052604090205460ff166125c15760405163cbf256f360e01b815260040160405180910390fd5b60005b815181101561277e577f00000000000000000000000000000000000000000000000000000000000000006001600160a01b031682828151811061275457612754614c24565b60200260200101516001600160a01b03161461276e575050565b61277781615150565b905061270f565b506040516308c6ead360e01b815260040160405180910390fd5b6001600160a01b0384166000908152603660209081526040918290208251808401909352546001600160801b03808216808552600160801b90920416918301829052146127f85760405163835fa20960e01b815260040160405180910390fd5b805160405162fee80d60e51b81526000916001600160a01b037f00000000000000000000000000000000000000000000000000000000000000001691631fdd01a09161284b918a919089906004016156cd565b6020604051808303816000875af115801561286a573d6000803e3d6000fd5b505050506040513d601f19601f8201168201806040525081019061288e9190614c0b565b8251604051631f4d831b60e31b81529192506000916001600160a01b037f0000000000000000000000000000000000000000000000000000000000000000169163fa6c18d8916128e8918b918a908c908b90600401615700565b6020604051808303816000875af1158015612907573d6000803e3d6000fd5b505050506040513d601f19601f8201168201806040525081019061292b9190614c0b565b90508015612937578091505b8160000361295857604051633ada528f60e21b815260040160405180910390fd5b6001600160a01b038716600081815260376020908152604080832087516001600160801b0390811685529083529281902086905586519051921682527fd785d6ac7a1beb66e7c7aa47d471a28dc52f21913125972a85b8cbd2bf6234de910160405180910390a28251836129cb8261574b565b6001600160801b039081169091526001600160a01b039098166000908152603660209081526040909120855191909501518916600160801b02981697909717909255505050505050565b604051632474521560e21b8152600481018390526001600160a01b0382811660248301527f000000000000000000000000000000000000000000000000000000000000000016906391d1485490604401602060405180830381865afa158015612a82573d6000803e3d6000fd5b505050506040513d601f19601f82011682018060405250810190612aa691906156b0565b6104af576040516301d4003760e61b8152600481018390526001600160a01b03821660248201526044016119e9565b6000612ae7611ebf60208801886141ec565b6000603381612af960208a018a6141ec565b6001600160a01b03166001600160a01b03168152602001908152602001600020805480602002602001604051908101604052809291908181526020018280548015612b6d57602002820191906000526020600020905b81546001600160a01b03168152600190910190602001808311612b4f575b50505050509050612b7d8161270c565b60006001600160a01b037f00000000000000000000000000000000000000000000000000000000000000001663dd0fe31a603283612bbe60208d018d6141ec565b6001600160a01b03166001600160a01b03168152602001908152602001600020546040518263ffffffff1660e01b8152600401612bfd91815260200190565b600060405180830381865afa158015612c1a573d6000803e3d6000fd5b505050506040513d6000823e601f3d908101601f19168201604052612c4291908101906148b5565b9050612c5d612c5460208a018a6141ec565b83836000612e94565b6000603681612c6f60208c018c6141ec565b6001600160a01b03908116825260208083019390935260409182016000208251808401909352546001600160801b038082168452600160801b9091041682840181905291935090917f000000000000000000000000000000000000000000000000000000000000000090911690636521c19490612cee908d018d6141ec565b612cfb60408e018e614943565b8e8060600190612d0b9190614943565b898f8f8a6040518a63ffffffff1660e01b8152600401612d3399989796959493929190614ba0565b6020604051808303816000875af1158015612d52573d6000803e3d6000fd5b505050506040513d601f19601f82011682018060405250810190612d769190614c0b565b5050604080516080810182526001600160a01b038a8116825289811660208301528881168284015283516001600160801b031660608301529151633b72ca8760e01b81527f000000000000000000000000000000000000000000000000000000000000000090921691633b72ca8791612df4918d91906004016157d8565b6020604051808303816000875af1158015612e13573d6000803e3d6000fd5b505050506040513d601f19601f82011682018060405250810190612e379190614c0b565b93508415612e8857612e88612e4f60208b018b6141ec565b60356000612e6060208e018e6141ec565b6001600160a01b03166001600160a01b03168152602001908152602001600020548585612798565b50505095945050505050565b6001600160a01b0384166000908152603660209081526040918290208251808401909352546001600160801b03808216808552600160801b9092041691830182905203612f00578115612efa5760405163cbf261db60e01b815260040160405180910390fd5b50610fc0565b6001600160a01b038516600090815260376020908152604080832084830180516001600160801b0390811686529184528285205483518085019094528084529051909493830191612f53918b911661363d565b905260405163669d1b7160e11b8152909150612ff5906001600160a01b037f0000000000000000000000000000000000000000000000000000000000000000169063cd3a36e290612fa8908a9060040161432c565b600060405180830381865afa158015612fc5573d6000803e3d6000fd5b505050506040513d6000823e601f3d908101601f19168201604052612fed9190810190614df0565b838887613528565b61300157505050610fc0565b6001600160a01b0380881660008181526034602090815260408083208151606081018352905461ffff808216835262010000820481168386015264010000000090910416818301528151808301835289840180516001600160801b031682529585526038845293829020549284019290925292519251630701cbfd60e51b8152909391927f00000000000000000000000000000000000000000000000000000000000000009092169163e0397fa0916130c2918d918d908a90600401615827565b600060405180830381600087803b1580156130dc57600080fd5b505af11580156130f0573d6000803e3d6000fd5b50506040516341c4f07560e01b8152600092506001600160a01b037f00000000000000000000000000000000000000000000000000000000000000001691506341c4f0759061314d908d9086908e908a908f908b9060040161586b565b6000604051808303816000875af115801561316c573d6000803e3d6000fd5b505050506040513d6000823e601f3d908101601f191682016040526131949190810190614f1f565b6020808801516040516001600160801b0390911681529192506001600160a01b038c16917f206fbd6d84a86176a548e1fdfddab2bc0ec06020f85918c4b12f8f5716a3a81a910160405180910390a2602086018051906131f38261574b565b6001600160801b039081169091526001600160a01b038c1660009081526036602090815260408083208b519b8301518516600160801b029b9094169a909a179092559281015160389091529690912095909555505050505050505050565b6040516304bea65b60e21b81526001600160a01b0384811660048301526024820184905282811660448301527f000000000000000000000000000000000000000000000000000000000000000016906312fa996c90606401602060405180830381865afa1580156132c6573d6000803e3d6000fd5b505050506040513d601f19601f820116820180604052508101906132ea91906156b0565b613319576040516301d4003760e61b8152600481018390526001600160a01b03821660248201526044016119e9565b505050565b60006010831061332d57600080fd5b62010000821061333c57600080fd5b613347601084615908565b925081831b8361335b60016201000061591f565b901b1985161790509392505050565b6000805b865181101561351d57600160ff1b87828151811061338e5761338e614c24565b60200260200101511161350d57856060015181815181106133b1576133b1614c24565b60200260200101516000031561350d576000866040015182815181106133d9576133d9614c24565b60200260200101518060200190518101906133f49190615932565b905083158015613415575084602001516001600160801b0316816040015110155b15613420575061350d565b83801561343e575084602001516001600160801b0316816040015114155b15613449575061350d565b7f00000000000000000000000000000000000000000000000000000000000000006001600160a01b031663708215b08a838a60600151868151811061349057613490614c24565b60200260200101518a8c600001516040518663ffffffff1660e01b81526004016134be9594939291906159b5565b602060405180830381865afa1580156134db573d6000803e3d6000fd5b505050506040513d601f19601f820116820180604052508101906134ff9190614c0b565b6135099084614e3a565b9250505b61351681615150565b905061336e565b509695505050505050565b6000805b8351811015613631577f00000000000000000000000000000000000000000000000000000000000000006001600160a01b031684828151811061357157613571614c24565b60200260200101516001600160a01b031603156136215785818151811061359a5761359a614c24565b60200260200101516135b58287613e5c90919063ffffffff16565b10613621578215613617578381815181106135d2576135d2614c24565b60200260200101516135ed8287613e5c90919063ffffffff16565b60405163751077a360e01b81526001600160a01b03909216600483015260248201526044016119e9565b6000915050611a01565b61362a81615150565b905061352c565b50600195945050505050565b6000811561367d576001600160a01b03831660009081526037602052604081209061366960018561591f565b815260200190815260200160002054610889565b60009392505050565b6060613698611ebf60208701876141ec565b60006033816136aa60208901896141ec565b6001600160a01b03166001600160a01b0316815260200190815260200160002080548060200260200160405190810160405280929190818152602001828054801561371e57602002820191906000526020600020905b81546001600160a01b03168152600190910190602001808311613700575b5050505050905060006032600088600001602081019061373e91906141ec565b6001600160a01b03166001600160a01b0316815260200190815260200160002054905060007f00000000000000000000000000000000000000000000000000000000000000006001600160a01b031663dd0fe31a836040518263ffffffff1660e01b81526004016137b191815260200190565b600060405180830381865afa1580156137ce573d6000803e3d6000fd5b505050506040513d6000823e601f3d908101601f191682016040526137f691908101906148b5565b8351909150861461381a57604051634ec4810560e11b815260040160405180910390fd5b61383361382a60208a018a6141ec565b84836000612e94565b600060368161384560208c018c6141ec565b6001600160a01b039081168252602080830193909352604090910160002054600160801b90046001600160801b031692507f00000000000000000000000000000000000000000000000000000000000000001690636521c194906138ab908c018c6141ec565b6138b860408d018d614943565b6138c560608f018f614943565b888d8e8a6040518a63ffffffff1660e01b81526004016138ed99989796959493929190614ba0565b6020604051808303816000875af115801561390c573d6000803e3d6000fd5b505050506040513d601f19601f820116820180604052508101906139309190614c0b565b507f00000000000000000000000000000000000000000000000000000000000000006001600160a01b0316634fb62d478a6040518060a001604052808881526020018681526020018781526020018a6001600160a01b031681526020018c8c9061399a91906152ed565b8152506040518363ffffffff1660e01b81526004016139ba929190615a14565b6000604051808303816000875af11580156139d9573d6000803e3d6000fd5b505050506040513d6000823e601f3d908101601f19168201604052613a019190810190614df0565b9998505050505050505050565b7f00000000000000000000000000000000000000000000000000000000000000006001600160a01b031663488c20486040518163ffffffff1660e01b8152600401600060405180830381600087803b158015613a6957600080fd5b505af1158015610fc0573d6000803e3d6000fd5b7f00000000000000000000000000000000000000000000000000000000000000006001600160a01b0316636fc9fc2e6040518163ffffffff1660e01b8152600401600060405180830381600087803b158015613a6957600080fd5b600080603381613aeb60208601866141ec565b6001600160a01b03166001600160a01b03168152602001908152602001600020805480602002602001604051908101604052809291908181526020018280548015613b5f57602002820191906000526020600020905b81546001600160a01b03168152600190910190602001808311613b41575b50505050509050613b6f8161270c565b60006001600160a01b037f00000000000000000000000000000000000000000000000000000000000000001663dd0fe31a603283613bb060208901896141ec565b6001600160a01b03166001600160a01b03168152602001908152602001600020546040518263ffffffff1660e01b8152600401613bef91815260200190565b600060405180830381865afa158015613c0c573d6000803e3d6000fd5b505050506040513d6000823e601f3d908101601f19168201604052613c3491908101906148b5565b90506000603581613c4860208801886141ec565b6001600160a01b03168152602080820192909252604001600020549150613c7e90613c75908701876141ec565b84846000612e94565b60007f00000000000000000000000000000000000000000000000000000000000000006001600160a01b031663237d311d876040518060a00160405280336001600160a01b03168152602001878152602001888152602001868152602001603660008c6000016020810190613cf391906141ec565b6001600160a01b0316815260208101919091526040908101600020546001600160801b0316909152516001600160e01b031960e085901b168152613d3b929190600401615ade565b6020604051808303816000875af1158015613d5a573d6000803e3d6000fd5b505050506040513d601f19601f82011682018060405250810190613d7e9190614c0b565b905060005b613d906020880188614943565b9050811015613e2557613e15337f0000000000000000000000000000000000000000000000000000000000000000613dcb60208b018b614943565b85818110613ddb57613ddb614c24565b90506020020135878581518110613df457613df4614c24565b60200260200101516001600160a01b0316613e90909392919063ffffffff16565b613e1e81615150565b9050613d83565b50613e3660a0870160808801615bcb565b15613e5357613e53613e4b60208801886141ec565b838686612798565b95945050505050565b600060108210613e6b57600080fd5b613e7960016201000061591f565b613e84836010615908565b84901c16905092915050565b604080516001600160a01b038581166024830152848116604483015260648083018590528351808403909101815260849092018352602080830180516001600160e01b03166323b872dd60e01b17905283518085019094528084527f5361666545524332303a206c6f772d6c6576656c2063616c6c206661696c656490840152610fc092879291600091613f28918516908490613fa5565b8051909150156133195780806020019051810190613f4691906156b0565b6133195760405162461bcd60e51b815260206004820152602a60248201527f5361666545524332303a204552433230206f7065726174696f6e20646964206e6044820152691bdd081cdd58d8d9595960b21b60648201526084016119e9565b6060610886848460008585600080866001600160a01b03168587604051613fcc9190615be8565b60006040518083038185875af1925050503d8060008114614009576040519150601f19603f3d011682016040523d82523d6000602084013e61400e565b606091505b509150915061401f8783838761402a565b979650505050505050565b60608315614099578251600003614092576001600160a01b0385163b6140925760405162461bcd60e51b815260206004820152601d60248201527f416464726573733a2063616c6c20746f206e6f6e2d636f6e747261637400000060448201526064016119e9565b5081611a01565b611a0183838151156140ae5781518083602001fd5b8060405162461bcd60e51b81526004016119e99190615c04565b82805482825590600052602060002090810192821561411b579160200282015b8281111561411b5781546001600160a01b0319166001600160a01b038435161782556020909201916001909101906140e8565b506141279291506141c2565b5090565b60405180604001604052806002906020820280368337509192915050565b6040518060e0016040528060006001600160a01b0316815260200161416c61412b565b8152602001606081526020016060815260200160008152602001600081526020016141bd6040518060600160405280600061ffff168152602001600061ffff168152602001600061ffff1681525090565b905290565b5b8082111561412757600081556001016141c3565b6001600160a01b03811681146125c157600080fd5b6000602082840312156141fe57600080fd5b8135610889816141d7565b6000806040838503121561421c57600080fd5b8235614227816141d7565b915060208301356001600160401b0381111561424257600080fd5b830160c0818603121561425457600080fd5b809150509250929050565b60006080828403121561427157600080fd5b50919050565b80151581146125c157600080fd5b60008060006060848603121561429a57600080fd5b83356001600160401b038111156142b057600080fd5b6142bc8682870161425f565b93505060208401356142cd816141d7565b915060408401356142dd81614277565b809150509250925092565b600081518084526020808501945080840160005b838110156143215781516001600160a01b0316875295820195908201906001016142fc565b509495945050505050565b60208152600061088960208301846142e8565b60008083601f84011261435157600080fd5b5081356001600160401b0381111561436857600080fd5b6020830191508360208260051b850101111561438357600080fd5b9250929050565b6000806000806000606086880312156143a257600080fd5b85356143ad816141d7565b945060208601356001600160401b03808211156143c957600080fd5b6143d589838a0161433f565b909650945060408801359150808211156143ee57600080fd5b506143fb8882890161433f565b969995985093965092949392505050565b6000806040838503121561441f57600080fd5b823561442a816141d7565b9150602083013561425481614277565b6000806000806060858703121561445057600080fd5b843561445b816141d7565b935060208501356001600160401b0381111561447657600080fd5b6144828782880161433f565b909450925050604085013561449681614277565b939692955090935050565b634e487b7160e01b600052604160045260246000fd5b60405160c081016001600160401b03811182821017156144d9576144d96144a1565b60405290565b604051606081016001600160401b03811182821017156144d9576144d96144a1565b604051601f8201601f191681016001600160401b0381118282101715614529576145296144a1565b604052919050565b60006001600160401b0382111561454a5761454a6144a1565b5060051b60200190565b600082601f83011261456557600080fd5b8135602061457a61457583614531565b614501565b82815260059290921b8401810191818101908684111561459957600080fd5b8286015b8481101561351d578035835291830191830161459d565b6000806000606084860312156145c957600080fd5b83356145d4816141d7565b925060208401356145e4816141d7565b915060408401356001600160401b038111156145ff57600080fd5b61460b86828701614554565b9150509250925092565b600081518084526020808501945080840160005b8381101561432157815187529582019590820190600101614629565b84815283602082015282604082015260806060820152600061466a6080830184614615565b9695505050505050565b6000806000806060858703121561468a57600080fd5b84356001600160401b03808211156146a157600080fd5b6146ad8883890161425f565b955060208701359150808211156146c357600080fd5b506146d08782880161433f565b9094509250506040850135614496816141d7565b6020815260006108896020830184614615565b60008060006040848603121561470c57600080fd5b83356001600160401b038082111561472357600080fd5b61472f8783880161425f565b9450602086013591508082111561474557600080fd5b506147528682870161433f565b9497909650939450505050565b6000806040838503121561477257600080fd5b823561477d816141d7565b946020939093013593505050565b600080600080600080608087890312156147a457600080fd5b86356147af816141d7565b955060208701356001600160401b03808211156147cb57600080fd5b6147d78a838b0161433f565b909750955060408901359150808211156147f057600080fd5b506147fd89828a0161433f565b9094509250506060870135614811816141d7565b809150509295509295509295565b6040815260006148326040830185614615565b90508260208301529392505050565b60006020828403121561485357600080fd5b81356001600160401b0381111561486957600080fd5b820160a0818503121561088957600080fd5b60006020828403121561488d57600080fd5b81356001600160401b038111156148a357600080fd5b820160e0818503121561088957600080fd5b600060208083850312156148c857600080fd5b82516001600160401b038111156148de57600080fd5b8301601f810185136148ef57600080fd5b80516148fd61457582614531565b81815260059190911b8201830190838101908783111561491c57600080fd5b928401925b8284101561401f578351614934816141d7565b82529284019290840190614921565b6000808335601e1984360301811261495a57600080fd5b8301803591506001600160401b0382111561497457600080fd5b6020019150600581901b360382131561438357600080fd5b803561ffff81168114611ecd57600080fd5b6000602082840312156149b057600080fd5b6108898261498c565b6000808335601e198436030181126149d057600080fd5b83016020810192503590506001600160401b038111156149ef57600080fd5b8060051b360382131561438357600080fd5b6000602080835260e08301843582850152614a1e828601866149b9565b60c06040870152918290529060009061010086015b81831015614a63578335614a46816141d7565b6001600160a01b0316815292840192600192909201918401614a33565b60408801356060880152614a796060890161498c565b61ffff811660808901529450614a916080890161498c565b61ffff811660a08901529450614aa960a0890161498c565b61ffff811660c0890152945061401f565b600060208284031215614acc57600080fd5b8151610889816141d7565b6000815480845260208085019450836000528060002060005b838110156143215781546001600160a01b031687529582019560019182019101614af0565b600060018060a01b0380881683526001600160801b038716602084015260a06040840152614b4660a0840187614ad7565b8381036060850152614b5881876142e8565b9250508084166080840152509695505050505050565b81835260006001600160fb1b03831115614b8757600080fd5b8260051b80836020870137939093016020019392505050565b600060018060a01b03808c16835260e06020840152614bc360e084018b8d614b6e565b8381036040850152614bd6818a8c614b6e565b90508381036060850152614bea81896142e8565b9682166080850152509390931660a082015260c00152509695505050505050565b600060208284031215614c1d57600080fd5b5051919050565b634e487b7160e01b600052603260045260246000fd5b60006001600160401b03821115614c5357614c536144a1565b50601f01601f191660200190565b60005b83811015614c7c578181015183820152602001614c64565b50506000910152565b60006020808385031215614c9857600080fd5b82516001600160401b0380821115614caf57600080fd5b818501915085601f830112614cc357600080fd5b8151614cd161457582614531565b81815260059190911b83018401908481019088831115614cf057600080fd5b8585015b83811015614d6457805185811115614d0c5760008081fd5b8601603f81018b13614d1e5760008081fd5b878101516040614d3061457583614c3a565b8281528d82848601011115614d455760008081fd5b614d54838c8301848701614c61565b8652505050918601918601614cf4565b5098975050505050505050565b6001600160a01b038316815260406020820181905260009061088690830184614615565b600082601f830112614da657600080fd5b81516020614db661457583614531565b82815260059290921b84018101918181019086841115614dd557600080fd5b8286015b8481101561351d5780518352918301918301614dd9565b600060208284031215614e0257600080fd5b81516001600160401b03811115614e1857600080fd5b611a0184828501614d95565b634e487b7160e01b600052601160045260246000fd5b80820180821115611a5657611a56614e24565b8060005b6002811015610fc0578151845260209384019390910190600101614e51565b602080825282516001600160a01b031682820152820151600090614e976040840182614e4d565b5060408301516101406080840152614eb36101608401826142e8565b90506060840151601f198483030160a0850152614ed082826142e8565b915050608084015160c084015260a084015160e084015260c0840151614f17610100850182805161ffff908116835260208083015182169084015260409182015116910152565b509392505050565b600060208284031215614f3157600080fd5b81516001600160401b0380821115614f4857600080fd5b90830190818503610100811215614f5e57600080fd5b614f666144b7565b8351815260208401516020820152604084015160408201526060605f1983011215614f9057600080fd5b614f986144df565b9150606084015182526080840151602083015260a0840151604083015281606082015260c0840151608082015260e0840151915082821115614fd957600080fd5b614fe587838601614d95565b60a08201529695505050505050565b6020815261500e6020820183516001600160a01b03169052565b6000602083015161010080604085015261502c610120850183614615565b91506040850151601f198086850301606087015261504a8483614615565b93506060870151915061506860808701836001600160a01b03169052565b60808701516001600160a01b03811660a0880152915060a087015160c087015260c08701519150808685030160e0870152506150a483826142e8565b92505060e085015181850152508091505092915050565b600080604083850312156150ce57600080fd5b82516001600160401b038111156150e457600080fd5b6150f085828601614d95565b925050602083015190509250929050565b60608152600061511460608301866142e8565b846020840152828103604084015261466a8185614ad7565b6001600160a01b038316815260406020820181905260009061088690830184614ad7565b60006001820161516257615162614e24565b5060010190565b600061517761457584614531565b80848252602080830192508560051b85013681111561519557600080fd5b855b818110156152e15780356001600160401b03808211156151b75760008081fd5b9088019036601f8301126151cb5760008081fd5b81356151d961457582614531565b81815260059190911b830186019086810190368311156151f95760008081fd5b8785015b838110156152cf578035858111156152155760008081fd5b8601606036829003601f190181131561522e5760008081fd5b6152366144df565b8b830135615243816141d7565b8152604083810135615254816141d7565b828e015291830135918883111561526b5760008081fd5b9282019236603f85011261528157600092508283fd5b8c840135925061529361457584614c3a565b83815236828587010111156152a85760008081fd5b838286018f83013760009381018e01939093528101919091528452509188019188016151fd565b50895250505094830194508201615197565b50919695505050505050565b60006152fb61457584614531565b80848252602080830192508560051b85013681111561531957600080fd5b855b818110156152e15780356001600160401b0381111561533a5760008081fd5b61534636828a01614554565b86525093820193820161531b565b6000808335601e1984360301811261536b57600080fd5b8301803591506001600160401b0382111561538557600080fd5b6020019150600681901b360382131561438357600080fd5b8183526000602080850194508260005b858110156143215781356153c0816141d7565b6001600160a01b0316875295820195908201906001016153ad565b600081518084526153f3816020860160208601614c61565b601f01601f19169290920160200192915050565b600081518084526020808501808196506005915083821b81018387016000805b878110156154bc578484038b5282518051808652908801908886019080891b87018a01855b828110156154a657888203601f19018452845180516001600160a01b0390811684528d820151168d840152604090810151606091840182905290615492818501836153db565b968e0196958e01959350505060010161544c565b509d8a019d965050509287019250600101615427565b50919998505050505050505050565b600081518084526020808501808196508360051b810191508286016000805b86811015615539578385038a52825180518087529087019087870190845b8181101561552457835183529289019291890191600101615508565b50509a87019a955050918501916001016154ea565b509298975050505050505050565b60008151808452602080850194508084016000805b8481101561559c57825188835b600281101561558657825182529186019190860190600101615569565b505050604097909701969183019160010161555c565b50959695505050505050565b60c0815260006155bc60c083018a8c61539d565b82810360208401526155cf81898b61539d565b6001600160a01b038881166040860152848203606086015287511681529050610100602087015161560b60208401826001600160a01b03169052565b50604087015161562660408401826001600160a01b03169052565b5060608701516060830152608087015181608084015261564882840182615407565b91505060a087015182820360a084015261566282826154cb565b91505060c087015182820360c084015261567c82826154cb565b91505060e087015182820360e08401526156968282615547565b60808601979097525050505060a001529695505050505050565b6000602082840312156156c257600080fd5b815161088981614277565b6001600160a01b03841681526001600160801b03831660208201526060604082018190526000906119fe908301846142e8565b6001600160a01b03861681526001600160801b038516602082015260a060408201819052600090615733908301866142e8565b8460608401528281036080840152610b0981856142e8565b60006001600160801b0380831681810361576757615767614e24565b6001019392505050565b6000813561577e816141d7565b6001600160a01b03168352602082810135908401526157a060408301836149b9565b608060408601526157b5608086018284614b6e565b9150506157c560608401846149b9565b858303606087015261466a838284614b6e565b60a0815260006157eb60a0830185615771565b905060018060a01b0380845116602084015280602085015116604084015280604085015116606084015250606083015160808301529392505050565b6001600160a01b03851681526001600160801b038416602082015260806040820181905260009061585a908301856142e8565b905082606083015295945050505050565b6001600160a01b03871681526000610140602061588a8185018a614e4d565b81606085015261589c828501896142e8565b9150608084018760005b60028110156158c3578151835291830191908301906001016158a6565b5050505082810360c08401526158d981866142e8565b845161ffff90811660e086015260208601518116610100860152604086015116610120850152915061401f9050565b8082028115828204841417611a5657611a56614e24565b81810381811115611a5657611a56614e24565b60006020828403121561594457600080fd5b81516001600160401b038082111561595b57600080fd5b908301906060828603121561596f57600080fd5b6159776144df565b82518281111561598657600080fd5b61599287828601614d95565b825250602083015160208201526040830151604082015280935050505092915050565b60018060a01b038616815260a0602082015260008551606060a08401526159e0610100840182614615565b9050602087015160c0840152604087015160e08401528560408401528460608401528281036080840152610b0981856142e8565b604081526000615a276040830185615771565b602083820381850152845160a08352615a4360a08401826142e8565b90508186015183820383850152615a5a82826142e8565b604088810151908601526060808901516001600160a01b03169086015260808089015186830391909601528451808252848201959193509084019150600581901b8301840160005b82811015615ad057601f19858303018752615abe828551614615565b96860196938601939150600101615aa2565b509998505050505050505050565b6040815260008335615aef816141d7565b6001600160a01b038181166040850152615b0c60208701876149b9565b925060a06060860152615b2360e086018483614b6e565b9250506040860135615b34816141d7565b811660808501526060860135615b49816141d7565b811660a08501526080860135615b5e81614277565b80151560c086015250838203602085015280855116825250602084015160a06020830152615b8f60a08301826142e8565b905060408501518282036040840152615ba882826142e8565b915050606085015160608301526080850151608083015280925050509392505050565b600060208284031215615bdd57600080fd5b813561088981614277565b60008251615bfa818460208701614c61565b9190910192915050565b60208152600061088960208301846153db56fea2646970667358221220d7b6a32b91223e4d0a25cd2d680b46b183ba4c36aa9839dea87c7f67db4d6a4364736f6c63430008110033",
    "linkReferences": {
      "src/libraries/ReallocationLib.sol": {
        "ReallocationLib": [
          {
            "start": 10599,
            "length": 20
          }
        ]
      }
    }
  },
  "methodIdentifiers": {
    "allocations(address)": "52a9039c",
    "assetGroupId(address)": "6e6462d6",
    "claimSmartVaultTokens(address,uint256[],uint256[])": "61189dd3",
    "claimWithdrawal(address,uint256[],uint256[],address)": "f8a70486",
    "deposit((address,uint256[],address,address,bool))": "fa15b91b",
    "depositRatio(address)": "f8fdca7a",
    "dhwIndexes(address,uint256)": "e90173bd",
    "flushSmartVault(address)": "0d574535",
    "getLatestFlushIndex(address)": "a1280e4d",
    "reallocate((address[],address[],(address,address,bytes)[][],uint256[][],uint256[][],uint256[2][],uint256))": "fe19c168",
    "recoverPendingDeposits(address)": "260c2313",
    "redeem((address,uint256,uint256[],uint256[]),address,bool)": "388bbfd3",
    "redeemFast((address,uint256,uint256[],uint256[]),uint256[][])": "e1c2eea6",
    "redeemFastView((address,uint256,uint256[],uint256[]),uint256[][],address)": "c6a6d7cb",
    "redeemFor((address,uint256,uint256[],uint256[]),address,bool)": "7f03e683",
    "registerSmartVault(address,(uint256,address[],uint256,uint16,uint16,uint16))": "146c6743",
    "removeStrategyFromVaults(address,address[],bool)": "a1bd9cc1",
    "simulateSync(address)": "bb9a7578",
    "simulateSyncWithBurn(address,address,uint256[])": "ab1e74ca",
    "strategies(address)": "39ebf823",
    "syncSmartVault(address,bool)": "73bf0e50"
  },
  "id": 147
}